:020000040800F2
:10000000000002205D1E00087D1B0008831B000805
:10001000891B00088F1B0008951B000800000000CA
:100020000000000000000000000000009B1B000812
:10003000A91B000800000000B71B0008C51B000832
:10004000AD1E0008AD1E0008AD1E0008AD1E000864
:10005000AD1E0008AD1E0008AD1E0008AD1E000854
:10006000AD1E0008AD1E0008AD1E0008AD1E000844
:10007000AD1E0008AD1E0008AD1E0008AD1E000834
:10008000AD1E0008AD1E0008AD1E000800000000F7
:10009000000000000000000000000000AD1E00088D
:1000A000AD1E0008AD1E0008AD1E0008AD1E000804
:1000B000AD1E0008AD1E0008D11B0008AD1E0008D3
:1000C000AD1E0008AD1E0008AD1E0008AD1E0008E4
:1000D000AD1E0008AD1E0008AD1E000800000000A7
:1000E000AD1E0008AD1E0008AD1E00080000000097
:1000F000000000000000000000000000AD1E00082D
:1001000000000000AD1E0008AD1E0008AD1E000876
:1001100000000000000000000000000000000000DF
:10012000AD1E0008AD1E0008AD1E0008AD1E000883
:10013000AD1E0008000000000000000000000000EC
:10014000000000000000000000000000E51B0008A7
:10015000AD1E0008AD1E0008AD1E0008AD1E000853
:10016000AD1E0008AD1E00080000000000000000E9
:10017000000000000000000000000000000000007F
:1001800000000000AD1E000800000000000000009C
:08019000AD1E0008AD1E0008C1
:1001A00010B5054C237833B9044B13B10448AFF3B1
:1001B00000800123237010BDD80200200000000041
:1001C000D0C8000808B5034B1BB103490348AFF37F
:1001D000008008BD00000000DC020020D0C800083C
:1001E000034613F8012B002AFBD1181A0138704777
:1001F00001F0FF01102A2BDB10F0070F08D010F8D8
:10020000013B013A8B422DD010F0070F42B3F6D1DB
:10021000F0B441EA012141EA014122F007047FF0F4
:1002200000070023F0E80256083C85EA010586EA4B
:10023000010685FA47F5A3FA87F586FA47F6A5FA87
:1002400087F68EB9EED1F0BC01F0FF0102F0070293
:1002500032B110F8013B013A83EA010313B1F8D13E
:100260000020704701387047002D06BF354603381F
:10027000073815F0010F07D1013015F4807F02BF58
:10028000013015F4C03F0130F0BC0138704700BFA9
:1002900081F0004102E000BF83F0004330B54FEA37
:1002A00041044FEA430594EA050F08BF90EA020FA4
:1002B0001FBF54EA000C55EA020C7FEA645C7FEA37
:1002C000655C00F0E2804FEA5454D4EB5555B8BF5A
:1002D0006D420CDD2C4480EA020281EA030382EACB
:1002E000000083EA010180EA020281EA0303362D5D
:1002F00088BF30BD11F0004F4FEA01314FF4801C30
:100300004CEA113102D0404261EB410113F0004F41
:100310004FEA03334CEA133302D0524263EB4303F8
:1003200094EA050F00F0A780A4F10104D5F1200E96
:100330000DDB02FA0EFC22FA05F2801841F10001F1
:1003400003FA0EF2801843FA05F359410EE0A5F1C5
:1003500020050EF1200E012A03FA0EFC28BF4CF0F6
:10036000020C43FA05F3C01851EBE37101F00045AC
:1003700007D54FF0000EDCF1000C7EEB00006EEBB9
:100380000101B1F5801F1BD3B1F5001F0CD3490843
:100390005FEA30004FEA3C0C04F101044FEA44529A
:1003A00012F5800F80F09A80BCF1004F08BF5FEA21
:1003B000500C50F1000041EB045141EA050130BD01
:1003C0005FEA4C0C404141EB0101013C28BFB1F513
:1003D000801FE9D291F0000F04BF01460020B1FA5E
:1003E00081F308BF2033A3F10B03B3F120020CDA31
:1003F0000C3208DD02F1140CC2F10C0201FA0CF00F
:1004000021FA02F10CE002F11402D8BFC2F1200C73
:1004100001FA02F120FA0CFCDCBF41EA0C01904029
:10042000E41AA2BF01EB0451294330BD6FEA040472
:100430001F3C1CDA0C340EDC04F11404C4F120025D
:1004400020FA04F001FA02F340EA030021FA04F36F
:1004500045EA030130BDC4F10C04C4F1200220FAC6
:1004600002F001FA04F340EA0300294630BD21FA04
:1004700004F0294630BD94F0000F83F4801306BFCA
:1004800081F480110134013D4EE77FEA645C18BFBE
:100490007FEA655C29D094EA050F08BF90EA020F55
:1004A00005D054EA000C04BF1946104630BD91EA4D
:1004B000030F1EBF0021002030BD5FEA545C05D150
:1004C0004000494128BF41F0004130BD14F580048F
:1004D0003CBF01F5801130BD01F0004545F0FE4103
:1004E00041F470014FF0000030BD7FEA645C1ABF38
:1004F000194610467FEA655C1CBF0B46024650EA6F
:10050000013406BF52EA033591EA030F41F400219A
:1005100030BD00BF90F0000F04BF0021704730B520
:100520004FF4806404F132044FF000054FF00001F5
:1005300050E700BF90F0000F04BF0021704730B5B6
:100540004FF4806404F1320410F0004548BF40428B
:100550004FF000013EE700BF42004FEAE2014FEAE0
:1005600031014FEA02701FBF12F07F4393F07F4FBB
:1005700081F06051704732F07F4208BF704793F0BE
:100580007F4F04BF41F40021704730B54FF46074D1
:1005900001F0004521F000411CE700BF50EA0102D4
:1005A00008BF704730B54FF000050AE050EA01027D
:1005B00008BF704730B511F0004502D5404261EBED
:1005C00041014FF4806404F132045FEA915C3FF42E
:1005D000D8AE4FF003025FEADC0C18BF03325FEACB
:1005E000DC0C18BF033202EBDC02C2F1200300FA7C
:1005F00003FC20FA02F001FA03FE40EA0E0021FAA1
:1006000002F11444BDE600BF70B54FF0FF0C4CF48E
:10061000E06C1CEA11541DBF1CEA135594EA0C0F40
:1006200095EA0C0F00F0DEF82C4481EA030621EA7B
:100630004C5123EA4C5350EA013518BF52EA0335B6
:1006400041F4801143F4801338D0A0FB02CE4FF068
:100650000005E1FB02E506F00042E0FB03E54FF098
:100660000006E1FB03569CF0000F18BF4EF0010E90
:10067000A4F1FF04B6F5007F64F5407404D25FEA8C
:100680004E0E6D4146EB060642EAC62141EA55513F
:100690004FEAC52040EA5E504FEACE2EB4F1FD0C81
:1006A00088BFBCF5E06F1ED8BEF1004F08BF5FEAFF
:1006B000500E50F1000041EB045170BD06F00046B1
:1006C00046EA010140EA020081EA0301B4EB5C045E
:1006D000C2BFD4EB0C0541EA045170BD41F4801156
:1006E0004FF0000E013C00F3AB8014F1360FDEBF7B
:1006F000002001F0004170BDC4F10004203C35DA57
:100700000C341BDC04F11404C4F1200500FA05F3D9
:1007100020FA04F001FA05F240EA020001F000427A
:1007200021F0004110EBD37021FA04F642EB0601F0
:100730005EEA430E08BF20EAD37070BDC4F10C041A
:10074000C4F1200500FA04F320FA05F001FA04F2DE
:1007500040EA020001F0004110EBD37041F10001CA
:100760005EEA430E08BF20EAD37070BDC4F12005D5
:1007700000FA05F24EEA020E20FA04F301FA05F23D
:1007800043EA020321FA04F001F0004121FA04F2E5
:1007900020EA020000EBD3705EEA430E08BF20EAB5
:1007A000D37070BD94F0000F0FD101F000464000EF
:1007B00041EB010111F4801F08BF013CF7D041EA71
:1007C000060195F0000F18BF704703F00046520075
:1007D00043EB030313F4801F08BF013DF7D043EA46
:1007E0000603704794EA0C0F0CEA135518BF95EAFC
:1007F0000C0F0CD050EA410618BF52EA4306D1D183
:1008000081EA030101F000414FF0000070BD50EAA1
:10081000410606BF1046194652EA430619D094EA2B
:100820000C0F02D150EA013613D195EA0C0F05D115
:1008300052EA03361CBF104619460AD181EA030169
:1008400001F0004141F0FE4141F470014FF0000021
:1008500070BD41F0FE4141F4780170BD70B54FF0BC
:10086000FF0C4CF4E06C1CEA11541DBF1CEA13553C
:1008700094EA0C0F95EA0C0F00F0A7F8A4EB05041E
:1008800081EA030E52EA03354FEA013100F0888015
:100890004FEA03334FF0805545EA131343EA1263DE
:1008A0004FEA022245EA111545EA10654FEA002693
:1008B0000EF000419D4208BF964244F1FD0404F54C
:1008C000407402D25B084FEA3202B61A65EB0305A8
:1008D0005B084FEA32024FF480104FF4002CB6EB65
:1008E000020E75EB030E22BFB61A754640EA0C00E5
:1008F0005B084FEA3202B6EB020E75EB030E22BF25
:10090000B61A754640EA5C005B084FEA3202B6EB65
:10091000020E75EB030E22BFB61A754640EA9C0024
:100920005B084FEA3202B6EB020E75EB030E22BFF4
:10093000B61A754640EADC0055EA060E18D04FEAB2
:10094000051545EA16754FEA06164FEAC30343EA52
:1009500052734FEAC2025FEA1C1CC0D111F4801F1F
:100960000BD141EA00014FF000004FF0004CB6E718
:1009700011F4801F04BF01430020B4F1FD0C88BFB7
:10098000BCF5E06F3FF6AFAEB5EB030C04BFB6EBC2
:10099000020C5FEA500C50F1000041EB045170BDB5
:1009A0000EF0004E4EEA113114EB5C04C2BFD4EBE2
:1009B0000C0541EA045170BD41F480114FF0000E66
:1009C000013C90E645EA060E8DE60CEA135594EAE2
:1009D0000C0F08BF95EA0C0F3FF43BAF94EA0C0FE5
:1009E0000AD150EA01347FF434AF95EA0C0F7FF45A
:1009F00025AF104619462CE795EA0C0F06D152EAAE
:100A000003353FF4FDAE1046194622E750EA410691
:100A100018BF52EA43067FF4C5AE50EA41047FF4A2
:100A20000DAF52EA43057FF4EBAE12E74FF0FF3C07
:100A300006E000BF4FF0010C02E000BF4FF0010CD8
:100A40004DF804CD4FEA410C7FEA6C5C4FEA430C51
:100A500018BF7FEA6C5C1BD001B050EA410C0CBFA0
:100A600052EA430C91EA030F02BF90EA020F002002
:100A7000704710F1000F91EA030F58BF994208BF69
:100A800090422CBFD8176FEAE37040F00100704726
:100A90004FEA410C7FEA6C5C02D150EA013C07D17D
:100AA0004FEA430C7FEA6C5CD6D152EA033CD3D0C8
:100AB0005DF8040B704700BF8446104662468C46C2
:100AC0001946634600E000BF01B5FFF7B7FF0028F5
:100AD00048BF10F1000F01BD4DF808EDFFF7F4FF1E
:100AE0000CBF012000205DF808FB00BF4DF808EDA9
:100AF000FFF7EAFF34BF012000205DF808FB00BFCC
:100B00004DF808EDFFF7E0FF94BF012000205DF8ED
:100B100008FB00BF4DF808EDFFF7CEFF94BF0120A2
:100B200000205DF808FB00BF4DF808EDFFF7C4FF9B
:100B300034BF012000205DF808FB00BF4FEA410CE4
:100B40007FEA6C5C02D150EA013C0AD14FEA430CC7
:100B50007FEA6C5C02D152EA033C02D14FF0000004
:100B600070474FF0010070474FEA410212F5001242
:100B700015D211D56FF47873B3EB625212D94FEAE4
:100B8000C12343F0004343EA505311F0004F23FACE
:100B900002F018BF404270474FF00000704750EA23
:100BA000013005D111F0004008BF6FF000407047E0
:100BB0004FF00000704700BF53B94AB9002908BF81
:100BC00000281CBF4FF0FF314FF0FF3000F074B928
:100BD000ADF1080C6DE904CE00F006F8DDF804E094
:100BE000DDE9022304B070472DE9F047089D044673
:100BF0008E46002B4DD18A42944669D9B2FA82F2D0
:100C000052B101FA02F3C2F1200120FA01F10CFA0B
:100C100002FC41EA030E94404FEA1C48210CBEFB43
:100C2000F8F61FFA8CF708FB16E341EA034306FBCC
:100C300007F199420AD91CEB030306F1FF3080F05B
:100C40001F81994240F21C81023E63445B1AA4B2A8
:100C5000B3FBF8F008FB103344EA034400FB07F74A
:100C6000A7420AD91CEB040400F1FF3380F00A818B
:100C7000A74240F207816444023840EA0640E41B80
:100C800000261DB1D4400023C5E900433146BDE82C
:100C9000F0878B4209D9002D00F0EF800026C5E9CE
:100CA000000130463146BDE8F087B3FA83F6002EE6
:100CB0004AD18B4202D3824200F2F980841A61EB5E
:100CC000030301209E46002DE0D0C5E9004EDDE77C
:100CD00002B9FFDEB2FA82F2002A40F09280A1EB64
:100CE0000C014FEA1C471FFA8CFE0126200CB1FBB9
:100CF000F7F307FB131140EA01410EFB03F08842B2
:100D000008D91CEB010103F1FF3802D2884200F23E
:100D1000CB804346091AA4B2B1FBF7F007FB1011D0
:100D200044EA01440EFB00FEA64508D91CEB04046E
:100D300000F1FF3102D2A64500F2BB800846A4EBC9
:100D40000E0440EA03409CE7C6F12007B34022FAB4
:100D500007FC4CEA030C20FA07F401FA06F31C43E3
:100D6000F9404FEA1C4900FA06F3B1FBF9F8200CF0
:100D70001FFA8CFE09FB181140EA014108FB0EF036
:100D8000884202FA06F20BD91CEB010108F1FF3A86
:100D900080F08880884240F28580A8F10208614492
:100DA000091AA4B2B1FBF9F009FB101144EA0141A0
:100DB00000FB0EFE8E4508D91CEB010100F1FF344B
:100DC0006CD28E456AD90238614440EA0840A0FBE3
:100DD0000294A1EB0E01A142C846A64656D353D0B9
:100DE0005DB1B3EB080261EB0E0101FA07F722FADD
:100DF00006F3F1401F43C5E9007100263146BDE806
:100E0000F087C2F12003D8400CFA02FC21FA03F368
:100E1000914001434FEA1C471FFA8CFEB3FBF7F0E9
:100E200007FB10360B0C43EA064300FB0EF69E420E
:100E300004FA02F408D91CEB030300F1FF382FD2A7
:100E40009E422DD9023863449B1B89B2B3FBF7F64F
:100E500007FB163341EA034106FB0EF38B4208D928
:100E60001CEB010106F1FF3816D28B4214D9023E69
:100E70006144C91A46EA004638E72E46284605E787
:100E80000646E3E61846F8E64B45A9D2B9EB020858
:100E900064EB0C0E0138A3E74646EAE7204694E7E8
:100EA0004046D1E7D0467BE7023B614432E730461B
:100EB00009E76444023842E7704700BF80B582B05A
:100EC00000AF0346FB71FB791946072000F0A0FB39
:100ED00000BF0837BD4680BD80B582B000AF034675
:100EE000FB71FB7919463D2000F092FBFB79002B4A
:100EF00003D1132000F080FB02E0072000F07CFB10
:100F000000BF0837BD4680BD80B500AF0020FFF7A9
:100F1000E3FF00BF80BD80B500AF0C20FFF7DCFF12
:100F200000BF80BD80B500AF20213F2000F070FBE6
:100F30004FF42F7000F060FB00BF80BD80B582B021
:100F400000AFFFF7EFFF0023FB71FB1D01221946E5
:100F5000002000F049FCFB79A02B04D0FB79194656
:100F6000094809F08BFB0020FFF7A8FF00213F2074
:100F700000F04EFBFFF7C8FF0A2000F03DFB00BF6A
:100F80000837BD4680BD00BFE8C800082DE9B04362
:100F90009EB000AF034687F827300020FFF78EFF92
:100FA00097F82730202B08D107F1480197F8273010
:100FB0000822184600F018FC07E007F1480197F8EE
:100FC00027300622184600F00FFC4FF000028B4B32
:100FD000C7E91C2397F827300E2B09D1884B1B88B3
:100FE0001846FFF797FA02460B46C7E91C233EE076
:100FF00097F82730082B07D097F82730282B03D0F5
:1010000097F827302E2B09D17E4B1B881846FFF707
:1010100081FA02460B46C7E91C2328E097F82730DF
:10102000142B09D1784B1B881846FFF773FA024638
:101030000B46C7E91C231AE097F827301A2B09D171
:10104000724B1B881846FFF765FA02460B46C7E944
:101050001C230CE097F82730202B08D16C4B1B8801
:101060001846FFF757FA02460B46C7E91C2307F15B
:10107000280320220021184608F08EFE97F827301A
:10108000202B50D197F849301B021AB297F84830FC
:101090001BB213431BB21846FFF74CFAD7E91C23C7
:1010A000FFF7DCFB02460B46C7E90A2397F84B30F3
:1010B0001B021AB297F84A301BB213431BB21846F0
:1010C000FFF738FAD7E91C23FFF7C8FB02460B46A7
:1010D000C7E90C2397F84D301B021AB297F84C3031
:1010E0001BB213431BB21846FFF724FAD7E91C239F
:1010F000FFF7B4FB02460B46C7E90E2397F84F30C3
:101100001B021AB297F84E301BB213431BB218469B
:10111000FFF710FAD7E91C23FFF7A0FB02460B46A6
:10112000C7E910233BE097F849301B021AB297F841
:1011300048301BB213431BB21846FFF7FBF9D7E93F
:101140001C23FFF78BFB02460B46C7E90C2397F8DD
:101150004B301B021AB297F84A301BB213431BB232
:101160001846FFF7E7F9D7E91C23FFF777FB02469C
:101170000B46C7E90E2397F84D301B021AB297F8B9
:101180004C301BB213431BB21846FFF7D3F9D7E913
:101190001C23FFF763FB02460B46C7E9102307F148
:1011A000500407F128050FCD0FC495E80F0084E81F
:1011B0000F00D7E91489D7E91645D7E91801D7E90F
:1011C0001A2349EC148B45EC154B41EC160B43EC00
:1011D000172BB0EE440AF0EE640AB0EE451AF0EEBA
:1011E000651AB0EE462AF0EE662AB0EE473AF0EE07
:1011F000673A7837BD46BDE8B08300BF0000F03FD6
:101200000600002000000020020000200400002052
:10121000080000202DE9B04390B000AF0820FFF790
:10122000B5FEB0EE404AF0EE604AB0EE415AF0EE44
:10123000615AB0EE426AF0EE626AB0EE437AF0EEC6
:10124000637A87ED084B87ED0A5B87ED0C6B87EDC2
:101250000E7BD7E90889D7E90A45D7E90C01D7E918
:101260000E2349EC148B45EC154B41EC160B43EC6B
:10127000172BB0EE440AF0EE640AB0EE451AF0EE19
:10128000651AB0EE462AF0EE662AB0EE473AF0EE66
:10129000673A4037BD46BDE8B0832DE9B04390B012
:1012A00000AF1420FFF772FEB0EE404AF0EE604A45
:1012B000B0EE415AF0EE615AB0EE426AF0EE626A68
:1012C000B0EE437AF0EE637A87ED084B87ED0A5B68
:1012D00087ED0C6B87ED0E7BD7E90889D7E90A45C6
:1012E000D7E90C01D7E90E2349EC148B45EC154BDB
:1012F00041EC160B43EC172BB0EE440AF0EE640AF7
:10130000B0EE451AF0EE651AB0EE462AF0EE662A07
:10131000B0EE473AF0EE673A4037BD46BDE8B083DD
:101320002DE9B04390B000AF1A20FFF72FFEB0EECA
:10133000404AF0EE604AB0EE415AF0EE615AB0EE2B
:10134000426AF0EE626AB0EE437AF0EE637A87EDBD
:10135000084B87ED0A5B87ED0C6B87ED0E7BD7E9B9
:101360000889D7E90A45D7E90C01D7E90E2349ECEA
:10137000148B45EC154B41EC160B43EC172BB0EEE0
:10138000440AF0EE640AB0EE451AF0EE651AB0EECB
:10139000462AF0EE662AB0EE473AF0EE673A40375A
:1013A000BD46BDE8B0832DE9B04390B000AF20202A
:1013B000FFF7ECFDB0EE404AF0EE604AB0EE415A65
:1013C000F0EE615AB0EE426AF0EE626AB0EE437A35
:1013D000F0EE637A87ED084B87ED0A5B87ED0C6BC7
:1013E00087ED0E7BD7E90889D7E90A45D7E90C01D3
:1013F000D7E90E2349EC148B45EC154B41EC160B49
:1014000043EC172BB0EE440AF0EE640AB0EE451A36
:10141000F0EE651AB0EE462AF0EE662AB0EE473AD4
:10142000F0EE673A4037BD46BDE8B08380B58AB07C
:1014300000AF07F1140300221A605A609A60DA6064
:101440001A6100233B61274B1B6B264A43F00403C0
:101450001363244B1B6B03F004033B613B690023C4
:10146000FB60204B1B6B1F4A43F0800313631D4B33
:101470001B6B03F08003FB60FB680023BB60194B10
:101480001B6B184A43F001031363164B1B6B03F0ED
:101490000103BB60BB6800237B60124B1B6B114ACE
:1014A00043F0020313630F4B1B6B03F002037B60DB
:1014B0007B6800224FF400510B4801F025F84FF4EF
:1014C00000537B610123BB610023FB6100233B626E
:1014D00007F114031946044800F092FE00BF2837B4
:1014E000BD4680BD003802400008024080B500AF14
:1014F000124B134A1A60114B124A5A600F4B0022CA
:101500009A600E4B0022DA600C4B4FF480421A6155
:101510000A4B00225A61094B00229A61074B0022B4
:10152000DA61064B00221A62044801F021F80346F2
:10153000002B01D000F0F4FA00BF80BDF4020020BF
:1015400000540040801A060080B58AB000AF786071
:1015500007F1140300221A605A609A60DA601A6177
:101560007B681B68194A93422CD100233B61184BBE
:101570001B6B174A43F002031363154B1B6B03F0FD
:1015800002033B613B694FF440737B611223BB61F3
:101590000023FB6103233B6204237B6207F11403F6
:1015A00019460C4800F02CFE0023FB60084B1B6C16
:1015B000074A43F400131364054B1B6C03F4001338
:1015C000FB60FB6800BF2837BD4680BD005400406B
:1015D000003802400004024080B483B000AF78605D
:1015E000044A7B68136000BF0C37BD465DF8047B7E
:1015F000704700BF4803002080B582B000AF78601C
:101600007B68184600F0C6FC00BF0837BD4680BDA9
:1016100080B588B002AF03460A46FB711346BB7122
:10162000FB793B73BB797B735A4B186807F10C024B
:101630000A2300930223502101F0DEF80346FB75D4
:10164000FB7D002B00F0A080FB7D012B03D15248D5
:1016500009F09AF812E0FB7D032B03D14F4809F003
:1016600093F80BE0FB7D022B03D14D4809F08CF879
:1016700004E0FB7D19464B4809F000F8454B1B6818
:10168000184601F0EBFB38613B69002B7ED03B69CB
:10169000012B03D1444809F077F821E03B69022B84
:1016A00003D1424809F070F81AE03B69042B03D1DA
:1016B0003F4809F069F813E03B69082B03D13D4826
:1016C00009F062F80CE03B69102B03D13A4809F0AD
:1016D0005BF805E03B69202B02D1384809F054F84B
:1016E0002C4B1B68184601F0ABFB0346FB73FB7BDE
:1016F000002B03D1324809F047F848E0FB7B202B50
:1017000003D12F4809F040F841E0FB7B242B03D1A3
:101710002C4809F039F83AE0FB7B212B03D12A4809
:1017200009F032F833E0FB7B222B03D1274809F084
:101730002BF82CE0FB7B282B03D1254809F024F85B
:1017400025E0FB7B292B03D1224809F01DF81EE080
:10175000FB7B2A2B03D1204809F016F817E0FB7B0E
:10176000602B03D11D4809F00FF810E0FB7BA02B84
:1017700003D11B4809F008F809E0FB7BE02B06D1F8
:10178000184809F001F802E000BF00E000BF183778
:10179000BD4680BD4803002024C9000848C9000890
:1017A00070C9000894C90008ACC90008C0C9000885
:1017B000D4C90008E8C90008FCC9000810CA00081C
:1017C00028CA000840CA000854CA00086CCA0008A9
:1017D00084CA00089CCA0008BCCA0008DCCA000809
:1017E000F4CA00080CCB000880B584B002AF0346F1
:1017F0003960FB711346BB710B4B1868FA1D6423EB
:1018000000930123502100F0F7FF074B1868BB79C4
:101810009BB2642200923A68502101F0EBF800BFBD
:101820000837BD4680BD00BF480300202DE9B04FFA
:10183000B2B018AF00F03CFB00F0CEF8FFF7F6FDB9
:10184000FFF754FE00F094FA07F05EFD5D4803F0E8
:101850004FFD4FF47A7000F09DFB5B48FFF7BCFE34
:10186000FFF76CFBFFF757FB584B1B78DBB2002BE5
:10187000FAD0FFF755FDB0EE404AF0EE604AB0EE08
:10188000415AF0EE615AB0EE426AF0EE626AB0EE92
:10189000437AF0EE637A4E4B83ED004B83ED025BAF
:1018A00083ED046B83ED067BFFF77DFDB0EE404AD0
:1018B000F0EE604AB0EE415AF0EE615AB0EE426A84
:1018C000F0EE626AB0EE437AF0EE637A87ED024B97
:1018D00087ED045B87ED066B87ED087BFFF79AFCCD
:1018E000B0EE404AF0EE604AB0EE415AF0EE615A76
:1018F000B0EE426AF0EE626AB0EE437AF0EE637ADE
:1019000087ED0A4B87ED0C5B87ED0E6B87ED107B47
:10191000FFF7C3FCB0EE404AF0EE604AB0EE415A29
:10192000F0EE615AB0EE426AF0EE626AB0EE437ACF
:10193000F0EE637A87ED124B87ED145B87ED166B43
:1019400087ED187B224B93ED027B87ED007B204BCC
:1019500093ED046B1E4B93ED065B97ED024B97EDF9
:10196000043B97ED062B97ED081B97ED0C7BD7E911
:101970000EABD7E91089D7E91445D7E91601D7E9A5
:101980001823CDE91623CDE91401CDE91245CDE99F
:101990001089CDE90EAB8DED0C7B8DED0A1B8DED25
:1019A000082B8DED063B8DED044B8DED025B8DED2F
:1019B000006BD7E90023074808F060FE034B0022C4
:1019C0001A7051E778030020F40200204C03002035
:1019D0005003002024CB000880B594B000AF07F17D
:1019E000200330220021184608F0D6F907F10C0335
:1019F00000221A605A609A60DA601A610023BB60A4
:101A0000274B1B6C264A43F080531364244B1B6CFA
:101A100003F08053BB60BB6800237B60214B1B68D5
:101A2000204A43F4404313601E4B1B6803F44043B9
:101A30007B607B6801233B624FF480337B6202232F
:101A4000BB634FF48003FB6319233B64C0237B64B7
:101A50000223BB640423FB6407F12003184602F051
:101A6000B3FF0346002B01D000F05AF80F23FB60B0
:101A700002233B6100237B614FF48053BB61002351
:101A8000FB6107F10C030321184603F015FA034626
:101A9000002B01D000F044F800BF5037BD4680BD98
:101AA000003802400070004080B584B000AFF8609C
:101AB000B9607A607B689BB21946B86807F0E2FCAF
:101AC00003461A46084B1A70074B1B78012BF1D0BE
:101AD000054B1B78032B01D1002300E07B681846DF
:101AE0001037BD4680BD00BF7003002080B582B0B6
:101AF00000AF78607B68074A934207D1064B01220A
:101B00001A704FF40051054800F017FD00BF083768
:101B1000BD4680BD780300204C0300200008024031
:101B200080B400AF72B600BFFEE7000080B483B09F
:101B300000AF00237B60104B5B6C0F4A43F4804383
:101B400053640D4B5B6C03F480437B607B68002324
:101B50003B60094B1B6C084A43F080531364064BEF
:101B60001B6C03F080533B603B6800BF0C37BD46E5
:101B70005DF8047B704700BF0038024080B400AFBE
:101B8000FEE780B400AFFEE780B400AFFEE780B4AC
:101B900000AFFEE780B400AFFEE780B400AF00BF47
:101BA000BD465DF8047B704780B400AF00BFBD4602
:101BB0005DF8047B704780B400AF00BFBD465DF8A0
:101BC000047B704780B500AF00F0C4F900BF80BD52
:101BD00080B500AF024803F0EDFB00BF80BD00BF41
:101BE0007803002080B500AF024801F0C0FD00BFBF
:101BF00080BD00BFA418002080B400AF01231846A8
:101C0000BD465DF8047B704780B582B000AF786058
:101C1000396008F089F8034616221A604FF0FF3346
:101C200018460837BD4680BD80B582B000AF7860E9
:101C30004FF0FF317868FFF7E7FFFEE780B586B029
:101C400000AFF860B9607A6000237B610AE0AFF30F
:101C500000800146BB685A1CBA60CAB21A707B6920
:101C600001337B617A697B689A42F0DB7B681846B6
:101C70001837BD4680BD80B483B000AF78604FF0A8
:101C8000FF3318460C37BD465DF8047B704780B4BF
:101C900083B000AF786039603B684FF400525A60FF
:101CA000002318460C37BD465DF8047B704780B4AE
:101CB00083B000AF7860012318460C37BD465DF84D
:101CC000047B704780B485B000AFF860B9607A607B
:101CD000002318461437BD465DF8047B70470000AA
:101CE00080B586B000AF7860144A154BD31A7B617B
:101CF0007B693B61134B1B68002B02D1114B124ACD
:101D00001A60104B1A687B6813443A699A4207D2EA
:101D100008F00AF803460C221A604FF0FF3309E07E
:101D2000084B1B68FB60074B1A687B681344054A25
:101D30001360FB6818461837BD4680BD00000220BE
:101D40000006000074030020E01F002080B400AFF4
:101D5000064BD3F88830054A43F47003C2F8883044
:101D600000BFBD465DF8047B704700BF00ED00E09A
:101D700080B586B000AF07F1080300221A605A60F0
:101D80009A60DA603B4600221A605A601D4B1E4A78
:101D90001A601C4B40F2BF325A601A4B00229A6004
:101DA000184B40F2CF72DA60164B00221A61154BC5
:101DB00080229A61134803F04BFA0346002B01D0AE
:101DC000FFF7AEFE4FF48053BB6007F108031946DE
:101DD0000C4803F0F7FB0346002B01D0FFF7A0FEF1
:101DE00000233B6000237B603B461946054803F017
:101DF000F3FD0346002B01D0FFF792FE00BF18371A
:101E0000BD4680BD780300200008004080B584B046
:101E100000AF78607B681B680E4A934215D100239F
:101E2000FB600D4B1B6C0C4A43F0040313640A4B1C
:101E30001B6C03F00403FB60FB68002200211E20E2
:101E400000F0A7F91E2000F0C0F900BF1037BD4612
:101E500080BD00BF0008004000380240DFF834D0E9
:101E60000D480E490E4A002302E0D458C4500433F2
:101E7000C4188C42F9D30B4A0B4C002301E01360C9
:101E80000432A242FBD3FFF761FF07F053FFFFF7D5
:101E9000CDFC70470000022000000020D802002086
:101EA000B4CF0008D8020020E01F0020FEE70000A9
:101EB00080B500AF0E4B1B680D4A43F400731360EE
:101EC0000B4B1B680A4A43F480631360084B1B6882
:101ED000074A43F480731360032000F04FF90F208A
:101EE00000F008F8FFF722FE0023184680BD00BF6F
:101EF000003C024080B582B000AF7860124B1A6897
:101F0000124B1B7819464FF47A73B3FBF1F3B2FB13
:101F1000F3F3184600F067F90346002B01D00123C4
:101F20000EE07B680F2B0AD8002279684FF0FF3053
:101F300000F02FF9064A7B681360002300E00123BC
:101F400018460837BD4680BD0C0000201400002054
:101F50001000002080B400AF064B1B781A46064BD9
:101F60001B681344044A136000BFBD465DF8047B40
:101F7000704700BF14000020C003002080B400AFF1
:101F8000034B1B681846BD465DF8047B704700BFD5
:101F9000C003002080B584B000AF7860FFF7EEFF8B
:101FA000B8607B68FB60FB68B3F1FF3F05D00A4B6C
:101FB0001B781A46FB681344FB6000BFFFF7DEFF87
:101FC0000246BB68D31AFA689A42F7D800BF00BF2E
:101FD0001037BD4680BD00BF1400002080B485B01E
:101FE00000AF78607B6803F00703FB600C4BDB6895
:101FF000BB60BA684FF6FF031340BB60FB681A0270
:10200000BB68134343F0BF6343F40033BB60044A2F
:10201000BB68D36000BF1437BD465DF8047B7047D2
:1020200000ED00E080B400AF044BDB681B0A03F056
:1020300007031846BD465DF8047B704700ED00E0DD
:1020400080B483B000AF0346FB7197F90730002BD3
:102050000BDBFB7903F01F02074997F907305B0997
:10206000012000FA02F241F8232000BF0C37BD46E0
:102070005DF8047B704700BF00E100E080B483B0EE
:1020800000AF03463960FB7197F90730002B0ADB7C
:102090003B68DAB20C4997F907301201D2B20B440F
:1020A00083F800230AE03B68DAB20849FB7903F0C1
:1020B0000F03043B1201D2B20B441A7600BF0C3757
:1020C000BD465DF8047B704700E100E000ED00E0F4
:1020D00080B489B000AFF860B9607A60FB6803F043
:1020E0000703FB61FB69C3F10703042B28BF04232B
:1020F000BB61FB690433062B02D9FB69033B00E09B
:1021000000237B614FF0FF32BB6902FA03F3DA432D
:10211000BB681A407B699A404FF0FF317B6901FA36
:1021200003F3D9437B680B40134318462437BD465D
:102130005DF8047B7047000080B582B000AF786026
:102140007B68013BB3F1807F01D301230FE00A4A92
:102150007B68013B53600F214FF0FF30FFF78EFF8C
:10216000054B00229A60044B07221A600023184690
:102170000837BD4680BD00BF10E000E080B582B0EA
:1021800000AF78607868FFF729FF00BF0837BD46C9
:1021900080BD80B586B000AF0346B9607A60FB733E
:1021A00000237B61FFF73EFF78617A68B968786940
:1021B000FFF78EFF024697F90F3011461846FFF7DA
:1021C0005DFF00BF1837BD4680BD80B582B000AF4F
:1021D0000346FB7197F907301846FFF731FF00BF40
:1021E0000837BD4680BD80B582B000AF78607868A2
:1021F000FFF7A2FF034618460837BD4680BD000022
:1022000080B489B000AF7860396000237B6100231F
:102210003B610023BB610023FB6159E10122FB69A3
:1022200002FA03F37B613B681B687A6913403B61E8
:102230003A697B699A4240F048813B685B6803F0E9
:102240000303012B05D03B685B6803F00303022BFB
:1022500030D17B689B68BB61FB695B00032202FA9B
:1022600003F3DB43BA691340BB613B68DA68FB697F
:102270005B0002FA03F3BA691343BB617B68BA6976
:102280009A607B685B68BB610122FB6902FA03F319
:10229000DB43BA691340BB613B685B681B0903F011
:1022A0000102FB6902FA03F3BA691343BB617B685D
:1022B000BA695A603B685B6803F00303032B17D0CD
:1022C0007B68DB68BB61FB695B00032202FA03F3F6
:1022D000DB43BA691340BB613B689A68FB695B00EA
:1022E00002FA03F3BA691343BB617B68BA69DA6027
:1022F0003B685B6803F00303022B23D1FB69DA0818
:102300007B68083253F82230BB61FB6903F0070396
:102310009B000F2202FA03F3DB43BA691340BB614F
:102320003B681A69FB6903F007039B0002FA03F399
:10233000BA691343BB61FB69DA087B680832B96983
:1023400043F822107B681B68BB61FB695B000322BA
:1023500002FA03F3DB43BA691340BB613B685B6875
:1023600003F00302FB695B0002FA03F3BA6913434B
:10237000BB617B68BA691A603B685B6803F44033F1
:10238000002B00F0A2800023FB60574B5B6C564A89
:1023900043F480435364544B5B6C03F48043FB6011
:1023A000FB68524AFB699B08023352F82330BB6139
:1023B000FB6903F003039B000F2202FA03F3DB43E4
:1023C000BA691340BB617B68494A934219D07B6864
:1023D000484A934213D07B68474A93420DD07B68AA
:1023E000464A934207D07B68454A934201D1042371
:1023F00008E0072306E0032304E0022302E00123B0
:1024000000E00023FA6902F0030292009340BA69E7
:102410001343BB613549FB699B080233BA6941F834
:102420002320384B9B68BB613B69DB43BA6913408F
:10243000BB613B685B6803F48013002B03D0BA696F
:102440003B691343BB612F4ABB6993602D4BDB682B
:10245000BB613B69DB43BA691340BB613B685B68A6
:1024600003F40013002B03D0BA693B691343BB612B
:10247000244ABB69D360234B5B68BB613B69DB4388
:10248000BA691340BB613B685B6803F40033002BFF
:1024900003D0BA693B691343BB611A4ABB695360F5
:1024A000184B1B68BB613B69DB43BA691340BB61D6
:1024B0003B685B6803F48033002B03D0BA693B6947
:1024C0001343BB610F4ABB691360FB690133FB61B6
:1024D000FB690F2B7FF6A2AE00BF00BF2437BD46BD
:1024E0005DF8047B704700BF0038024000380140AF
:1024F000000002400004024000080240000C0240BC
:1025000000100240003C014080B483B000AF78600E
:102510000B467B8013467B707B78002B03D07A8838
:102520007B689A6103E07B881A047B689A6100BF2C
:102530000C37BD465DF8047B704780B485B000AFB2
:1025400078600B467B807B685B69FB607A88FB6800
:1025500013401A04FB68D9437B880B401A437B68FD
:102560009A6100BF1437BD465DF8047B70470000D8
:1025700080B584B000AF78607B68002B01D1012367
:102580002BE17B6893F83D30DBB2002B06D17B68F2
:10259000002283F83C207868FEF7D6FF7B6824226F
:1025A00083F83D207B681B681A687B681B6822F0F3
:1025B00001021A607B681B681A687B681B6842F41A
:1025C00000421A607B681B681A687B681B6822F4EB
:1025D00000421A6002F028FEF8607B685B68814A5E
:1025E000934207D8FB68804A934294BF012300239B
:1025F000DBB206E0FB687D4A934294BF01230023CF
:10260000DBB2002B01D00123E7E0FB68784AA2FB94
:1026100003239B0CBB607B681B685B6823F03F0156
:102620007B681B68BA680A435A607B681B681B6A30
:1026300023F03F017B685B686A4A934202D8BB681B
:10264000013309E0BB684FF4967202FB03F3694A59
:10265000A2FB03239B0901337A6812680B431362C0
:102660007B681B68DB6923F44F4222F0FF027B6822
:102670005B685C498B4219D8FB68591E7B685B68B4
:102680005B00B1FBF3F3591C40F6FC730B40002BCD
:102690000AD0FB68591E7B685B685B00B1FBF3F3F3
:1026A0000133C3F30B0351E004234FE07B689B68C5
:1026B000002B11D1FB68581E7B6859680B465B00E4
:1026C0000B44B0FBF3F30133C3F30B03002B0CBF3C
:1026D00001230023DBB212E0FB68581E7B685968B7
:1026E0000B469B000B4499000B44B0FBF3F3013302
:1026F000C3F30B03002B0CBF01230023DBB2002B21
:1027000001D0012322E07B689B68002B0ED1FB687F
:10271000581E7B6859680B465B000B44B0FBF3F313
:102720000133C3F30B0343F400430FE0FB68581E6F
:102730007B6859680B469B000B4499000B44B0FB27
:10274000F3F30133C3F30B0343F44043796809689F
:102750001343CB617B681B681B6823F0C0017B6857
:10276000DA697B681B6A1A437B681B680A431A6034
:102770007B681B689B6823F4034323F0FF037A689C
:1027800011697A68D26811437A6812680B439360C2
:102790007B681B68DB6823F0FF017B685A697B68F4
:1027A0009B691A437B681B680A43DA607B681B6875
:1027B0001A687B681B6842F001021A607B6800227D
:1027C0001A647B68202283F83D207B6800221A630C
:1027D0007B68002283F83E20002318461037BD4650
:1027E00080BD00BFA08601007F841E00FF083D0061
:1027F00083DE1B43D34D621080B588B002AFF86012
:102800007A601A460B467B8113463B81FFF7B6FB85
:102810007861FB6893F83D30DBB2202B40F0E0801C
:102820007B690093192301227049F86800F072FC5B
:102830000346002B01D00223D3E0FB6893F83C3021
:10284000012B01D10223CCE0FB68012283F83C205C
:10285000FB681B681B6803F00103012B07D0FB68B2
:102860001B681A68FB681B6842F001021A60FB686B
:102870001B681A68FB681B6822F400621A60FB6818
:10288000212283F83D20FB68102283F83E20FB685C
:1028900000221A64FB687A685A62FB683A895A8592
:1028A000FB685B8D9AB2FB681A85FB68504ADA6256
:1028B00079897B693A6AF86800F0DCFA0346002BF4
:1028C00001D001238DE000233B61FB681B685B693D
:1028D0003B61FB681B689B693B613B6966E07A6909
:1028E000396AF86800F0ECFC0346002B0DD0FB6859
:1028F0001B6C042B07D1FB681B681A68FB681B68FC
:1029000042F400721A6001236BE0FB685B6A1A787C
:10291000FB681B681A61FB685B6A5A1CFB685A6299
:10292000FB685B8D9BB2013B9AB2FB685A85FB68E2
:102930001B8D013B9AB2FB681A85FB681B685B69BB
:1029400003F00403042B1BD1FB681B8D002B17D055
:10295000FB685B6A1A78FB681B681A61FB685B6A34
:102960005A1CFB685A62FB685B8D9BB2013B9AB2B2
:10297000FB685A85FB681B8D013B9AB2FB681A8580
:102980007A69396AF86800F0DCFC0346002B0DD048
:10299000FB681B6C042B07D1FB681B681A68FB687B
:1029A0001B6842F400721A6001231AE0FB681B8D59
:1029B000002B94D1FB681B681A68FB681B6842F403
:1029C00000721A60FB68202283F83D20FB68002219
:1029D00083F83E20FB68002283F83C20002300E0BF
:1029E000022318461837BD4680BD00BF0200100004
:1029F0000000FFFF80B58CB002AFF8607A601A4625
:102A00000B467B8113463B81FFF7B8FA7862FB687F
:102A100093F83D30DBB2202B40F00B827B6A0093B1
:102A2000192301227C49F86800F074FB0346002B4F
:102A300001D00223FEE1FB6893F83C30012B01D169
:102A40000223F7E1FB68012283F83C20FB681B6846
:102A50001B6803F00103012B07D0FB681B681A6891
:102A6000FB681B6842F001021A60FB681B681A6869
:102A7000FB681B6822F400621A60FB68222283F85C
:102A80003D20FB68102283F83E20FB6800221A6478
:102A9000FB687A685A62FB683A895A85FB685B8DE5
:102AA0009AB2FB681A85FB685C4ADA6279897B6AAC
:102AB0003A6BF86800F060FA0346002B01D001235E
:102AC000B8E1FB681B8D002B13D100233B62FB6830
:102AD0001B685B693B62FB681B689B693B623B6AE6
:102AE000FB681B681A68FB681B6842F400721A6076
:102AF0008CE1FB681B8D012B1BD1FB681B681A68DE
:102B0000FB681B6822F480621A600023FB61FB688B
:102B10001B685B69FB61FB681B689B69FB61FB6968
:102B2000FB681B681A68FB681B6842F400721A6035
:102B30006CE1FB681B8D022B1BD1FB681B681A68BC
:102B4000FB681B6822F480621A60FB681B681A68C5
:102B5000FB681B6842F400621A600023BB61FB68DB
:102B60001B685B69BB61FB681B689B69BB61BB69D8
:102B70004CE1FB681B681A68FB681B6842F48062C2
:102B80001A6000237B61FB681B685B697B61FB68E3
:102B90001B689B697B617B6938E1FB681B8D032B9C
:102BA00000F2F180FB681B8D012B23D17A6A396B0F
:102BB000F86800F007FC0346002B01D0012339E13F
:102BC000FB681B681A69FB685B6AD2B21A70FB6803
:102BD0005B6A5A1CFB685A62FB681B8D013B9AB208
:102BE000FB681A85FB685B8D9BB2013B9AB2FB6860
:102BF0005A850BE1FB681B8D022B4ED17B6A00933B
:102C00003B6B00220649F86800F084FA0346002B6B
:102C100008D001230EE100BF020010000000FFFFFA
:102C200004000100FB681B681A68FB681B6842F41B
:102C300000721A60FB681B681A69FB685B6AD2B293
:102C40001A70FB685B6A5A1CFB685A62FB681B8D32
:102C5000013B9AB2FB681A85FB685B8D9BB2013B16
:102C60009AB2FB685A85FB681B681A69FB685B6A45
:102C7000D2B21A70FB685B6A5A1CFB685A62FB6826
:102C80001B8D013B9AB2FB681A85FB685B8D9BB27A
:102C9000013B9AB2FB685A85B8E07B6A00933B6BB4
:102CA00000226649F86800F035FA0346002B01D08F
:102CB0000123BFE0FB681B681A68FB681B6822F4ED
:102CC00080621A60FB681B681A69FB685B6AD2B293
:102CD0001A70FB685B6A5A1CFB685A62FB681B8DA2
:102CE000013B9AB2FB681A85FB685B8D9BB2013B86
:102CF0009AB2FB685A857B6A00933B6B00224F496E
:102D0000F86800F007FA0346002B01D0012391E098
:102D1000FB681B681A68FB681B6842F400721A6043
:102D2000FB681B681A69FB685B6AD2B21A70FB68A1
:102D30005B6A5A1CFB685A62FB681B8D013B9AB2A6
:102D4000FB681A85FB685B8D9BB2013B9AB2FB68FE
:102D50005A85FB681B681A69FB685B6AD2B21A70F5
:102D6000FB685B6A5A1CFB685A62FB681B8D013B5F
:102D70009AB2FB681A85FB685B8D9BB2013B9AB2E5
:102D8000FB685A8542E07A6A396BF86800F01AFBF2
:102D90000346002B01D001234CE0FB681B681A6935
:102DA000FB685B6AD2B21A70FB685B6A5A1CFB68EC
:102DB0005A62FB681B8D013B9AB2FB681A85FB685F
:102DC0005B8D9BB2013B9AB2FB685A85FB681B681E
:102DD0005B6903F00403042B18D1FB681B681A69B4
:102DE000FB685B6AD2B21A70FB685B6A5A1CFB68AC
:102DF0005A62FB681B8D013B9AB2FB681A85FB681F
:102E00005B8D9BB2013B9AB2FB685A85FB681B8DB8
:102E1000002B7FF4C2AEFB68202283F83D20FB68C4
:102E2000002283F83E20FB68002283F83C20002328
:102E300000E0022318462837BD4680BD040001008B
:102E400080B483B000AF78607B6893F83D30DBB22C
:102E500018460C37BD465DF8047B704780B483B0DC
:102E600000AF78607B681B6C18460C37BD465DF878
:102E7000047B704780B588B002AFF8607A603B6031
:102E80000B467B81FB68DB6A7B617B69082B06D084
:102E90007B69012B03D07B6913F5803F08D1FB6868
:102EA0001B681A68FB681B6842F480721A600BE0AA
:102EB000FB681B6B122B07D1FB681B681A68FB6849
:102EC0001B6842F480721A603B6800937B680022A2
:102ED0004FF00111F86800F01DF90346002B0DD0EA
:102EE000FB681B681B6803F48073B3F5807F03D114
:102EF000FB684FF400721A64032335E0FB681B691A
:102F0000B3F5804F08D17B89DBB21A46FB681B689A
:102F100002F0FE021A611BE07B89DB11DBB203F0D9
:102F20000603DBB263F00F03DAB2FB681B681A61B9
:102F30003B687A680E49F86800F043F90346002BB5
:102F400001D0012310E07B89DAB2FB681B681A61AB
:102F50003B687A680749F86800F033F90346002BAC
:102F600001D0012300E0002318461837BD4680BD7C
:102F7000080001000200010080B588B002AFF860CF
:102F80007A603B600B467B81FB68DB6A7B61FB6898
:102F90001B681A68FB681B6842F480621A607B69D0
:102FA000082B06D07B69012B03D07B6913F5803F8A
:102FB00008D1FB681B681A68FB681B6842F48072C2
:102FC0001A600BE0FB681B6B112B07D1FB681B68B9
:102FD0001A68FB681B6842F480721A603B680093B1
:102FE0007B6800224FF00111F86800F093F8034667
:102FF000002B0DD0FB681B681B6803F48073B3F5CE
:10300000807F03D1FB684FF400721A64032379E0D8
:10301000FB681B69B3F5804F08D17B89DBB243F0B5
:103020000103DAB2FB681B681A615FE07B89DB1180
:10303000DBB203F00603DBB263F00F03DAB2FB6826
:103040001B681A613B687A683049F86800F0B9F883
:103050000346002B01D0012354E07B89DAB2FB68E0
:103060001B681A613B687A682949F86800F0A9F87A
:103070000346002B01D0012344E000233B61FB68A1
:103080001B685B693B61FB681B689B693B613B6933
:10309000FB681B681A68FB681B6842F480721A6040
:1030A0003B6800937B6800224FF00111F86800F044
:1030B00031F80346002B0DD0FB681B681B6803F436
:1030C0008073B3F5807F03D1FB684FF400721A64FC
:1030D000032317E07B89DB11DBB203F00603DBB2CD
:1030E00063F00E03DAB2FB681B681A613B687A680A
:1030F0000749F86800F065F80346002B01D001236A
:1031000000E0002318461837BD4680BD08000100C6
:103110000200010080B584B000AFF860B9603B6088
:103120001346FB7125E03B68B3F1FF3F21D0FEF76A
:1031300025FF0246BB69D31A3A689A4202D33B681C
:10314000002B16D1FB6800221A63FB68202283F84B
:103150003D20FB68002283F83E20FB681B6C43F097
:103160002002FB681A64FB68002283F83C200123DC
:1031700023E0BB681B0CDBB2012B0DD1FB681B6885
:103180005B69DA43BB6813409BB2002B0CBF012381
:103190000023DBB21A460CE0FB681B689B69DA432C
:1031A000BB6813409BB2002B0CBF01230023DBB292
:1031B0001A46FB799A42B6D0002318461037BD460E
:1031C00080BD80B584B000AFF860B9607A603B60C4
:1031D00051E0FB681B685B6903F48063B3F5806FA3
:1031E00023D1FB681B681A68FB681B6842F40072F5
:1031F0001A60FB681B686FF480625A61FB680022EA
:103200001A63FB68202283F83D20FB68002283F8C4
:103210003E20FB681B6C43F00402FB681A64FB68E9
:10322000002283F83C20012346E07B68B3F1FF3F96
:1032300021D0FEF7A3FE02463B68D31A7A689A4271
:1032400002D37B68002B16D1FB6800221A63FB684F
:10325000202283F83D20FB68002283F83E20FB6893
:103260001B6C43F02002FB681A64FB68002283F8A1
:103270003C20012320E0BB681B0CDBB2012B0CD1EE
:10328000FB681B685B69DA43BB6813409BB2002B89
:1032900014BF01230023DBB20BE0FB681B689B69B2
:1032A000DA43BB6813409BB2002B14BF01230023F9
:1032B000DBB2002B8DD1002318461037BD4680BDF0
:1032C00080B584B000AFF860B9607A602DE0F8682E
:1032D00000F0CEF80346002B01D001232DE0BB689F
:1032E000B3F1FF3F21D0FEF749FE02467B68D31AB7
:1032F000BA689A4202D3BB68002B16D1FB68002241
:103300001A63FB68202283F83D20FB68002283F8C3
:103310003E20FB681B6C43F02002FB681A64FB68CC
:10332000002283F83C20012307E0FB681B685B69EF
:1033300003F08003802BCAD1002318461037BD4606
:1033400080BD80B584B000AFF860B9607A602DE0D0
:10335000F86800F08DF80346002B01D001232DE022
:10336000BB68B3F1FF3F21D0FEF708FE02467B6841
:10337000D31ABA689A4202D3BB68002B16D1FB68F5
:1033800000221A63FB68202283F83D20FB6800229C
:1033900083F83E20FB681B6C43F02002FB681A6434
:1033A000FB68002283F83C20012307E0FB681B68D0
:1033B0005B6903F00403042BCAD1002318461037BD
:1033C000BD4680BD80B584B000AFF860B9607A605A
:1033D00042E0FB681B685B6903F01003102B19D1F6
:1033E000FB681B686FF010025A61FB6800221A63C9
:1033F000FB68202283F83D20FB68002283F83E20F2
:10340000FB681A6CFB681A64FB68002283F83C2096
:10341000012329E0FEF7B2FD02467B68D31ABA68A1
:103420009A4202D3BB68002B16D1FB6800221A63B4
:10343000FB68202283F83D20FB68002283F83E20B1
:10344000FB681B6C43F02002FB681A64FB680022D7
:1034500083F83C20012307E0FB681B685B6903F0ED
:103460004003402BB5D1002318461037BD4680BD20
:1034700080B483B000AF78607B681B685B6903F43D
:103480008063B3F5806F1BD17B681B686FF480622B
:103490005A617B6800221A637B68202283F83D20F2
:1034A0007B68002283F83E207B681B6C43F004029B
:1034B0007B681A647B68002283F83C20012300E0CB
:1034C000002318460C37BD465DF8047B7047F0B505
:1034D0008FB00AAF78607B68002B01D101230FE128
:1034E0007B681B68BB607B6893F8BD34DBB2002B44
:1034F00006D17B68002283F8BC24786806F00AF9BC
:103500007B68032283F8BD24BB68DB6B03F4807304
:10351000002B02D17B6800221A617B681B68184669
:1035200002F0F1FB7B681B683B607E686D4606F12C
:1035300010040FCC0FC50FCC0FC594E8030085E82D
:103540000300331D0ECB386802F0C8FA0346002B87
:1035500005D07B68022283F8BD240123D0E07B687C
:103560001B680021184602F0DFFB0023FB734AE0D2
:10357000FA7B79681346DB0013449B000B443D3310
:1035800001221A70FA7B79681346DB0013449B0012
:103590000B443C33FA7B1A70FA7BFB7B98B2796858
:1035A0001346DB0013449B000B44443302461A804D
:1035B000FA7B79681346DB0013449B000B444033CD
:1035C00000221A70FA7B79681346DB0013449B00D3
:1035D0000B44483300221A60FA7B79681346DB00FB
:1035E00013449B000B444C3300221A60FA7B796829
:1035F0001346DB0013449B000B44543300221A6033
:10360000FB7B0133FB73FA7B7B685B689A42AFD329
:103610000023FB7344E0FA7B79681346DB00134414
:103620009B000B4403F27D2300221A70FA7B796819
:103630001346DB0013449B000B4403F51F73FA7B16
:103640001A70FA7B79681346DB0013449B000B4425
:1036500003F5207300221A70FA7B79681346DB00A9
:1036600013449B000B4403F5227300221A60FA7B7B
:1036700079681346DB0013449B000B4403F5237366
:1036800000221A60FA7B79681346DB0013449B0022
:103690000B4403F5257300221A60FB7B0133FB7397
:1036A000FA7B7B685B689A42B5D37B681B683B609A
:1036B0007E686D4606F110040FCC0FC50FCC0FC508
:1036C00094E8030085E80300331D0ECB386802F050
:1036D00077FB0346002B05D07B68022283F8BD24CC
:1036E00001230DE07B68002283F838207B680122EB
:1036F00083F8BD247B681B68184603F0C6FC0023D2
:1037000018461437BD46F0BD80B584B000AF786070
:103710007B681B68FB607B6893F8BC34012B01D18C
:10372000022320E07B68012283F8BC247B689B6A2B
:10373000012B09D17B689B69012B05D0FB689B6B32
:1037400043F48032FB689A637B681B68184602F07A
:10375000C9FA7B681B68184603F076FC7B68002278
:1037600083F8BC24002318461037BD4680BD90B5B1
:103770008DB000AF78607B681B683B623B6AFB6181
:103780007B681B68184603F034FD0346002B40F0AD
:103790008A847B681B68184603F098FC0346002B5C
:1037A00000F08084FB6903F500639B681B0AC3F388
:1037B0000D027B68C3F8FC247B681B68184603F085
:1037C00085FC034603F00203022B07D17B681B68CC
:1037D0005A697B681B6802F002025A617B681B68A9
:1037E000184603F073FC034603F01003102B61D15D
:1037F0007B681B689A697B681B6822F010029A61DB
:103800003B6A1B6ABB61BB6903F00F021346DB0016
:1038100013449B0003F51E737A68134404337B61E1
:10382000BB695B0C03F00F03022B24D1BA6947F686
:10383000F0731340002B35D07B691969BB691B09F4
:103840009BB2C3F30A039BB21A46386A03F0AAFA82
:103850007B691A69BB691B09C3F30A031A447B69B4
:103860001A617B691A6ABB691B09C3F30A031A440C
:103870007B691A6216E0BB695B0C03F00F03062B31
:1038800010D17B6803F2C44308221946386A03F05A
:1038900089FA7B691A6ABB691B09C3F30A031A44D4
:1038A0007B691A627B681B689A697B681B6842F0B7
:1038B00010029A617B681B68184603F007FC0346F8
:1038C00003F40023B3F5002F40F0A78000237B62B0
:1038D0007B681B68184603F00CFCB86299E0BB6A71
:1038E00003F00103002B00F08E807B681B687A6A6E
:1038F000D2B21146184603F030FC38613B6903F040
:103900000103002B0CD07B6A5A01FB69134403F5B9
:1039100030631A4601239360796A786800F0C2FE2A
:103920003B6903F00803002B0CD07B6A5A01FB694A
:10393000134403F530631A4608239360796A786864
:1039400000F098FF3B6903F01003002B08D07B6A5E
:103950005A01FB69134403F530631A461023936040
:103960003B6903F00203002B30D03B6A5B6903F034
:103970008003802B09D1FB6903F500635B68FA695A
:1039800002F5006243F4806353607A6A1346DB00F9
:1039900013449B0003F51E737A68134404337B6160
:1039A0007B69DB78012B08D17B690022DA707B6AA6
:1039B000DBB21946786805F0A9FF7B6A5A01FB69FA
:1039C000134403F530631A46022393603B6903F006
:1039D0002003002B08D07B6A5A01FB69134403F5CE
:1039E00030631A46202393603B6903F40053002B95
:1039F00009D07B6A5A01FB69134403F530631A4608
:103A00004FF4005393607B6A01337B62BB6A5B08AF
:103A1000BB62BB6A002B7FF462AF7B681B681846F1
:103A200003F054FB034603F48023B3F5802F40F0EA
:103A3000DB807B681B68184603F075FBB8620023C7
:103A40007B62CDE0BB6A03F00103002B00F0C28073
:103A50007B681B687A6AD2B21146184603F09BFB5A
:103A600038613B6903F00103002B57D07B6A03F0F8
:103A70000F03012202FA03F3FB60FB6903F5006305
:103A80005A6BFB68DB43F96901F5006113404B6336
:103A90007B6A5A01FB69134403F510631A4601233C
:103AA00093607B681B69012B32D179687A6A13466F
:103AB000DB0013449B000B444C33196878687A6A26
:103AC0001346DB0013449B00034448331B6819442E
:103AD00078687A6A1346DB0013449B0003444C3336
:103AE00019607B6A002B13D179687A6A1346DB0070
:103AF00013449B000B4454331B68002B08D17B6894
:103B000018687B6803F2C4431A46012103F0A2FB44
:103B10007B6ADBB21946786805F07DFE3B6903F0ED
:103B20000803002B08D07B6A5A01FB69134403F594
:103B300010631A46082393603B6903F01003002BBF
:103B400008D07B6A5A01FB69134403F510631A46D7
:103B5000102393603B6903F04003002B08D07B6A7D
:103B60005A01FB69134403F510631A46402393601E
:103B70003B6903F00203002B23D0796A386A02F014
:103B800083FA7A6A1346DB0013449B0038337A6861
:103B9000134404337B617B69DB78012B08D17B699B
:103BA0000022DA707B6ADBB21946786805F0C0FE45
:103BB0007B6A5A01FB69134403F510631A4602231A
:103BC00093603B6903F08003002B03D0796A786827
:103BD00000F0DBFC7B6A01337B62BB6A5B08BB6283
:103BE000BB6A002B7FF42EAF7B681B68184603F07E
:103BF0006DFA034603F00043B3F1004F22D1FB6995
:103C000003F500635B68FA6902F5006223F00103C3
:103C100053607B6893F8F434012B08D17B68002251
:103C200083F8F4240021786800F0C2FE02E078688E
:103C300005F05EFE7B681B685A697B681B6802F0B2
:103C400000425A617B681B68184603F03FFA03463E
:103C500003F40063B3F5006F12D1FB6903F5006351
:103C60009B6803F00103012B02D1786805F01AFE6E
:103C70007B681B685A697B681B6802F400625A61A2
:103C80007B681B68184603F021FA034603F480534F
:103C9000B3F5805F40F0B780FB6903F500635B68B4
:103CA000FA6902F5006223F0010353607B681B6828
:103CB0001021184602F0E8F90023FB6246E0FB6A97
:103CC0005A01FB69134403F510631A464FF67F331C
:103CD0009360FB6A5A01FB69134403F510631B6888
:103CE000FA6A5101FA690A4402F5106223F40013DA
:103CF0001360FB6A5A01FB69134403F530631A46EB
:103D00004FF67F339360FB6A5A01FB69134403F556
:103D100030631B68FA6A5101FA690A4402F530629D
:103D200023F400131360FB6A5A01FB69134403F583
:103D300030631B68FA6A5101FA690A4402F530627D
:103D400043F000631360FB6A0133FB627B685B68CE
:103D5000FA6A9A42B3D3FB6903F50063DB69FA6937
:103D600002F5006243F00113D3617B681B6B002BEB
:103D700016D0FB6903F50063D3F88430FA6902F5C5
:103D8000006243F00B03C2F88430FB6903F5006363
:103D90005B6CFA6902F5006243F00B03536415E0B3
:103DA000FB6903F500635B69FA6902F5006243F49D
:103DB000005343F02B035361FB6903F500631B6958
:103DC000FA6902F5006243F00B031361FB6903F526
:103DD00000631B68FA6902F5006223F4FE63136056
:103DE0007B6818687B681B69D9B27B6803F2C4439F
:103DF0001A4603F02FFA7B681B685A697B681B68B8
:103E000002F480525A617B681B68184603F05EF921
:103E1000034603F40053B3F5005F24D17B681B68AD
:103E2000184603F0F4F97B681B68184602F0A9F9FC
:103E300003461A467B68DA607B681C6801F0E8F983
:103E400001467B68DB68DBB21A46204601F0A8FE1B
:103E5000786805F008FD7B681B685A697B681B68F9
:103E600002F400525A617B681B68184603F02EF971
:103E7000034603F00803082B0AD1786805F0E5FC37
:103E80007B681B685A697B681B6802F008025A61EC
:103E90007B681B68184603F019F9034603F080039A
:103EA000802B22D13B6A9B6923F080023B6A9A6196
:103EB00001237B6214E079687A6A1346DB001344BD
:103EC0009B000B4403F27F231B78012B05D17B6AF7
:103ED000DBB21946786800F027FB7B6A01337B620E
:103EE0007B685B687A6A9A42E5D37B681B681846F0
:103EF00003F0ECF8034603F48013B3F5801F3BD1C5
:103F000001237B622BE07B6A5A01FB69134403F5B2
:103F100010631B68BB6179687A6A1346DB0013443F
:103F20009B000B4440331B78012B15D1BB69002B40
:103F300012DA79687A6A1346DB0013449B000B445B
:103F40003F3301221A707B6ADBB263F07F03DBB27E
:103F50001946786800F0E8FA7B6A01337B627B6877
:103F60005B687A6A9A42CED37B681B685A697B6821
:103F70001B6802F480125A617B681B68184603F0C4
:103F8000A5F8034603F40013B3F5001F55D1012330
:103F90007B6245E07B6A5A01FB69134403F5306399
:103FA0001B68BB6179687A6A1346DB0013449B0087
:103FB0000B4403F520731B78012B2ED1BB69002B1A
:103FC0002BDABB6903F480327B68D3F8FC3403F04E
:103FD00001039A4221D179687A6A1346DB001344BF
:103FE0009B000B4403F27F2301221A703B6A9B69FA
:103FF00043F080023B6A9A613B6A5B6903F080038D
:10400000002B0AD1FB6903F500635B68FA6902F5CE
:10401000006243F40073536007E07B6A01337B6204
:104020007B685B687A6A9A42B4D37B681B685A697A
:104030007B681B6802F400125A617B681B68184693
:1040400003F044F8034603F08043B3F1804F0AD1F4
:10405000786805F07FFC7B681B685A697B681B6881
:1040600002F080425A617B681B68184603F02EF804
:10407000034603F00403042B15D17B681B685B68BF
:10408000BB61BB6903F00403002B02D0786805F024
:104090006FFC7B681B6859687B681B68BA690A43B8
:1040A0005A6000E000BF3437BD4690BD80B582B095
:1040B00000AF78600B46FB707B6893F8BC34012B33
:1040C00001D1022313E07B68012283F8BC247B68C2
:1040D000FA7883F838207B681B68FA78114618460E
:1040E00002F08CFF7B68002283F8BC240023184672
:1040F0000837BD4680BD80B584B000AF7860084603
:1041000011461A460346FB700B463B801346BB70B4
:104110000023FB7297F90330002B0FDAFB7803F0D2
:104120000F021346DB0013449B0038337A681344B4
:104130000433FB60FB6801225A700FE0FB7803F048
:104140000F021346DB0013449B0003F51E737A68CD
:1041500013440433FB60FB6800225A70FB7803F0C1
:104160000F03DAB2FB681A703A88FB68DA60FB6802
:10417000BA781A71FB685B78002B04D0FB681B7857
:104180009AB2FB681A81BB78022B02D1FB6800222D
:104190005A717B6893F8BC34012B01D102230EE0E5
:1041A0007B68012283F8BC247B681B68F968184689
:1041B00002F00CF87B68002283F8BC24FB7A1846D6
:1041C0001037BD4680BD80B584B000AF78600B4627
:1041D000FB7097F90330002B0FDAFB7803F00F0226
:1041E0001346DB0013449B0038337A6813440433CE
:1041F000FB60FB6801225A700FE0FB7803F00F02AE
:104200001346DB0013449B0003F51E737A681344C6
:104210000433FB60FB6800225A70FB7803F00F0345
:10422000DAB2FB681A707B6893F8BC34012B01D1B9
:1042300002230EE07B68012283F8BC247B681B68A4
:10424000F968184602F04AF87B68002283F8BC241B
:10425000002318461037BD4680BD80B586B000AF3C
:10426000F8607A603B600B46FB72FB7A03F00F024A
:104270001346DB0013449B0003F51E73FA681344D6
:1042800004337B617B697A681A617B693A689A6159
:104290007B6900221A627B6900225A70FB7A03F064
:1042A0000F03DAB27B691A70FB681B69012B02D11C
:1042B0007A687B695A61FB7A03F00F03002B09D1FE
:1042C000FB681868FB681B69DBB21A46796902F063
:1042D00029FB08E0FB681868FB681B69DBB21A461B
:1042E000796902F0D7F8002318461837BD4680BD1B
:1042F00080B483B000AF78600B46FB70FB7803F0AE
:104300000F0279681346DB0013449B000B4403F54E
:1043100027731B6818460C37BD465DF8047B704751
:1043200080B586B000AFF8607A603B600B46FB72E8
:10433000FB7A03F00F021346DB0013449B00383373
:10434000FA68134404337B617B697A681A617B697C
:104350003A689A617B6900221A627B6901225A706D
:10436000FB7A03F00F03DAB27B691A70FB681B69F2
:10437000012B02D17A687B695A61FB7A03F00F0343
:10438000002B09D1FB681868FB681B69DBB21A4671
:10439000796902F0C7FA08E0FB681868FB681B69D6
:1043A000DBB21A46796902F075F80023184618370F
:1043B000BD4680BD80B584B000AF78600B46FB7011
:1043C000FB7803F00F027B685B689A4201D90123F6
:1043D00050E097F90330002B0FDAFB7803F00F025F
:1043E0001346DB0013449B0038337A6813440433CC
:1043F000FB60FB6801225A700DE0FA781346DB007F
:1044000013449B0003F51E737A6813440433FB6066
:10441000FB6800225A70FB6801229A70FB7803F057
:104420000F03DAB2FB681A707B6893F8BC34012B77
:1044300001D102231EE07B68012283F8BC247B6843
:104440001B68F968184602F005FDFB7803F00F03BE
:10445000002B0AD17B6818687B681B69D9B27B681E
:1044600003F2C4431A4602F0F5FE7B68002283F88B
:10447000BC24002318461037BD4680BD80B584B0EB
:1044800000AF78600B46FB70FB7803F00F027B688F
:104490005B689A4201D9012342E097F90330002B6F
:1044A0000FDAFB7803F00F021346DB0013449B0086
:1044B00038337A6813440433FB60FB6801225A7076
:1044C0000FE0FB7803F00F021346DB0013449B0060
:1044D00003F51E737A6813440433FB60FB68002203
:1044E0005A70FB6800229A70FB7803F00F03DAB26F
:1044F000FB681A707B6893F8BC34012B01D102234E
:104500000EE07B68012283F8BC247B681B68F96895
:10451000184602F00DFD7B68002283F8BC240023BE
:1045200018461037BD4680BD80B584B000AF7860B6
:104530000B46FB7097F90330002B0CDAFB7803F085
:104540000F021346DB0013449B0038337A68134490
:104550000433FB600CE0FB7803F00F021346DB0032
:1045600013449B0003F51E737A6813440433FB6005
:104570007B681B68F968184602F02CFB0346FB7247
:10458000FB7A18461037BD4680BD80B58AB002AFB1
:10459000786039607B681B687B617B693B613A6846
:1045A0001346DB0013449B0038337A68134404330A
:1045B000FB60FB681A6AFB689B699A4201D9012378
:1045C0006CE0FB689A69FB681B6AD31AFB61FB68A5
:1045D000DB68FA699A4202D9FB68DB68FB61FB6918
:1045E00003339B08BB612BE0FB689A69FB681B6A7D
:1045F000D31AFB61FB68DB68FA699A4202D9FB684F
:10460000DB68FB61FB6903339B08BB61FB681969CD
:104610003B68DAB2FB6998B27B681B69DBB2009336
:104620000346786902F080FBFB681A69FB691A444B
:10463000FB681A61FB681A6AFB691A44FB681A6214
:104640003B685A013B69134403F510639B699BB2B5
:10465000BA699A4209D8FB681A6AFB689B699A4250
:1046600003D2FB689B69002BBED1FB689A69FB688B
:104670001B6A9A4211D83B6803F00F03012202FA29
:1046800003F3BB603B6903F500635A6BBB68DB4314
:10469000396901F5006113404B6300231846203748
:1046A000BD4680BD80B588B000AF786039607B685A
:1046B0001B68FB61FB69BB61FB693C3304331B680E
:1046C0007B613B685A01BB69134403F530639B6807
:1046D0003B617B681B69012B7BD13B6903F00803BD
:1046E000002B15D07B69614A934240F2B9803B6947
:1046F00003F40043002B00F0B3803B685A01BB6910
:10470000134403F530631A464FF400439360A7E067
:104710003B6903F02003002B09D03B685A01BB69B9
:10472000134403F530631A462023936098E03B69F5
:1047300003F02803002B40F093807B694B4A93429F
:104740000FD93B6903F40043002B0AD03B685A01A0
:10475000BB69134403F530631A464FF4004393607A
:104760007EE03A681346DB0013449B0003F51E739A
:104770007A6813440433FB60FB68DA693B685901CB
:10478000BB690B4403F530631B69C3F31203D21AF0
:10479000FB681A623B68002B14D1FB689B69002BF5
:1047A00009D17B6818687B6803F2C4431A4601216B
:1047B00002F050FD06E0FB681A69FB681B6A1A44A8
:1047C000FB681A613B68DBB21946786805F008F8A7
:1047D00046E07B69264A934224D13B6903F40043B7
:1047E000002B0AD03B685A01BB69134403F53063C0
:1047F0001A464FF40043936032E03B6903F0200314
:10480000002B08D03B685A01BB69134403F53063A1
:104810001A46202393603B68DBB21946786804F09F
:10482000DFFF1DE03B68002B14D179683A6813461E
:10483000DB0013449B000B4403F525731B68002B1E
:1048400008D17B6818687B6803F2C4431A460021CC
:1048500002F000FD3B68DBB21946786804F0C0FF47
:10486000002318462037BD4680BD00BF0A30544F94
:104870000A31544F80B586B000AF786039607B68EC
:104880001B687B617B693B617B693C3304331B683C
:10489000FB603B685A013B69134403F530639B6836
:1048A000BB60FB68154A93420ED9BB6803F4004312
:1048B000002B09D03B685A013B69134403F5306370
:1048C0001A464FF400439360786804F077FFFB6862
:1048D0000A4A93420CD97B681B69012B08D17B687B
:1048E00018687B6803F2C4431A46012102F0B2FC47
:1048F000002318461837BD4680BD00BF0A30544F0C
:1049000080B485B000AF78600B46FB7013463B80E7
:104910007B681B685B6ABB60FB78002B07D13B8818
:1049200019047B681B68BA680A439A6228E07B68AE
:104930001B689B6A1B0CBA681344BB600023FB73A3
:104940000DE07B681A68FB7B40339B0013445B6877
:104950001B0CBA681344BB60FB7B0133FB73FA7B0F
:10496000FB78013B9A42ECD33B8818047B681968BA
:10497000FB78013BBA68024340339B000B445A600A
:10498000002318461437BD465DF8047B704780B499
:1049900083B000AF78600B467B807B681B687A88A9
:1049A0005A62002318460C37BD465DF8047B7047F9
:1049B00080B483B000AF78600B46FB7000BF0C374B
:1049C000BD465DF8047B704780B586B000AF786067
:1049D0007B68002B01D1012367E27B681B6803F031
:1049E0000103002B75D0884B9B6803F00C03042B4C
:1049F0000CD0854B9B6803F00C03082B12D1824B23
:104A00005B6803F48003B3F5800F0BD17E4B1B680A
:104A100003F40033002B5BD07B685B68002B57D11D
:104A2000012342E27B685B68B3F5803F06D1764B99
:104A30001B68754A43F4803313601DE07B685B6834
:104A4000B3F5A02F0CD1704B1B686F4A43F4802341
:104A500013606D4B1B686C4A43F4803313600BE0AA
:104A6000694B1B68684A23F480331360664B1B68EC
:104A7000654A23F4802313607B685B68002B13D0A6
:104A8000FDF77CFA386108E0FDF778FA02463B69E9
:104A9000D31A642B01D9032307E25B4B1B6803F491
:104AA0000033002BF0D014E0FDF768FA386108E01D
:104AB000FDF764FA02463B69D31A642B01D903233C
:104AC000F3E1514B1B6803F40033002BF0D100E0FD
:104AD00000BF7B681B6803F00203002B63D04A4BC6
:104AE0009B6803F00C03002B0BD0474B9B6803F033
:104AF0000C03082B1CD1444B5B6803F48003002B90
:104B000016D1414B1B6803F00203002B05D07B68D4
:104B1000DB68012B01D00123C7E13B4B1B6823F06D
:104B2000F8027B681B69DB00374913430B603AE0EE
:104B30007B68DB68002B20D0344B01221A60FDF724
:104B40001DFA386108E0FDF719FA02463B69D31AED
:104B5000022B01D90323A8E12B4B1B6803F00203AE
:104B6000002BF0D0284B1B6823F0F8027B681B69F0
:104B7000DB00254913430B6015E0244B00221A602B
:104B8000FDF7FCF9386108E0FDF7F8F902463B69EA
:104B9000D31A022B01D9032387E11B4B1B6803F0B7
:104BA0000203002BF0D17B681B6803F00803002B85
:104BB00036D07B685B69002B16D0154B01221A603A
:104BC000FDF7DCF9386108E0FDF7D8F902463B69EA
:104BD000D31A022B01D9032367E10B4B5B6F03F060
:104BE0000203002BF0D01BE0094B00221A60FDF7F6
:104BF000C5F938610EE0FDF7C1F902463B69D31AE9
:104C0000022B07D9032350E100380240000047423D
:104C1000800E4742884B5B6F03F00203002BEAD102
:104C20007B681B6803F00403002B00F097800023CF
:104C3000FB75814B1B6C03F08053002B0FD10023BD
:104C4000BB607D4B1B6C7C4A43F0805313647A4BF2
:104C50001B6C03F08053BB60BB680123FB75774B73
:104C60001B6803F48073002B18D1744B1B68734AC4
:104C700043F480731360FDF781F9386108E0FDF7B4
:104C80007DF902463B69D31A022B01D903230CE1BB
:104C90006A4B1B6803F48073002BF0D07B689B6821
:104CA000012B06D1644B1B6F634A43F0010313676A
:104CB0001CE07B689B68052B0CD15F4B1B6F5E4A29
:104CC00043F0040313675C4B1B6F5B4A43F0010323
:104CD00013670BE0584B1B6F574A23F00103136710
:104CE000554B1B6F544A23F0040313677B689B6882
:104CF000002B15D0FDF742F938610AE0FDF73EF9C7
:104D000002463B69D31A41F28832934201D9032308
:104D1000CBE0494B1B6F03F00203002BEED014E0F5
:104D2000FDF72CF938610AE0FDF728F902463B69E6
:104D3000D31A41F28832934201D90323B5E03E4BA6
:104D40001B6F03F00203002BEED1FB7D012B05D17D
:104D5000394B1B6C384A23F0805313647B689B6982
:104D6000002B00F0A180344B9B6803F00C03082B50
:104D70005CD07B689B69022B41D1314B00221A60C9
:104D8000FDF7FCF8386108E0FDF7F8F802463B69EA
:104D9000D31A022B01D9032387E0274B1B6803F0AA
:104DA0000073002BF0D17B68DA697B681B6A1A43B9
:104DB0007B685B6A9B011A437B689B6A5B08013BCB
:104DC0001B041A437B68DB6A1B061B4913434B60B9
:104DD0001B4B01221A60FDF7D1F8386108E0FDF79E
:104DE000CDF802463B69D31A022B01D903235CE0BC
:104DF000114B1B6803F00073002BF0D054E0104BF4
:104E000000221A60FDF7BAF8386108E0FDF7B6F83D
:104E100002463B69D31A022B01D9032345E0064B16
:104E20001B6803F00073002BF0D13DE07B689B69A9
:104E3000012B07D1012338E0003802400070004008
:104E4000600047421B4B5B68FB607B689B69012BE2
:104E500028D0FB6803F480027B68DB699A4221D189
:104E6000FB6803F03F027B681B6A9A421AD1FA681A
:104E700047F6C07313407A68526A9201934211D187
:104E8000FB6803F440327B689B6A5B08013B1B04B0
:104E90009A4207D1FB6803F070627B68DB6A1B06ED
:104EA0009A4201D0012300E0002318461837BD467E
:104EB00080BD00BF0038024080B584B000AF78608C
:104EC00039607B68002B01D10123CCE0684B1B6863
:104ED00003F007033A689A420CD9654B3A68D2B29C
:104EE0001A70634B1B6803F007033A689A4201D0BB
:104EF0000123B8E07B681B6803F00203002B20D07D
:104F00007B681B6803F00403002B05D0594B9B689A
:104F1000584A43F4E05393607B681B6803F008032E
:104F2000002B05D0534B9B68524A43F46043936077
:104F3000504B9B6823F0F0027B689B684D491343FC
:104F40008B607B681B6803F00103002B44D07B68F7
:104F50005B68012B07D1474B1B6803F40033002B20
:104F600019D101237FE07B685B68022B03D07B684B
:104F70005B68032B07D13F4B1B6803F00073002BCA
:104F800009D101236FE03B4B1B6803F00203002BA8
:104F900001D1012367E0374B9B6823F003027B6854
:104FA0005B68344913438B60FCF7E8FFF8600AE064
:104FB000FCF7E4FF0246FB68D31A41F288329342C1
:104FC00001D903234FE02B4B9B6803F00C027B6855
:104FD0005B689B009A42EBD1254B1B6803F00703EB
:104FE0003A689A420CD2224B3A68D2B21A70204BDD
:104FF0001B6803F007033A689A4201D0012332E0AC
:105000007B681B6803F00403002B08D0194B9B68D6
:1050100023F4E0527B68DB68164913438B607B689E
:105020001B6803F00803002B09D0124B9B6823F484
:1050300060427B681B69DB000E4913438B6000F004
:1050400021F802460B4B9B681B0903F00F030A492A
:10505000CB5C22FA03F3094A1360094B1B6818461C
:10506000FCF748FF002318461037BD4680BD00BF3F
:10507000003C024000380240B0CB00080C00002089
:10508000100000202DE9B04F90B000AF00237B63EB
:105090000023FB6300233B630023BB63594B9B68E6
:1050A00003F00C03082B0DD0082B00F2A180002B7D
:1050B00002D0042B03D09BE0534BBB639BE0534BCC
:1050C000BB6398E04F4B5B6803F03F037B634D4B42
:1050D0005B6803F48003002B28D04A4B5B689B0974
:1050E00000223B627A623B6AC3F308000021474B0F
:1050F00003FB01F2002300FB03F31344434AA0FB2C
:105100000212FA620A46BA62FA6A1344FB627B6BC5
:105110000022BB61FA61D7E90623D7E90A01FBF750
:105120004BFD02460B461346FB6353E0354B5B6871
:105130009B0900223B617A613B69C3F3080A4FF087
:10514000000B52465B464FF000004FF00001590142
:1051500041EAD261500102460B46B2EB0A0863EB0A
:105160000B094FF000024FF000034FEA891343EAA6
:1051700098634FEA8812B2EB080463EB09054FF01D
:1051800000024FF00003EB0043EA5473E2001446C0
:105190001D4614EB0A033B6045EB0B037B604FF0AD
:1051A00000024FF00003D7E9004529468B02214653
:1051B00043EA915321468A02104619467B6B00222E
:1051C000BB60FA60D7E90223FBF7F6FC02460B4608
:1051D0001346FB630B4B5B681B0C03F003030133AB
:1051E0005B003B63FA6B3B6BB2FBF3F3BB6302E028
:1051F000054BBB6300BFBB6B18464037BD46BDE8DF
:10520000B08F00BF003802400024F40040787D01D8
:1052100080B400AF034B1B681846BD465DF8047BA5
:10522000704700BF0C00002080B500AFFFF7F0FF13
:105230000246054B9B689B0A03F007030349CB5CBE
:1052400022FA03F3184680BD00380240C0CB0008A4
:1052500080B582B000AF78607B68002B01D101235C
:1052600041E07B6893F83D30DBB2002B06D17B68D0
:10527000002283F83C207868FCF7C8FD7B68022296
:1052800083F83D207B681A687B6804331946104612
:1052900000F088FA7B68012283F846207B680122AF
:1052A00083F83E207B68012283F83F207B6801223F
:1052B00083F840207B68012283F841207B6801222B
:1052C00083F842207B68012283F843207B68012217
:1052D00083F844207B68012283F845207B68012203
:1052E00083F83D20002318460837BD4680BD0000E6
:1052F00080B485B000AF78607B6893F83D30DBB256
:10530000012B01D0012344E07B68022283F83D2079
:105310007B681B68DA687B681B6842F00102DA6010
:105320007B681B681E4A934218D07B681B68B3F1E8
:10533000804F13D07B681B681A4A93420ED07B685B
:105340001B68194A934209D07B681B68174A93422D
:1053500004D07B681B68164A934211D17B681B6896
:105360009B6803F00703FB60FB68062B10D07B688B
:105370001B681A687B681B6842F001021A6007E02C
:105380007B681B681A687B681B6842F001021A6020
:10539000002318461437BD465DF8047B704700BFF4
:1053A000000001400004004000080040000C0040E4
:1053B0000040014080B582B000AF78607B681B6818
:1053C0001B6903F00203022B22D17B681B68DB6898
:1053D00003F00203022B1BD17B681B686FF00202F3
:1053E0001A617B6801221A777B681B689B6903F04E
:1053F0000303002B03D0786800F0B5F905E0786866
:1054000000F0A7F9786800F0B8F97B6800221A77F5
:105410007B681B681B6903F00403042B22D17B68A3
:105420001B68DB6803F00403042B1BD17B681B683B
:105430006FF004021A617B6802221A777B681B688E
:105440009B6903F44073002B03D0786800F08BF95C
:1054500005E0786800F07DF9786800F08EF97B68E7
:1054600000221A777B681B681B6903F00803082B6E
:1054700022D17B681B68DB6803F00803082B1BD173
:105480007B681B686FF008021A617B6804221A7738
:105490007B681B68DB6903F00303002B03D078688B
:1054A00000F061F905E0786800F053F9786800F0E1
:1054B00064F97B6800221A777B681B681B6903F01C
:1054C0001003102B22D17B681B68DB6803F01003EC
:1054D000102B1BD17B681B686FF010021A617B6870
:1054E00008221A777B681B68DB6903F44073002B82
:1054F00003D0786800F037F905E0786800F029F902
:10550000786800F03AF97B6800221A777B681B689C
:105510001B6903F00103012B0ED17B681B68DB685C
:1055200003F00103012B07D17B681B686FF00102B8
:105530001A617868FCF7DAFA7B681B681B6903F06C
:105540008003802B0ED17B681B68DB6803F080032F
:10555000802B07D17B681B686FF080021A61786826
:1055600000F0B2FA7B681B681B6903F04003402B14
:105570000ED17B681B68DB6803F04003402B07D12A
:105580007B681B686FF040021A61786800F0FFF8D2
:105590007B681B681B6903F02003202B0ED17B68FE
:1055A0001B68DB6803F02003202B07D17B681B6896
:1055B0006FF020021A61786800F07CFA00BF0837AB
:1055C000BD4680BD80B584B000AF786039600023EF
:1055D000FB737B6893F83C30012B01D10223B4E0CC
:1055E0007B68012283F83C207B68022283F83D20FF
:1055F0007B681B689B68BB60BB6823F07703BB605C
:10560000BB6823F47F43BB607B681B68BA689A6001
:105610003B681B68B3F5005F3ED0B3F5005F00F256
:105620008780B3F5805F00F08680B3F5805F7FD818
:10563000702B1AD0702B7BD8602B50D0602B77D872
:10564000502B3CD0502B73D8402B58D0402B6FD8C8
:10565000302B64D0302B6BD8202B60D0202B67D818
:10566000002B5CD0102B5AD062E07B6818683B6836
:1056700099683B685A683B68DB6800F08DF97B6885
:105680001B689B68BB60BB6843F07703BB607B68AB
:105690001B68BA689A604FE07B6818683B68996835
:1056A0003B685A683B68DB6800F076F97B681B68EA
:1056B0009A687B681B6842F480429A603CE07B6891
:1056C00018683B6859683B68DB681A4600F0EAF8DE
:1056D0007B681B685021184600F043F92CE07B687A
:1056E00018683B6859683B68DB681A4600F009F99E
:1056F0007B681B686021184600F033F91CE07B686A
:1057000018683B6859683B68DB681A4600F0CAF8BD
:105710007B681B684021184600F023F90CE07B6889
:105720001A683B681B681946104600F01AF903E036
:105730000123FB7300E000BF7B68012283F83D205A
:105740007B68002283F83C20FB7B18461037BD465F
:1057500080BD80B483B000AF786000BF0C37BD4619
:105760005DF8047B704780B483B000AF786000BF01
:105770000C37BD465DF8047B704780B483B000AF42
:10578000786000BF0C37BD465DF8047B704780B47D
:1057900083B000AF786000BF0C37BD465DF8047B76
:1057A0007047000080B485B000AF786039607B68D6
:1057B0001B68FB607B68344A93420FD07B68B3F16F
:1057C000804F0BD07B68314A934207D07B68304AC8
:1057D000934203D07B682F4A934208D1FB6823F0A1
:1057E0007003FB603B685B68FA681343FB607B688F
:1057F000254A93421BD07B68B3F1804F17D07B685A
:10580000224A934213D07B68214A93420FD07B688F
:10581000204A93420BD07B681F4A934207D07B6893
:105820001E4A934203D07B681D4A934208D1FB680D
:1058300023F44073FB603B68DB68FA681343FB604A
:10584000FB6823F080023B685B691343FB607B6865
:10585000FA681A603B689A687B68DA623B681A6883
:105860007B689A627B68084A934203D13B681A6955
:105870007B681A637B6801225A6100BF1437BD46FA
:105880005DF8047B704700BF000001400004004049
:1058900000080040000C004000400140004401406E
:1058A0000048014080B487B000AFF860B9607A600A
:1058B000FB681B6A7B61FB681B6A23F00102FB68C3
:1058C0001A62FB689B693B613B6923F0F0033B6113
:1058D0007B681B013A6913433B617B6923F00A0330
:1058E0007B617A69BB6813437B61FB683A699A61A3
:1058F000FB687A691A6200BF1C37BD465DF8047BFD
:10590000704780B487B000AFF860B9607A60FB6818
:105910001B6A23F01002FB681A62FB689B697B61BB
:10592000FB681B6A3B617B6923F470437B617B6886
:105930001B037A6913437B613B6923F0A0033B613E
:10594000BB681B013A6913433B61FB687A699A6142
:10595000FB683A691A6200BF1C37BD465DF8047BDC
:10596000704780B485B000AF786039607B689B6811
:10597000FB60FB6823F07003FB603A68FB6813432D
:1059800043F00703FB607B68FA689A6000BF143736
:10599000BD465DF8047B704780B487B000AFF86007
:1059A000B9607A603B60FB689B687B617B6923F42C
:1059B0007F437B613B681A027B681A43BB681343D1
:1059C0007A6913437B61FB687A699A6000BF1C3770
:1059D000BD465DF8047B704780B485B000AF786049
:1059E00039607B6893F83C30012B01D1022350E0F1
:1059F0007B68012283F83C207B68022283F83D20EB
:105A00007B681B685B68FB607B681B689B68BB608E
:105A1000FB6823F07003FB603B681B68FA68134364
:105A2000FB607B681B68FA685A607B681B681C4ACD
:105A3000934218D07B681B68B3F1804F13D07B680A
:105A40001B68184A93420ED07B681B68164A934223
:105A500009D07B681B68154A934204D07B681B6899
:105A6000134A93420CD1BB6823F08003BB603B68B0
:105A70005B68BA681343BB607B681B68BA689A604E
:105A80007B68012283F83D207B68002283F83C205C
:105A9000002318461437BD465DF8047B704700BFED
:105AA000000001400004004000080040000C0040DD
:105AB0000040014080B483B000AF786000BF0C3775
:105AC000BD465DF8047B704780B483B000AF78605A
:105AD00000BF0C37BD465DF8047B704784B080B5CD
