:020000040800F2
:1000000000000220513100088D27000893270008C6
:10001000992700089F270008A52700080000000076
:10002000000000000000000000000000AB270008F6
:10003000B927000800000000C7270008D5270008DE
:10004000A1310008A1310008A1310008A131000848
:10005000A1310008A1310008E1270008A131000802
:10006000A1310008A1310008A1310008A131000828
:10007000A1310008A1310008A1310008A131000818
:10008000A1310008F1270008A1310008000000009C
:10009000000000000000000000000000A131000886
:1000A000A1310008A1310008A1310008A1310008E8
:1000B000A1310008A131000805280008A13100087D
:1000C000A1310008A1310008A1310008A1310008C8
:1000D000A1310008192800082D28000800000000A0
:1000E000A1310008A1310008A13100080000000082
:1000F000000000000000000000000000A131000826
:1001000000000000A1310008A1310008A131000861
:1001100000000000000000000000000000000000DF
:10012000A1310008A131000841280008A1310008D0
:10013000A1310008000000000000000000000000E5
:10014000000000000000000000000000A1310008D5
:10015000A131000855280008A131000869280008CD
:10016000A1310008A13100080000000000000000DB
:10017000000000000000000000000000000000007F
:1001800000000000A1310008000000000000000095
:08019000A1310008A1310008B3
:1001A00010B5054C237833B9044B13B10448AFF3B1
:1001B00000800123237010BDF0010020000000002A
:1001C0002CB6000808B5034B1BB103490348AFF335
:1001D000008008BD00000000F40100202CB60008DB
:1001E000034613F8012B002AFBD1181A0138704777
:1001F00001F0FF01102A2BDB10F0070F08D010F8D8
:10020000013B013A8B422DD010F0070F42B3F6D1DB
:10021000F0B441EA012141EA014122F007047FF0F4
:1002200000070023F0E80256083C85EA010586EA4B
:10023000010685FA47F5A3FA87F586FA47F6A5FA87
:1002400087F68EB9EED1F0BC01F0FF0102F0070293
:1002500032B110F8013B013A83EA010313B1F8D13E
:100260000020704701387047002D06BF354603381F
:10027000073815F0010F07D1013015F4807F02BF58
:10028000013015F4C03F0130F0BC0138704700BFA9
:1002900081F0004102E000BF83F0004330B54FEA37
:1002A00041044FEA430594EA050F08BF90EA020FA4
:1002B0001FBF54EA000C55EA020C7FEA645C7FEA37
:1002C000655C00F0E2804FEA5454D4EB5555B8BF5A
:1002D0006D420CDD2C4480EA020281EA030382EACB
:1002E000000083EA010180EA020281EA0303362D5D
:1002F00088BF30BD11F0004F4FEA01314FF4801C30
:100300004CEA113102D0404261EB410113F0004F41
:100310004FEA03334CEA133302D0524263EB4303F8
:1003200094EA050F00F0A780A4F10104D5F1200E96
:100330000DDB02FA0EFC22FA05F2801841F10001F1
:1003400003FA0EF2801843FA05F359410EE0A5F1C5
:1003500020050EF1200E012A03FA0EFC28BF4CF0F6
:10036000020C43FA05F3C01851EBE37101F00045AC
:1003700007D54FF0000EDCF1000C7EEB00006EEBB9
:100380000101B1F5801F1BD3B1F5001F0CD3490843
:100390005FEA30004FEA3C0C04F101044FEA44529A
:1003A00012F5800F80F09A80BCF1004F08BF5FEA21
:1003B000500C50F1000041EB045141EA050130BD01
:1003C0005FEA4C0C404141EB0101013C28BFB1F513
:1003D000801FE9D291F0000F04BF01460020B1FA5E
:1003E00081F308BF2033A3F10B03B3F120020CDA31
:1003F0000C3208DD02F1140CC2F10C0201FA0CF00F
:1004000021FA02F10CE002F11402D8BFC2F1200C73
:1004100001FA02F120FA0CFCDCBF41EA0C01904029
:10042000E41AA2BF01EB0451294330BD6FEA040472
:100430001F3C1CDA0C340EDC04F11404C4F120025D
:1004400020FA04F001FA02F340EA030021FA04F36F
:1004500045EA030130BDC4F10C04C4F1200220FAC6
:1004600002F001FA04F340EA0300294630BD21FA04
:1004700004F0294630BD94F0000F83F4801306BFCA
:1004800081F480110134013D4EE77FEA645C18BFBE
:100490007FEA655C29D094EA050F08BF90EA020F55
:1004A00005D054EA000C04BF1946104630BD91EA4D
:1004B000030F1EBF0021002030BD5FEA545C05D150
:1004C0004000494128BF41F0004130BD14F580048F
:1004D0003CBF01F5801130BD01F0004545F0FE4103
:1004E00041F470014FF0000030BD7FEA645C1ABF38
:1004F000194610467FEA655C1CBF0B46024650EA6F
:10050000013406BF52EA033591EA030F41F400219A
:1005100030BD00BF90F0000F04BF0021704730B520
:100520004FF4806404F132044FF000054FF00001F5
:1005300050E700BF90F0000F04BF0021704730B5B6
:100540004FF4806404F1320410F0004548BF40428B
:100550004FF000013EE700BF42004FEAE2014FEAE0
:1005600031014FEA02701FBF12F07F4393F07F4FBB
:1005700081F06051704732F07F4208BF704793F0BE
:100580007F4F04BF41F40021704730B54FF46074D1
:1005900001F0004521F000411CE700BF50EA0102D4
:1005A00008BF704730B54FF000050AE050EA01027D
:1005B00008BF704730B511F0004502D5404261EBED
:1005C00041014FF4806404F132045FEA915C3FF42E
:1005D000D8AE4FF003025FEADC0C18BF03325FEACB
:1005E000DC0C18BF033202EBDC02C2F1200300FA7C
:1005F00003FC20FA02F001FA03FE40EA0E0021FAA1
:1006000002F11444BDE600BF70B54FF0FF0C4CF48E
:10061000E06C1CEA11541DBF1CEA135594EA0C0F40
:1006200095EA0C0F00F0DEF82C4481EA030621EA7B
:100630004C5123EA4C5350EA013518BF52EA0335B6
:1006400041F4801143F4801338D0A0FB02CE4FF068
:100650000005E1FB02E506F00042E0FB03E54FF098
:100660000006E1FB03569CF0000F18BF4EF0010E90
:10067000A4F1FF04B6F5007F64F5407404D25FEA8C
:100680004E0E6D4146EB060642EAC62141EA55513F
:100690004FEAC52040EA5E504FEACE2EB4F1FD0C81
:1006A00088BFBCF5E06F1ED8BEF1004F08BF5FEAFF
:1006B000500E50F1000041EB045170BD06F00046B1
:1006C00046EA010140EA020081EA0301B4EB5C045E
:1006D000C2BFD4EB0C0541EA045170BD41F4801156
:1006E0004FF0000E013C00F3AB8014F1360FDEBF7B
:1006F000002001F0004170BDC4F10004203C35DA57
:100700000C341BDC04F11404C4F1200500FA05F3D9
:1007100020FA04F001FA05F240EA020001F000427A
:1007200021F0004110EBD37021FA04F642EB0601F0
:100730005EEA430E08BF20EAD37070BDC4F10C041A
:10074000C4F1200500FA04F320FA05F001FA04F2DE
:1007500040EA020001F0004110EBD37041F10001CA
:100760005EEA430E08BF20EAD37070BDC4F12005D5
:1007700000FA05F24EEA020E20FA04F301FA05F23D
:1007800043EA020321FA04F001F0004121FA04F2E5
:1007900020EA020000EBD3705EEA430E08BF20EAB5
:1007A000D37070BD94F0000F0FD101F000464000EF
:1007B00041EB010111F4801F08BF013CF7D041EA71
:1007C000060195F0000F18BF704703F00046520075
:1007D00043EB030313F4801F08BF013DF7D043EA46
:1007E0000603704794EA0C0F0CEA135518BF95EAFC
:1007F0000C0F0CD050EA410618BF52EA4306D1D183
:1008000081EA030101F000414FF0000070BD50EAA1
:10081000410606BF1046194652EA430619D094EA2B
:100820000C0F02D150EA013613D195EA0C0F05D115
:1008300052EA03361CBF104619460AD181EA030169
:1008400001F0004141F0FE4141F470014FF0000021
:1008500070BD41F0FE4141F4780170BD70B54FF0BC
:10086000FF0C4CF4E06C1CEA11541DBF1CEA13553C
:1008700094EA0C0F95EA0C0F00F0A7F8A4EB05041E
:1008800081EA030E52EA03354FEA013100F0888015
:100890004FEA03334FF0805545EA131343EA1263DE
:1008A0004FEA022245EA111545EA10654FEA002693
:1008B0000EF000419D4208BF964244F1FD0404F54C
:1008C000407402D25B084FEA3202B61A65EB0305A8
:1008D0005B084FEA32024FF480104FF4002CB6EB65
:1008E000020E75EB030E22BFB61A754640EA0C00E5
:1008F0005B084FEA3202B6EB020E75EB030E22BF25
:10090000B61A754640EA5C005B084FEA3202B6EB65
:10091000020E75EB030E22BFB61A754640EA9C0024
:100920005B084FEA3202B6EB020E75EB030E22BFF4
:10093000B61A754640EADC0055EA060E18D04FEAB2
:10094000051545EA16754FEA06164FEAC30343EA52
:1009500052734FEAC2025FEA1C1CC0D111F4801F1F
:100960000BD141EA00014FF000004FF0004CB6E718
:1009700011F4801F04BF01430020B4F1FD0C88BFB7
:10098000BCF5E06F3FF6AFAEB5EB030C04BFB6EBC2
:10099000020C5FEA500C50F1000041EB045170BDB5
:1009A0000EF0004E4EEA113114EB5C04C2BFD4EBE2
:1009B0000C0541EA045170BD41F480114FF0000E66
:1009C000013C90E645EA060E8DE60CEA135594EAE2
:1009D0000C0F08BF95EA0C0F3FF43BAF94EA0C0FE5
:1009E0000AD150EA01347FF434AF95EA0C0F7FF45A
:1009F00025AF104619462CE795EA0C0F06D152EAAE
:100A000003353FF4FDAE1046194622E750EA410691
:100A100018BF52EA43067FF4C5AE50EA41047FF4A2
:100A20000DAF52EA43057FF4EBAE12E74FF0FF3C07
:100A300006E000BF4FF0010C02E000BF4FF0010CD8
:100A40004DF804CD4FEA410C7FEA6C5C4FEA430C51
:100A500018BF7FEA6C5C1BD001B050EA410C0CBFA0
:100A600052EA430C91EA030F02BF90EA020F002002
:100A7000704710F1000F91EA030F58BF994208BF69
:100A800090422CBFD8176FEAE37040F00100704726
:100A90004FEA410C7FEA6C5C02D150EA013C07D17D
:100AA0004FEA430C7FEA6C5CD6D152EA033CD3D0C8
:100AB0005DF8040B704700BF8446104662468C46C2
:100AC0001946634600E000BF01B5FFF7B7FF0028F5
:100AD00048BF10F1000F01BD4DF808EDFFF7F4FF1E
:100AE0000CBF012000205DF808FB00BF4DF808EDA9
:100AF000FFF7EAFF34BF012000205DF808FB00BFCC
:100B00004DF808EDFFF7E0FF94BF012000205DF8ED
:100B100008FB00BF4DF808EDFFF7CEFF94BF0120A2
:100B200000205DF808FB00BF4DF808EDFFF7C4FF9B
:100B300034BF012000205DF808FB00BF4FEA410CE4
:100B40007FEA6C5C02D150EA013C0AD14FEA430CC7
:100B50007FEA6C5C02D152EA033C02D14FF0000004
:100B600070474FF0010070474FEA410212F5001242
:100B700015D211D56FF47873B3EB625212D94FEAE4
:100B8000C12343F0004343EA505311F0004F23FACE
:100B900002F018BF404270474FF00000704750EA23
:100BA000013005D111F0004008BF6FF000407047E0
:100BB0004FF00000704700BF4FEA4102B2F1E0433E
:100BC00024BFB3F5001CDCF1FE5C0DD901F0004C34
:100BD0004FEAC0024CEA5070B2F1004F40EB830084
:100BE00008BF20F00100704711F0804F21D113F1B0
:100BF0003872BCBF01F00040704741F480114FEAE9
:100C00005252C2F11802C2F1200C10FA0CF320FA71
:100C100002F018BF40F001004FEAC1234FEAD3238E
:100C200003FA0CFC40EA0C0023FA02F34FEA4303F8
:100C3000CCE77FEA625307D150EA01331EBF4FF081
:100C4000FE4040F44000704701F0004040F0FE409C
:100C500040F40000704700BF53B94AB9002908BFEB
:100C600000281CBF4FF0FF314FF0FF3000F074B987
:100C7000ADF1080C6DE904CE00F006F8DDF804E0F3
:100C8000DDE9022304B070472DE9F047089D0446D2
:100C90008E46002B4DD18A42944669D9B2FA82F22F
:100CA00052B101FA02F3C2F1200120FA01F10CFA6B
:100CB00002FC41EA030E94404FEA1C48210CBEFBA3
:100CC000F8F61FFA8CF708FB16E341EA034306FB2C
:100CD00007F199420AD91CEB030306F1FF3080F0BB
:100CE0001F81994240F21C81023E63445B1AA4B208
:100CF000B3FBF8F008FB103344EA034400FB07F7AA
:100D0000A7420AD91CEB040400F1FF3380F00A81EA
:100D1000A74240F207816444023840EA0640E41BDF
:100D200000261DB1D4400023C5E900433146BDE88B
:100D3000F0878B4209D9002D00F0EF800026C5E92D
:100D4000000130463146BDE8F087B3FA83F6002E45
:100D50004AD18B4202D3824200F2F980841A61EBBD
:100D6000030301209E46002DE0D0C5E9004EDDE7DB
:100D700002B9FFDEB2FA82F2002A40F09280A1EBC3
:100D80000C014FEA1C471FFA8CFE0126200CB1FB18
:100D9000F7F307FB131140EA01410EFB03F0884211
:100DA00008D91CEB010103F1FF3802D2884200F29E
:100DB000CB804346091AA4B2B1FBF7F007FB101130
:100DC00044EA01440EFB00FEA64508D91CEB0404CE
:100DD00000F1FF3102D2A64500F2BB800846A4EB29
:100DE0000E0440EA03409CE7C6F12007B34022FA14
:100DF00007FC4CEA030C20FA07F401FA06F31C4343
:100E0000F9404FEA1C4900FA06F3B1FBF9F8200C4F
:100E10001FFA8CFE09FB181140EA014108FB0EF095
:100E2000884202FA06F20BD91CEB010108F1FF3AE5
:100E300080F08880884240F28580A8F102086144F1
:100E4000091AA4B2B1FBF9F009FB101144EA0141FF
:100E500000FB0EFE8E4508D91CEB010100F1FF34AA
:100E60006CD28E456AD90238614440EA0840A0FB42
:100E70000294A1EB0E01A142C846A64656D353D018
:100E80005DB1B3EB080261EB0E0101FA07F722FA3C
:100E900006F3F1401F43C5E9007100263146BDE865
:100EA000F087C2F12003D8400CFA02FC21FA03F3C8
:100EB000914001434FEA1C471FFA8CFEB3FBF7F049
:100EC00007FB10360B0C43EA064300FB0EF69E426E
:100ED00004FA02F408D91CEB030300F1FF382FD207
:100EE0009E422DD9023863449B1B89B2B3FBF7F6AF
:100EF00007FB163341EA034106FB0EF38B4208D988
:100F00001CEB010106F1FF3816D28B4214D9023EC8
:100F10006144C91A46EA004638E72E46284605E7E6
:100F20000646E3E61846F8E64B45A9D2B9EB0208B7
:100F300064EB0C0E0138A3E74646EAE7204694E747
:100F40004046D1E7D0467BE7023B614432E730467A
:100F500009E76444023842E7704700BF80B582B0B9
:100F600000AF0346FB71FB791946072000F0A4FC93
:100F700000BF0837BD4680BD80B582B000AF0346D4
:100F8000FB71FB7919463D2000F096FCFB79002BA4
:100F900003D1132000F084FC02E0072000F080FC65
:100FA00000BF0837BD4680BD80B500AF0020FFF709
:100FB000E3FF00BF80BD80B500AF0C20FFF7DCFF72
:100FC00000BF80BD80B500AF20213F2000F074FC41
:100FD0004FF42F7000F064FC00BF80BD80B582B07C
:100FE00000AFFFF7EFFF0023FB71FB1D0122194645
:100FF000002000F04DFDFB79A02B04D0FB791946B1
:10100000094808F01BF80020FFF7A8FF00213F2047
:1010100000F052FCFFF7C8FF0A2000F041FC00BFBF
:101020000837BD4680BD00BF48B600082DE9B04373
:101030009EB000AF034687F827300020FFF78EFFF1
:1010400097F82730202B08D107F1480197F827306F
:101050000822184600F01CFD07E007F1480197F848
:1010600027300622184600F013FD4FF000028B4B8C
:10107000C7E91C2397F827300E2B09D1884B1B8812
:101080001846FFF747FA02460B46C7E91C233EE025
:1010900097F82730082B07D097F82730282B03D054
:1010A00097F827302E2B09D17E4B1B881846FFF767
:1010B00031FA02460B46C7E91C2328E097F827308F
:1010C000142B09D1784B1B881846FFF723FA0246E8
:1010D0000B46C7E91C231AE097F827301A2B09D1D1
:1010E000724B1B881846FFF715FA02460B46C7E9F4
:1010F0001C230CE097F82730202B08D16C4B1B8861
:101100001846FFF707FA02460B46C7E91C2307F10A
:10111000280320220021184607F01EFB97F82730ED
:10112000202B50D197F849301B021AB297F848305B
:101130001BB213431BB21846FFF7FCF9D7E91C2377
:10114000FFF78CFB02460B46C7E90A2397F84B30A2
:101150001B021AB297F84A301BB213431BB218464F
:10116000FFF7E8F9D7E91C23FFF778FB02460B46A7
:10117000C7E90C2397F84D301B021AB297F84C3090
:101180001BB213431BB21846FFF7D4F9D7E91C234F
:10119000FFF764FB02460B46C7E90E2397F84F3072
:1011A0001B021AB297F84E301BB213431BB21846FB
:1011B000FFF7C0F9D7E91C23FFF750FB02460B46A7
:1011C000C7E910233BE097F849301B021AB297F8A1
:1011D00048301BB213431BB21846FFF7ABF9D7E9EF
:1011E0001C23FFF73BFB02460B46C7E90C2397F88D
:1011F0004B301B021AB297F84A301BB213431BB292
:101200001846FFF797F9D7E91C23FFF727FB02469B
:101210000B46C7E90E2397F84D301B021AB297F818
:101220004C301BB213431BB21846FFF783F9D7E9C2
:101230001C23FFF713FB02460B46C7E9102307F1F7
:10124000500407F128050FCD0FC495E80F0084E87E
:101250000F00D7E91489D7E91645D7E91801D7E96E
:101260001A2349EC148B45EC154B41EC160B43EC5F
:10127000172BB0EE440AF0EE640AB0EE451AF0EE19
:10128000651AB0EE462AF0EE662AB0EE473AF0EE66
:10129000673A7837BD46BDE8B08300BF0000F03F35
:1012A00006000020000000200200002004000020B2
:1012B000080000202DE9B04390B000AF1A20FFF7DE
:1012C000B5FEB0EE404AF0EE604AB0EE415AF0EEA4
:1012D000615AB0EE426AF0EE626AB0EE437AF0EE26
:1012E000637A87ED084B87ED0A5B87ED0C6B87ED22
:1012F0000E7BD7E90889D7E90A45D7E90C01D7E978
:101300000E2349EC148B45EC154B41EC160B43ECCA
:10131000172BB0EE440AF0EE640AB0EE451AF0EE78
:10132000651AB0EE462AF0EE662AB0EE473AF0EEC5
:10133000673A4037BD46BDE8B08380B485B000AFA2
:10134000F86087ED020AC7ED010AFA6813786FF3B7
:1013500000031370FA6813786FF341031370FA688F
:1013600013786FF382031370FA6813786FF3C30373
:101370001370D7ED027AB7EE087AF4EEC77AF1EE81
:1013800010FA05DDFA68137843F0010313700DE0DD
:10139000D7ED027ABFEE087AF4EEC77AF1EE10FAD2
:1013A00004D5FA68137843F004031370D7ED017A7B
:1013B000B7EE087AF4EEC77AF1EE10FA05DDFA68B6
:1013C000137843F0020313700EE0D7ED017ABFEEFD
:1013D000087AF4EEC77AF1EE10FA00D404E0FA6865
:1013E000137843F00803137000BF1437BD465DF84F
:1013F000047B704780B582B000AF38713B79C3F38E
:101400000003DBB21A462021144802F091FF3B7919
:10141000C3F34003DBB21A468021104802F088FF74
:101420003B79C3F38003DBB21A4601210C4802F07A
:101430007FFF3B79C3F3C003DBB21A4602210848A1
:1014400002F076FF074B1B78DBB21A4610210348E7
:1014500002F06EFF00BF0837BD4680BD00000240AD
:1014600000040240EB02002080B582B000AF0023F0
:101470007B601B4B1B6B1A4A43F480031363184BAE
:101480001B6B03F480037B607B6800233B60144B81
:101490001B6B134A43F400131363114B1B6B03F4D0
:1014A00000133B603B6800220021112002F00FF87E
:1014B000112002F028F8002200213A2002F007F85B
:1014C0003A2002F020F800220021452001F0FFFF21
:1014D000452002F018F800BF0837BD4680BD00BFA8
:1014E0000038024080B58AB000AF07F11403002233
:1014F0001A605A609A60DA601A6100233B614B4BB4
:101500001B6B4A4A43F004031363484B1B6B03F005
:1015100004033B613B690023FB60444B1B6B434A64
:1015200043F080031363414B1B6B03F08003FB60AC
:10153000FB680023BB603D4B1B6B3C4A43F001033F
:1015400013633A4B1B6B03F00103BB60BB680023C2
:101550007B60364B1B6B354A43F002031363334BFE
:101560001B6B03F002037B607B6800224FF4005189
:101570002F4802F0DDFE0022B0212E4802F0D8FEF6
:1015800000220B212C4802F0D3FE4FF400537B6164
:101590000123BB610023FB6100233B6207F11403BD
:1015A0001946234802F044FC01237B614FF4881361
:1015B000BB610223FB6107F1140319461D4802F0C9
:1015C00037FC02237B610023BB610023FB6107F131
:1015D00014031946174802F02BFCB0237B6101234A
:1015E000BB610023FB6100233B6207F11403194632
:1015F000104802F01DFC0B237B610123BB6100231B
:10160000FB6100233B6207F1140319460A4802F00C
:101610000FFC00220021062001F059FF062001F0F6
:1016200072FF00BF2837BD4680BD00BF00380240B2
:1016300000080240000002400004024080B500AFF4
:10164000124B134A1A60114B124A5A600F4B002278
:101650009A600E4B0022DA600C4B4FF480421A6104
:101660000A4B00225A61094B00229A61074B002263
:10167000DA61064B00221A62044802F0A5FE034616
:10168000002B01D000F0CEFC00BF80BD1002002076
:1016900000540040801A060080B500AF124B134A78
:1016A0001A60114B124A5A600F4B00229A600E4B7F
:1016B0000022DA600C4B4FF480421A610A4B002280
:1016C0005A61094B00229A61074B0022DA61064BEE
:1016D00000221A62044802F077FE0346002B01D074
:1016E00000F0A0FC00BF80BD64020020005C004050
:1016F000801A060080B58CB000AF786007F11C033B
:1017000000221A605A609A60DA601A617B681B686E
:10171000424A93422DD10023BB61414B1B6B404A8F
:1017200043F0020313633E4B1B6B03F00203BB61E8
:10173000BB694FF44073FB6112233B6200237B6261
:101740000323BB620423FB6207F11C0319463548DF
:1017500002F06EFB00237B61314B1B6C304A43F47B
:10176000001313642E4B1B6C03F400137B617B6925
:101770004FE07B681B682C4A93424AD100233B61AF
:10178000274B1B6B264A43F001031363244B1B6B4F
:1017900003F001033B613B690023FB60204B1B6BA3
:1017A0001F4A43F0020313631D4B1B6B03F002033C
:1017B000FB60FB684FF48073FB6112233B620023E4
:1017C0007B620323BB620423FB6207F11C031946FF
:1017D000164802F02DFB1023FB6112233B6200230D
:1017E0007B620323BB620923FB6207F11C031946DA
:1017F0000C4802F01DFB0023BB60094B1B6C084A20
:1018000043F400031364064B1B6C03F40003BB603A
:10181000BB6800BF3037BD4680BD00BF00540040EC
:101820000038024000040240005C0040000002401A
:1018300080B483B000AF78604FF06043D3F8803E4F
:1018400003F00103002B13D04FF06043D3F8003EA8
:1018500003F00103002B0BD000E000BF4FF060430A
:101860001B68002BF9D04FF060437A68D2B21A702F
:101870007B6818460C37BD465DF8047B7047000056
:1018800080B483B000AF7860044A7B68136000BF07
:101890000C37BD465DF8047B704700BFB8020020DE
:1018A00080B582B000AF78607B68184601F0ECFC30
:1018B00000BF0837BD4680BD80B588B002AF034683
:1018C0000A46FB711346BB71FB793B73BB797B7393
:1018D0005A4B186807F10C020A2300930223502187
:1018E00002F0B6FE0346FB75FB7D002B00F0A080E6
:1018F000FB7D012B03D1524807F026FC12E0FB7D53
:10190000032B03D14F4807F01FFC0BE0FB7D022B9C
:1019100003D14D4807F018FC04E0FB7D19464B4805
:1019200007F08CFB454B1B68184603F0E3FC38615D
:101930003B69002B7ED03B69012B03D1444807F063
:1019400003FC21E03B69022B03D1424807F0FCFB7A
:101950001AE03B69042B03D13F4807F0F5FB13E085
:101960003B69082B03D13D4807F0EEFB0CE03B69D7
:10197000102B03D13A4807F0E7FB05E03B69202B29
:1019800002D1384807F0E0FB2C4B1B68184603F0E7
:10199000A3FC0346FB73FB7B002B03D1324807F00B
:1019A000D3FB48E0FB7B202B03D12F4807F0CCFB77
:1019B00041E0FB7B242B03D12C4807F0C5FB3AE028
:1019C000FB7B212B03D12A4807F0BEFB33E0FB7BD6
:1019D000222B03D1274807F0B7FB2CE0FB7B282BF9
:1019E00003D1254807F0B0FB25E0FB7B292B03D171
:1019F000224807F0A9FB1EE0FB7B2A2B03D12048DD
:101A000007F0A2FB17E0FB7B602B03D11D4807F01A
:101A10009BFB10E0FB7BA02B03D11B4807F094FB42
:101A200009E0FB7BE02B06D1184807F08DFB02E0B4
:101A300000BF00E000BF1837BD4680BDB8020020DF
:101A400084B60008A8B60008D0B60008F4B60008AE
:101A50000CB7000820B7000834B7000848B70008E2
:101A60005CB7000870B7000888B70008A0B7000886
:101A7000B4B70008CCB70008E4B70008FCB700080A
:101A80001CB800083CB8000854B800086CB800083E
:101A900080B584B002AF03463960FB711346BB7159
:101AA0000B4B1868FA1D642300930123502102F0A8
:101AB000CFFD074B1868BB799BB2642200923A684D
:101AC000502102F0C3FE00BF0837BD4680BD00BFF5
:101AD000B80200202DE9F04FB5B00CAF01F062FB69
:101AE00000F0B8F9FFF7FEFCFFF7BEFCFFF7A6FD1C
:101AF00001F048F9FFF7D0FD00F098FF01F018F968
:101B000001F0ECF8B54801F0CBF801220821B44807
:101B100002F00EFCB34800F0D7FA00F019FBB2480F
:101B2000FFF7AEFEFFF75AFAFFF745FA41F28830A9
:101B300001F0AAFB64230122AC49AD4805F032FA5A
:101B40003722AC49AA4805F0CFFA64230122A749FD
:101B5000A74805F027FA01224FF40051A64802F0E9
:101B6000E7FB00BF0221A54802F0CAFB0346012B98
:101B7000F8D0A34804F01EFDA24B1B78DBB2002B6B
:101B80000BD1A14B1B889BB2B3F52F7F05D29F4B86
:101B900001221A709B4B01221A709D4B1B78DBB2FD
:101BA000002B73D0FFF786FBB0EE404AF0EE604AA0
:101BB000B0EE415AF0EE615AB0EE426AF0EE626A5F
:101BC000B0EE437AF0EE637A924B83ED004B83EDF7
:101BD000025B83ED046B83ED067B8E4BD3E90245FC
:101BE0008C4BD3E904238B49D1E90601CDE90201ED
:101BF000CDE9002322462B46874807F01FFA844B85
:101C000000221A7000F038FB00F03EFB53EC102B62
:101C100010461946FEF7D0FF0346804A136000F0D5
:101C2000AFFB53EC102B10461946FEF7C5FF0346D9
:101C30007B4A1360794B1B681846FEF78DFC0446FF
:101C40000D46774B1B681846FEF786FC02460B468E
:101C5000CDE9002322462B46724807F0EFF96D4B81
:101C6000D3E9022310461946FEF7A6FF0446694B46
:101C7000D3E9042310461946FEF79EFF034600EE03
:101C8000903A00EE104A6848FFF757FB674B1B7805
:101C9000DBB2002B4CD00023BB6007F10C03922277
:101CA0000021184606F058FD01F0E2FA0646594BAD
:101CB000D3E90245574BD3E90489564BD3E906AB28
:101CC000564B1B681846FEF747FCC7E90001544B0A
:101CD0001B681846FEF740FC02460B464A49098835
:101CE00089B207F108000A91CDE9082397ED007B3E
:101CF0008DED067BCDE904ABCDE90289CDE9004548
:101D000032464B4907F028FA07F108031846FEF758
:101D100067FA034687F89F3097F89F309AB207F129
:101D200008031946324805F0DFF9404B00221A70CB
:101D3000404B1B78DBB2002B00F083804FF4005146
:101D40002D4802F00EFB0023BB6007F10C0392222A
:101D50000021184606F000FD01F08AFA06462D4BD8
:101D6000D3E902452B4BD3E904892A4BD3E906ABCF
:101D70002A4B1B681846FEF7EFFBC7E90001284B0A
:101D80001B681846FEF7E8FB02460B461E49098809
:101D900089B207F108000A91CDE9082397ED007B8D
:101DA0008DED067BCDE904ABCDE90289CDE9004597
:101DB00032461F4907F0D0F907F108031846FEF72D
:101DC0000FFA034687F89E3097F89E309AB207F1D3
:101DD00008031946184805F087F92FE0640300202E
:101DE0000004024064020020100200200A000020CB
:101DF000D803002024B90008000802400000024077
:101E000010030020EC02002014000020EB02002050
:101E1000C4020020C802002084B80008BC020020D0
:101E2000C0020020A8B800080C020020E802002030
:101E3000C4B80008EA0200204C040020034B002232
:101E40001A70034B1878FFF7D5FA95E6EA020020DE
:101E50000C02002080B594B000AF07F120033022BF
:101E60000021184606F078FC07F10C0300221A60E6
:101E70005A609A60DA601A610023BB60274B1B6CC2
:101E8000264A43F080531364244B1B6C03F08053A9
:101E9000BB60BB6800237B60214B1B68204A43F476
:101EA000404313601E4B1B6803F440437B607B6818
:101EB00001233B624FF480337B620223BB634FF408
:101EC0008003FB630C233B6460237B640223BB64BD
:101ED0000523FB6407F12003184603F0C3FE034605
:101EE000002B01D000F09EF80F23FB6002233B6122
:101EF00000237B614FF48053BB610023FB6107F13A
:101F00000C030321184604F025F90346002B01D0E9
:101F100000F088F800BF5037BD4680BD0038024051
:101F20000070004080B582B000AF78607B681846D2
:101F3000FFF77EFC7B6818460837BD4680BD000071
:101F400080B483B000AF78607B68234A93423DD170
:101F5000224B01221A70224B1B78142B02D1214BE9
:101F600001221A701E4B1B78322B02D11E4B01220C
:101F70001A701B4B1B78642B08D11C4B01221A7062
:101F8000194B01221A70164B00221A70184B1B783D
:101F9000DBB2002B14D1174B1B78DBB2002B0FD117
:101FA000154B1B680133144A1360134B1B68B3F5C0
:101FB000967F05D10F4B01221A700D4B01221A702A
:101FC000074B1B780133DAB2054B1A7000BF0C3790
:101FD000BD465DF8047B704710030020C40200205A
:101FE0000B000020EA020020E8020020E9020020A5
:101FF000EC020020EB020020F002002080B483B04D
:1020000000AF0346FB80FB88012B02D1044B00226A
:102010001A7000BF0C37BD465DF8047B704700BFE7
:10202000EB02002080B400AF72B600BFFEE780B5BF
:1020300088B004AF7860084611461A460346FB7024
:102040000B46BB7013467B70FB789BB25B0099B26A
:10205000BB789AB27B789BB20A2002900193BB694D
:1020600000930123786802F011FF0346FB60FB68D0
:10207000002B00D000BFFB68DBB218461037BD460E
:1020800080BD80B586B004AF7860084611461A4618
:102090000346FB700B46BB7013467B70FB789BB20C
:1020A0005B0099B2BB789AB27B789BB20A2002900F
:1020B00001933B6900930123786802F0EDFD03462C
:1020C00018460837BD4680BD80B483B000AF786045
:1020D000044A7B68136000BF0C37BD465DF8047B83
:1020E000704700BF0803002080B584B002AF0346EC
:1020F0003A60FB710B46BB71074B1868B979FA79E6
:102100003B6800930B467721FFF791FF0346184683
:102110000837BD4680BD00BF0803002080B584B0ED
:1021200002AF03463A60FB710B46BB71074B186860
:10213000B979FA793B6800930B467721FFF7A1FF45
:10214000034618460837BD4680BD00BF080300207F
:1021500080B582B000AF00237B601AE07B68DBB201
:102160005B00DBB25E3BFB703A46FB78022118460F
:10217000FFF7BAFF3B781B021AB27B781BB21343FE
:102180001BB299B2074A7B6822F813107B680133AF
:102190007B607B68052BE1DD00BF00BF0837BD46D3
:1021A00080BD00BFF402002080B582B000AF154AA8
:1021B0003B1D1268114619800233120C1A70124B23
:1021C0001B785B005BB243F040035BB2DBB23A1DAD
:1021D00000211846FFF7A2FF0C2001F055F83B1D27
:1021E0001A4603210020FFF77FFF3B791A047B7911
:1021F0001B021343BA791343044A136000BF083724
:10220000BD4680BDE8B800080C0000200003002097
:1022100080B582B000AF154A3B1D12681146198087
:102220000233120C1A70124B1B785B005BB243F046
:1022300050035BB2DBB23A1D00211846FFF76EFF78
:102240000C2001F021F83B1D1A4603210020FFF766
:102250004BFF3B791A047B791B021343BA79134372
:10226000044A136000BF0837BD4680BDE8B80008C7
:102270000C0000200403002080B500AFFFF7C8FF6A
:10228000FFF792FF00BF80BDB0B586B000AF364B00
:102290001A68364B1B891B02D31AFB60F868FEF7DD
:1022A00039F904460D46314B5B891846FEF742F971
:1022B0004FF000022E4BFEF7D1FA02460B462046A5
:1022C0002946FEF7A1F902460B46104619464FF083
:1022D0000002284BFDF7E2FF02460B46C7E9002348
:1022E0004FF000024FF00003C7E904234FF0000253
:1022F000204BD7E90001FEF7F9FB0346002B16D06F
:10230000F868FEF707F904460D46F868FEF702F98B
:102310004FF00002184BFEF7A1FA02460B4620468A
:102320002946FEF771F902460B46C7E90423D7E9AF
:102330000423D7E90001FDF7AFFF02460B46C7E9CA
:1023400000234FF000020D4BD7E90001FEF786FA9B
:1023500002460B4643EC172BB0EE470AF0EE670A35
:102360001837BD46B0BD00BF04030020F4020020B2
:102370000000604100409F400000E04100005940E3
:102380002DE9B04390B000AFC34B1A68C34B1B8913
:102390001B02D31A7B62786AFEF7BCF804460D462E
:1023A000BE4B5B891846FEF7C5F84FF00002BC4BE8
:1023B000FEF754FA02460B4620462946FEF724F95A
:1023C00002460B46104619464FF00002B54BFDF78A
:1023D00065FF02460B46C7E90623B04B5B881B042A
:1023E0001A46AE4BDB8819467B6A01FB03F3DB0917
:1023F00013441846FEF78EF802460B46C7E904233D
:10240000A64B1B88DB031A46A44B9B8819467B6AA4
:1024100001FB03F31B0A13441846FEF77BF8024640
:102420000B46C7E90223A04B1B681846FEF772F85B
:10243000D7E90223FEF7E8F802460B461046194694
:102440004FF00002994BFEF709FA02460B46104680
:102450001946D7E90423FDF71FFF02460B46104635
:1024600019464FF00002924BFEF7F8F902460B4670
:10247000C7E900234FF000024FF00003C7E90E2325
:102480004FF000024FF00003C7E90C234FF00002A9
:102490004FF00003C7E90A234FF00002814BD7E950
:1024A0000601FEF723FB0346002B00F0CC807B6A7D
:1024B00003FB03F3DB0F0022984691464046494652
:1024C000FEF774F802460B46C7E90E234FF00002F0
:1024D000744BD7E90601FDF7DFFE02460B461046B6
:1024E00019464FF00002734BFEF78EF802460B467A
:1024F00014461D464FF000026A4BD7E90601FDF76E
:10250000CBFE02460B4620462946FEF77DF80246E2
:102510000B46104619464FF000024FF08043FEF77D
:102520009DF902460B46C7E90C234FF000025D4BB4
:10253000D7E90601FDF7B0FE02460B4610461946E4
:102540004FF000025B4BFEF75FF802460B46144665
:102550001D464FF00002534BD7E90601FDF79CFEE4
:1025600002460B4620462946FEF74EF802460B4629
:10257000104619464FF000024F4BFEF76FF9024626
:102580000B46C7E90A2340A3D3E90023D7E9060194
:10259000FEF7ACFA0346002B55D03DA3D3E9002348
:1025A000D7E90601FDF77AFE02460B4610461946AA
:1025B0004FF00002414BFEF727F802460B46144647
:1025C0001D4633A3D3E90023D7E90601FDF766FED4
:1025D00002460B4620462946FEF716F802460B46F1
:1025E000D7E90C01FDF75AFE02460B46C7E90C235A
:1025F00027A3D3E90023D7E90601FDF74FFE0246E2
:102600000B46104619464FF000022A4BFDF7FCFF1F
:1026100002460B4614461D461DA3D3E90023D7E905
:102620000601FDF73BFE02460B4620462946FDF714
:10263000EBFF02460B46D7E90A01FDF72FFE0246E3
:102640000B46C7E90A23D7E90E23D7E90601FDF7B0
:1026500023FE02460B46C7E90623D7E90C23D7E938
:102660000401FDF719FE02460B46C7E90423D7E92A
:102670000A23D7E90201FDF70FFE02460B46C7E920
:102680000223094B1B681BE000000000007097C08C
:10269000000000000070974004030020F4020020B6
:1026A0000000604100409F400003002000004041C6
:1026B0000000E040000014400000104000001C40FA
:1026C0001846FDF727FFD7E90223FDF79DFF0246D5
:1026D0000B46104619464FF00002154BFEF7BEF8A8
:1026E00002460B4610461946D7E90423FDF7D4FDF0
:1026F00002460B46104619464FF000020D4BFEF7FE
:10270000ADF802460B46C7E900234FF000020A4B22
:10271000D7E90001FEF7A2F802460B4643EC172B5F
:10272000B0EE470AF0EE670A4037BD46BDE8B08319
:10273000000040410000E0400000594080B483B0F8
:1027400000AF00237B60104B5B6C0F4A43F4804367
:1027500053640D4B5B6C03F480437B607B68002308
:102760003B60094B1B6C084A43F080531364064BD3
:102770001B6C03F080533B603B6800BF0C37BD46C9
:102780005DF8047B704700BF0038024080B400AFA2
:10279000FEE780B400AFFEE780B400AFFEE780B490
:1027A00000AFFEE780B400AFFEE780B400AF00BF2B
:1027B000BD465DF8047B704780B400AF00BFBD46E6
:1027C0005DF8047B704780B400AF00BFBD465DF884
:1027D000047B704780B500AF00F036FD00BF80BDC0
:1027E00080B500AF012001F0D7FD00BF80BD000023
:1027F00080B500AF024801F0A5F800BF80BD00BF62
:102800002005002080B500AF024803F035FF00BF6F
:1028100080BD00BF1003002080B500AF024804F067
:1028200091FD00BF80BD00BF6403002080B500AFF4
:10283000024804F087FD00BF80BD00BFD803002020
:1028400080B500AF024801F07DF800BF80BD00BF39
:10285000C004002080B500AF024801F073F800BF4B
:1028600080BD00BF8005002080B500AF024804F0A5
:1028700069FD00BF80BD00BF4C04002080B400AFE4
:1028800001231846BD465DF8047B704780B582B0D1
:1028900000AF7860396005F027FF034616221A6002
:1028A0004FF0FF3318460837BD4680BD80B582B073
:1028B00000AF78604FF0FF317868FFF7E7FFFEE781
:1028C00080B586B000AFF860B9607A6000237B61A4
:1028D0000AE0AFF300800146BB685A1CBA60CAB276
:1028E0001A707B6901337B617A697B689A42F0DBFD
:1028F0007B6818461837BD4680BD80B586B000AFEE
:10290000F860B9607A6000237B6109E0BB685A1CFB
:10291000BA601B781846FFF705FB7B6901337B61C2
:102920007A697B689A42F1DB7B6818461837BD46A6
:1029300080BD80B483B000AF78604FF0FF3318469D
:102940000C37BD465DF8047B704780B483B000AFA0
:10295000786039603B684FF400525A600023184693
:102960000C37BD465DF8047B704780B483B000AF80
:102970007860012318460C37BD465DF8047B70472C
:1029800080B485B000AFF860B9607A600023184663
:102990001437BD465DF8047B7047000080B586B0F3
:1029A00000AF7860144A154BD31A7B617B693B6199
:1029B000134B1B68002B02D1114B124A1A60104BAB
:1029C0001A687B6813443A699A4207D205F08CFE74
:1029D00003460C221A604FF0FF3309E0084B1B68D6
:1029E000FB60074B1A687B681344054A1360FB6859
:1029F00018461837BD4680BD0000022000040000C4
:102A00000C030020F805002080B400AF064BD3F87B
:102A10008830054A43F47003C2F8883000BFBD46D1
:102A20005DF8047B704700BF00ED00E080B586B024
:102A300000AF07F1080300221A605A609A60DA605A
:102A40003B4600221A605A601D4B1E4A1A601C4BFE
:102A500040F2E7325A601A4B00229A60184B40F25B
:102A6000E732DA60164B00221A61154B80229A6118
:102A7000134803F04FFD0346002B01D0FFF7D2FAB5
:102A80004FF48053BB6007F1080319460C4803F06C
:102A9000FBFE0346002B01D0FFF7C4FA00233B6086
:102AA00000237B603B461946054804F0F7F80346CF
:102AB000002B01D0FFF7B6FA00BF1837BD4680BD26
:102AC000100300200008004080B584B000AF78609B
:102AD0007B681B680E4A934215D10023FB600D4BA7
:102AE0001B6C0C4A43F0040313640A4B1B6C03F089
:102AF0000403FB60FB68002200211E2000F0E7FCBD
:102B00001E2000F000FD00BF1037BD4680BD00BF95
:102B10000008004000380240B0B584B000AF7860D3
:102B20000023FB607B681B681B68FB607B681B687D
:102B30005B68FB60FB68786804F084FB786800F0F1
:102B4000ABFA786800F048F9786804F0E9FE0446CA
:102B50007B689B6B184601F07FF805467B685B6BD2
:102B6000184601F079F803462A4621460B4806F03C
:102B700065FA0B4B00221A700A4B42F20F721A8050
:102B800000BF01220849786804F02CFB0346002BA3
:102B9000F7D100BF00BF1037BD46B0BDECB800088C
:102BA00061030020140000205803002080B582B08B
:102BB00000AF7860364B1B78DBB2002B23D1354B4E
:102BC0001B78DBB2592B0CBF01230023DBB21A4662
:102BD0002F4B1A702E4B1B78DBB2002B09D100BF94
:102BE00001222C49786804F0FDFA0346002BF7D146
:102BF0004BE000BF08222849786804F0F3FA034646
:102C0000002BF7D141E0234B1B78DBB2592B0CBFD3
:102C100001230023DBB21A461D4B1A701C4B1B7894
:102C2000DBB2002B06D01B4B5B78DBB2592B01D1FA
:102C3000012300E00023DAB2154B1A70144B1B7805
:102C4000DBB2002B09D100BF01221249786804F0E1
:102C5000C9FA0346002BF7D117E00E4BDB78DBB245
:102C60001B021AB20B4B9B78DBB21BB213431BB295
:102C70009AB20A4B1A8000BF09220649786804F00C
:102C800033FA0346002BF7D100BF0837BD4680BD9D
:102C90006103002058030020590300201400002085
:102CA00080B582B000AF7860094A0321786804F0EB
:102CB000D1F8084A0421786804F0CCF801220649CA
:102CC000786804F08FFA00BF0837BD4680BD00BFAA
:102CD000AD2B0008192B00085803002080B500AF69
:102CE000114B124A1A60104B4FF4E1325A600E4BEE
:102CF00000229A600C4B0022DA600B4B00221A6112
:102D0000094B0C225A61084B00229A61064B0022A3
:102D1000DA61054804F044F80346002B01D0FFF7C0
:102D200081F900BF80BD00BF640300200010014096
:102D300080B500AF114B124A1A60104B4FF4E132CC
:102D40005A600E4B00229A600C4B0022DA600B4B4B
:102D500000221A61094B0C225A61084B00229A6129
:102D6000064B0022DA61054804F01AF80346002BEE
:102D700001D0FFF757F900BF80BD00BFD803002086
:102D80000044004080B500AF114B124A1A60104B4E
:102D90004FF416525A600E4B00229A600C4B0022E0
:102DA000DA600B4B00221A61094B0C225A61084B66
:102DB00000229A61064B0022DA61054803F0F0FF19
:102DC0000346002B01D0FFF72DF900BF80BD00BFE7
:102DD0004C0400200014014080B58EB000AF786034
:102DE00007F1240300221A605A609A60DA601A61BF
:102DF0007B681B689D4A934263D100233B629C4BD6
:102E00005B6C9B4A43F010035364994B5B6C03F07B
:102E100010033B623B6A0023FB61954B1B6B944A9A
:102E200043F001031363924B1B6B03F00103FB613F
:102E3000FB694FF4C0637B620223BB620023FB6229
:102E400003233B6307237B6307F124031946894867
:102E500000F0EEFF884B894A1A60874B4FF0006202
:102E60005A60854B00229A60834B0022DA60824BC5
:102E70004FF480621A61804B00225A617E4B00221F
:102E80009A617D4B0022DA617B4B00221A627A4BF9
:102E900000225A62784800F05FFB0346002B01D005
:102EA000FFF7C0F87B68744A9A63734A7B68936340
:102EB00000220021252000F00AFB252000F023FB42
:102EC000CFE07B681B686E4A934262D10023BB61EE
:102ED000674B1B6C664A43F400331364644B1B6CF2
:102EE00003F40033BB61BB6900237B61604B1B6B48
:102EF0005F4A43F0010313635D4B1B6B03F0010357
:102F00007B617B690C237B620223BB620023FB6233
:102F100003233B6307237B6307F1240319465548CA
:102F200000F086FF574B584A1A60564B4FF000622C
:102F30005A60544B40229A60524B0022DA60514B47
:102F40004FF480621A614F4B00225A614D4B0022B0
:102F50009A614C4B0022DA614A4B00221A62494BBB
:102F600000225A62474800F0F7FA0346002B01D0CE
:102F7000FFF758F87B68434A5A63424A7B68936379
:102F800000220021262000F0A2FA262000F0BBFA41
:102F900067E07B681B683D4A934262D100233B6136
:102FA000334B5B6C324A43F020035364304B5B6C11
:102FB00003F020033B613B690023FB602C4B1B6B40
:102FC0002B4A43F001031363294B1B6B03F00103EE
:102FD000FB60FB684FF4C0537B620223BB6200239B
:102FE000FB6203233B6308237B6307F12403194639
:102FF000204800F01DFF264B264A1A60244B4FF054
:1030000020625A60224B40229A60214B0022DA60F3
:103010001F4B4FF480621A611D4B00225A611C4BFA
:1030200000229A611A4B0022DA61194B00221A62BF
:10303000174B00225A62164800F08EFA0346002B06
:1030400001D0FEF7EFFF7B68114A5A63104A7B6894
:10305000936300220021472000F039FA472000F056
:1030600052FA00BF3837BD4680BD00BF0010014096
:103070000038024000000240C004002040640240CA
:103080000044004020050020A060024000140140E0
:1030900080050020A064024080B582B000AF786057
:1030A0007B681B68254A934213D1254B5B6C244AED
:1030B00023F0100353644FF4C061224801F03CF840
:1030C0007B689B6B184600F0F5FA252000F029FA82
:1030D0002FE07B681B681C4A934212D1184B1B6C73
:1030E000174A23F4003313640C21164801F024F826
:1030F0007B685B6B184600F0DDFA262000F011FAC1
:1031000017E07B681B68114A934212D10C4B5B6C31
:103110000B4A23F0200353644FF4C051094801F0D7
:103120000BF87B685B6B184600F0C4FA472000F090
:10313000F8F900BF0837BD4680BD00BF0010014050
:1031400000380240000002400044004000140140EA
:10315000DFF834D00D480E490E4A002302E0D4585F
:10316000C4500433C4188C42F9D30B4A0B4C0023CF
:1031700001E013600432A242FBD3FFF745FC05F0E7
:10318000B9FAFEF7A7FC70470000022000000020FB
:10319000F001002064BD0008F0010020F4050020CB
:1031A000FEE7000080B500AF0E4B1B680D4A43F4EC
:1031B000007313600B4B1B680A4A43F4806313606F
:1031C000084B1B68074A43F480731360032000F028
:1031D00073F90F2000F008F8FFF7B0FA0023184643
:1031E00080BD00BF003C024080B582B000AF786077
:1031F000124B1A68124B1B7819464FF47A73B3FBC3
:10320000F1F3B2FBF3F3184600F099F90346002BF3
:1032100001D001230EE07B680F2B0AD800227968C9
:103220004FF0FF3000F053F9064A7B68136000232B
:1032300000E0012318460837BD4680BD100000207D
:103240001C0000201800002080B400AF064B1B7843
:103250001A46064B1B681344044A136000BFBD4660
:103260005DF8047B704700BF1C000020E0050020D3
:1032700080B400AF034B1B681846BD465DF8047B65
:10328000704700BFE005002080B584B000AF7860D3
:10329000FFF7EEFFB8607B68FB60FB68B3F1FF3FB0
:1032A00005D00A4B1B781A46FB681344FB6000BF2D
:1032B000FFF7DEFF0246BB68D31AFA689A42F7D8D6
:1032C00000BF00BF1037BD4680BD00BF1C000020FE
:1032D00080B485B000AF78607B6803F00703FB60C3
:1032E0000C4BDB68BB60BA684FF6FF031340BB6052
:1032F000FB681A02BB68134343F0BF6343F4003317
:10330000BB60044ABB68D36000BF1437BD465DF89C
:10331000047B704700ED00E080B400AF044BDB6835
:103320001B0A03F007031846BD465DF8047B70478F
:1033300000ED00E080B483B000AF0346FB7197F965
:103340000730002B0BDBFB7903F01F02074997F9CD
:1033500007305B09012000FA02F241F8232000BF88
:103360000C37BD465DF8047B704700BF00E100E00C
:1033700080B483B000AF0346FB7197F90730002B90
:1033800012DBFB7903F01F020A4997F907305B094A
:10339000012000FA02F2203341F82320BFF34F8FBF
:1033A00000BFBFF36F8F00BF00BF0C37BD465DF895
:1033B000047B704700E100E080B483B000AF0346B7
:1033C0003960FB7197F90730002B0ADB3B68DAB2F2
:1033D0000C4997F907301201D2B20B4483F800234D
:1033E0000AE03B68DAB20849FB7903F00F03043BBB
:1033F0001201D2B20B441A7600BF0C37BD465DF8FD
:10340000047B704700E100E000ED00E080B489B08B
:1034100000AFF860B9607A60FB6803F00703FB61F6
:10342000FB69C3F10703042B28BF0423BB61FB69BD
:103430000433062B02D9FB69033B00E000237B61C8
:103440004FF0FF32BB6902FA03F3DA43BB681A405C
:103450007B699A404FF0FF317B6901FA03F3D9434E
:103460007B680B40134318462437BD465DF8047B48
:103470007047000080B582B000AF78607B68013B88
:10348000B3F1807F01D301230FE00A4A7B68013B3F
:1034900053600F214FF0FF30FFF78EFF054B0022E6
:1034A0009A60044B07221A60002318460837BD466D
:1034B00080BD00BF10E000E080B582B000AF786052
:1034C0007868FFF705FF00BF0837BD4680BD80B5AF
:1034D00086B000AF0346B9607A60FB7300237B615E
:1034E000FFF71AFF78617A68B9687869FFF78EFF8D
:1034F000024697F90F3011461846FFF75DFF00BFEF
:103500001837BD4680BD80B582B000AF0346FB7161
:1035100097F907301846FFF70DFF00BF0837BD4683
:1035200080BD80B582B000AF0346FB7197F90730CC
:103530001846FFF71DFF00BF0837BD4680BD80B5A8
:1035400082B000AF78607868FFF794FF03461846B2
:103550000837BD4680BD000080B586B000AF7860FA
:1035600000237B61FFF784FE38617B68002B01D16B
:10357000012399E07B68022283F835207B680022D2
:1035800083F834207B681B681A687B681B6822F00C
:1035900001021A600FE0FFF76BFE02463B69D31A87
:1035A000052B08D97B6820225A657B68032283F8A3
:1035B0003520032378E07B681B681B6803F0010358
:1035C000002BE8D17B681B681B687B617A69384BEC
:1035D00013407B617B685A687B689B681A437B68F1
:1035E000DB681A437B681B691A437B685B691A4373
:1035F0007B689B691A437B68DB691A437B681B6A9B
:1036000013437A6913437B617B685B6A042B07D1A0
:103610007B68DA6A7B681B6B13437A6913437B61AF
:103620007B681B687A691A607B681B685B697B61D1
:103630007B6923F007037B617B685B6A7A691343CC
:103640007B617B685B6A042B17D17B689B6A7A6914
:1036500013437B617B68DB6A002B0ED0786800F037
:103660006BFB0346002B08D07B6840225A657B68C1
:10367000012283F83520012316E07B681B687A69F4
:103680005A61786800F022FB0346FB607B68DB6DC3
:103690003F229A40FB689A607B6800225A657B68EB
:1036A000012283F83520002318461837BD4680BD17
:1036B0003F8010F080B584B000AF78607B68002B4D
:1036C00001D1012350E07B6893F83530DBB2022B47
:1036D00001D1022348E07B681B681A687B681B687D
:1036E00022F001021A607B681B6800221A607B6866
:1036F0001B6800225A607B681B6800229A607B6806
:103700001B680022DA607B681B6800221A617B68F4
:103710001B6821225A61786800F0D8FA0346FB60E2
:103720007B680022DA637B6800221A647B680022CF
:103730005A647B6800229A647B680022DA647B68A2
:1037400000221A657B68DB6D3F229A40FB689A6015
:103750007B6800225A657B68002283F835207B68ED
:10376000002283F83420002318461037BD4680BD60
:1037700080B586B000AFF860B9607A603B60002326
:10378000FB75FB689B6D3B61FB6893F83430012B44
:1037900001D1022340E0FB68012283F83420FB685A
:1037A00093F83530DBB2012B2FD1FB68022283F86E
:1037B0003520FB6800225A653B687A68B968F8686A
:1037C00000F056FAFB68DB6D3F229A403B699A6035
:1037D000FB681B681A68FB681B6842F016021A60D7
:1037E000FB681B6C002B07D0FB681B681A68FB6822
:1037F0001B6842F008021A60FB681B681A68FB68C5
:103800001B6842F001021A6005E0FB68002283F8A1
:1038100034200223FB75FB7D18461837BD4680BD5A
:1038200080B584B000AF78607B689B6DFB60FFF76C
:103830001FFDB8607B6893F83530DBB2022B08D0EF
:103840007B6880225A657B68002283F8342001233C
:1038500052E07B681B681A687B681B6822F01602BE
:103860001A607B681B685A697B681B6822F08002BB
:103870005A617B681B6C002B03D17B689B6C002B0F
:1038800007D07B681B681A687B681B6822F00802F7
:103890001A607B681B681A687B681B6822F001024B
:1038A0001A6013E0FFF7E4FC0246BB68D31A052B4D
:1038B0000CD97B6820225A657B68032283F8352067
:1038C0007B68002283F83420032315E07B681B68A3
:1038D0001B6803F00103002BE4D17B68DB6D3F2202
:1038E0009A40FB689A607B68012283F835207B68E8
:1038F000002283F83420002318461037BD4680BDCF
:1039000080B483B000AF78607B6893F83530DBB269
:10391000022B04D07B6880225A6501230CE07B686F
:10392000052283F835207B681B681A687B681B6852
:1039300022F001021A60002318460C37BD465DF8DC
:10394000047B704780B586B000AF78600023BB6011
:103950008E4B1B688E4AA2FB03239B0A7B617B680C
:103960009B6D3B613B691B68FB607B68DB6D0822DC
:103970009A40FB681340002B1AD07B681B681B68B9
:1039800003F00403002B13D07B681B681A687B6864
:103990001B6822F004021A607B68DB6D08229A40E3
:1039A0003B699A607B685B6D43F001027B685A65F6
:1039B0007B68DB6D01229A40FB681340002B12D01C
:1039C0007B681B685B6903F08003002B0BD07B686E
:1039D000DB6D01229A403B699A607B685B6D43F026
:1039E00002027B685A657B68DB6D04229A40FB68A3
:1039F0001340002B12D07B681B681B6803F0020386
:103A0000002B0BD07B68DB6D04229A403B699A60E7
:103A10007B685B6D43F004027B685A657B68DB6DF5
:103A200010229A40FB681340002B43D07B681B6830
:103A30001B6803F00803002B3CD07B68DB6D102271
:103A40009A403B699A607B681B681B6803F480237B
:103A5000002B18D07B681B681B6803F40023002B25
:103A600008D17B681B6C002B24D07B681B6C7868AA
:103A700098471FE07B689B6C002B1BD07B689B6C7E
:103A80007868984716E07B681B681B6803F48073AE
:103A9000002B07D17B681B681A687B681B6822F0C3
:103AA00008021A607B681B6C002B03D07B681B6CC0
:103AB000786898477B68DB6D20229A40FB6813404A
:103AC000002B00F08F807B681B681B6803F01003DD
:103AD000002B00F087807B68DB6D20229A403B69D9
:103AE0009A607B6893F83530DBB2052B36D17B6862
:103AF0001B681A687B681B6822F016021A607B68D4
:103B00001B685A697B681B6822F080025A617B68D7
:103B10001B6C002B03D17B689B6C002B07D07B6850
:103B20001B681A687B681B6822F008021A607B68B1
:103B3000DB6D3F229A403B699A607B68012283F8E3
:103B400035207B68002283F834207B681B6D002BB6
:103B50007ED07B681B6D7868984779E07B681B682E
:103B60001B6803F48023002B1DD07B681B681B6837
:103B700003F40023002B0DD17B685B6C002B31D04C
:103B80007B685B6C786898472CE000BF10000020D1
:103B9000B5814E1B7B68DB6B002B23D07B68DB6B16
:103BA000786898471EE07B681B681B6803F4807385
:103BB000002B0FD17B681B681A687B681B6822F09A
:103BC00010021A607B68012283F835207B6800228E
:103BD00083F834207B68DB6B002B03D07B68DB6BC6
:103BE000786898477B685B6D002B32D07B685B6D93
:103BF00003F00103002B22D07B68052283F83520D7
:103C00007B681B681A687B681B6822F001021A60D7
:103C1000BB680133BB607A699A4207D37B681B6833
:103C20001B6803F00103002BF2D100E000BF7B68AA
:103C3000012283F835207B68002283F834207B68DA
:103C4000DB6C002B05D07B68DB6C7868984700E064
:103C500000BF1837BD4680BD80B483B000AF786028
:103C60007B685B6D18460C37BD465DF8047B70477A
:103C700080B485B000AFF860B9607A603B60FB68E3
:103C80001B681A68FB681B6822F480221A60FB68B4
:103C90001B683A685A60FB689B68402B08D1FB6838
:103CA0001B687A689A60FB681B68BA68DA6007E08C
:103CB000FB681B68BA689A60FB681B687A68DA6000
:103CC00000BF1437BD465DF8047B704780B485B0F3
:103CD00000AF78607B681B68DBB2103B144AA2FB24
:103CE00003231B09FB60134AFB6813441B781A4625
:103CF0007B68DA65FB68032B09D97B681B6823F4B2
:103D00007F7323F003031A1D7B689A6507E07B68C5
:103D10001B6823F47F7323F003037A6893657B6841
:103D20009B6D18461437BD465DF8047B704700BF95
:103D3000ABAAAAAA74B9000880B485B000AF7860B5
:103D40000023FB737B689B6ABB607B689B69002BCD
:103D50001FD1BB68032B56D801A252F823F000BF35
:103D6000713D0008833D0008713D0008073E0008D2
:103D70007B68DB6A03F08073002B46D00123FB7362
:103D800043E07B68DB6AB3F1C07F40D10123FB7362
:103D90003DE07B689B69B3F5005F21D1BB68032BD5
:103DA00037D801A252F823F0B93D0008BF3D000802
:103DB000B93D0008D13D00080123FB7330E07B686A
:103DC000DB6A03F08073002B25D00123FB7322E014
:103DD0007B68DB6AB3F1C07F1FD10123FB731CE05A
:103DE000BB68022B03D9BB68032B03D018E0012367
:103DF000FB7315E07B68DB6A03F08073002B0ED049
:103E00000123FB730BE000BF0AE000BF08E000BF26
:103E100006E000BF04E000BF02E000BF00E000BF1A
:103E2000FB7B18461437BD465DF8047B704700BF26
:103E300080B489B000AF7860396000237B610023D3
:103E40003B610023BB610023FB6159E10122FB6957
:103E500002FA03F37B613B681B687A6913403B619C
:103E60003A697B699A4240F048813B685B6803F09D
:103E70000303012B05D03B685B6803F00303022BAF
:103E800030D17B689B68BB61FB695B00032202FA4F
:103E900003F3DB43BA691340BB613B68DA68FB6933
:103EA0005B0002FA03F3BA691343BB617B68BA692A
:103EB0009A607B685B68BB610122FB6902FA03F3CD
:103EC000DB43BA691340BB613B685B681B0903F0C5
:103ED0000102FB6902FA03F3BA691343BB617B6811
:103EE000BA695A603B685B6803F00303032B17D081
:103EF0007B68DB68BB61FB695B00032202FA03F3AA
:103F0000DB43BA691340BB613B689A68FB695B009D
:103F100002FA03F3BA691343BB617B68BA69DA60DA
:103F20003B685B6803F00303022B23D1FB69DA08CB
:103F30007B68083253F82230BB61FB6903F007034A
:103F40009B000F2202FA03F3DB43BA691340BB6103
:103F50003B681A69FB6903F007039B0002FA03F34D
:103F6000BA691343BB61FB69DA087B680832B96937
:103F700043F822107B681B68BB61FB695B0003226E
:103F800002FA03F3DB43BA691340BB613B685B6829
:103F900003F00302FB695B0002FA03F3BA691343FF
:103FA000BB617B68BA691A603B685B6803F44033A5
:103FB000002B00F0A2800023FB60574B5B6C564A3D
:103FC00043F480435364544B5B6C03F48043FB60C5
:103FD000FB68524AFB699B08023352F82330BB61ED
:103FE000FB6903F003039B000F2202FA03F3DB4398
:103FF000BA691340BB617B68494A934219D07B6818
:10400000484A934213D07B68474A93420DD07B685D
:10401000464A934207D07B68454A934201D1042324
:1040200008E0072306E0032304E0022302E0012363
:1040300000E00023FA6902F0030292009340BA699B
:104040001343BB613549FB699B080233BA6941F8E8
:104050002320384B9B68BB613B69DB43BA69134043
:10406000BB613B685B6803F48013002B03D0BA6923
:104070003B691343BB612F4ABB6993602D4BDB68DF
:10408000BB613B69DB43BA691340BB613B685B685A
:1040900003F40013002B03D0BA693B691343BB61DF
:1040A000244ABB69D360234B5B68BB613B69DB433C
:1040B000BA691340BB613B685B6803F40033002BB3
:1040C00003D0BA693B691343BB611A4ABB695360A9
:1040D000184B1B68BB613B69DB43BA691340BB618A
:1040E0003B685B6803F48033002B03D0BA693B69FB
:1040F0001343BB610F4ABB691360FB690133FB616A
:10410000FB690F2B7FF6A2AE00BF00BF2437BD4670
:104110005DF8047B704700BF003802400038014062
:10412000000002400004024000080240000C02406F
:1041300000100240003C014080B487B000AF7860BE
:10414000396000233B610023FB600023BB60002338
:104150007B61BBE001227B6902FA03F33B613A68B1
:104160003B691340FB60FA683B699A4240F0AB80C0
:104170005C4A7B699B08023352F82330BB607B6941
:1041800003F003039B000F2202FA03F3BA68134003
:10419000BB607B68544A934219D07B68534A934270
:1041A00013D07B68524A93420DD07B68514A9342A8
:1041B00007D07B68504A934201D1042308E00723CB
:1041C00006E0032304E0022302E0012300E00023D1
:1041D0007A6902F0030292009340BA689A4232D19F
:1041E000464B1A68FB68DB43444913400B60434B62
:1041F0005A68FB68DB43414913404B603F4BDA6828
:10420000FB68DB433D491340CB603C4B9A68FB683D
:10421000DB433A4913408B607B6903F003039B0047
:104220000F2202FA03F3BB602E4A7B699B0802331C
:1042300052F82310BB68DA432A487B699B080A407E
:10424000023340F823207B681A687B695B000321F6
:1042500001FA03F3DB431A407B681A607B69DA08D2
:104260007B68083253F822107B6903F007039B0038
:104270000F2202FA03F3DB437A69D20819407B6804
:10428000083243F822107B68DA687B695B000321FF
:1042900001FA03F3DB431A407B68DA607B685A68F3
:1042A00001217B6901FA03F3DB431A407B685A6002
:1042B0007B689A687B695B00032101FA03F3DB43A7
:1042C0001A407B689A607B6901337B617B690F2BA5
:1042D0007FF640AF00BF00BF1C37BD465DF8047BD2
:1042E000704700BF00380140000002400004024057
:1042F00000080240000C024000100240003C014057
:1043000080B485B000AF78600B467B807B681A690B
:104310007B881340002B02D00123FB7301E00023B4
:10432000FB73FB7B18461437BD465DF8047B704772
:1043300080B483B000AF78600B467B8013467B70FF
:104340007B78002B03D07A887B689A6103E07B88B6
:104350001A047B689A6100BF0C37BD465DF8047B88
:10436000704780B485B000AF78600B467B807B6877
:104370005B69FB607A88FB6813401A04FB68D943C9
:104380007B880B401A437B689A6100BF1437BD4697
:104390005DF8047B7047000080B582B000AF034633
:1043A000FB80084B5A69FB881340002B06D0054A56
:1043B000FB885361FB881846FDF720FE00BF0837D5
:1043C000BD4680BD003C014080B584B000AF786040
:1043D0007B68002B01D101232BE17B6893F83D30F2
:1043E000DBB2002B06D17B68002283F83C20786882
:1043F000FDF780F97B68242283F83D207B681B68E9
:104400001A687B681B6822F001021A607B681B68CF
:104410001A687B681B6842F400421A607B681B685C
:104420001A687B681B6822F400421A6002F04AF89E
:10443000F8607B685B68814A934207D8FB68804AD2
:10444000934294BF01230023DBB206E0FB687D4A60
:10445000934294BF01230023DBB2002B01D0012340
:10446000E7E0FB68784AA2FB03239B0CBB607B68F8
:104470001B685B6823F03F017B681B68BA680A43CE
:104480005A607B681B681B6A23F03F017B685B688E
:104490006A4A934202D8BB68013309E0BB684FF413
:1044A000967202FB03F3694AA2FB03239B090133C3
:1044B0007A6812680B4313627B681B68DB6923F41C
:1044C0004F4222F0FF027B685B685C498B4219D83F
:1044D000FB68591E7B685B685B00B1FBF3F3591CFA
:1044E00040F6FC730B40002B0AD0FB68591E7B681A
:1044F0005B685B00B1FBF3F30133C3F30B0351E0E3
:1045000004234FE07B689B68002B11D1FB68581E89
:104510007B6859680B465B000B44B0FBF3F3013337
:10452000C3F30B03002B0CBF01230023DBB212E00B
:10453000FB68581E7B6859680B469B000B4499002A
:104540000B44B0FBF3F30133C3F30B03002B0CBF9D
:1045500001230023DBB2002B01D0012322E07B6882
:104560009B68002B0ED1FB68581E7B6859680B4670
:104570005B000B44B0FBF3F30133C3F30B0343F4D1
:1045800000430FE0FB68581E7B6859680B469B0090
:104590000B4499000B44B0FBF3F30133C3F30B035B
:1045A00043F44043796809681343CB617B681B6817
:1045B0001B6823F0C0017B68DA697B681B6A1A43B9
:1045C0007B681B680A431A607B681B689B6823F43E
:1045D000034323F0FF037A6811697A68D2681143B4
:1045E0007A6812680B4393607B681B68DB6823F072
:1045F000FF017B685A697B689B691A437B681B686B
:104600000A43DA607B681B681A687B681B6842F0A3
:1046100001021A607B6800221A647B68202283F8FA
:104620003D207B6800221A637B68002283F83E20CD
:10463000002318461037BD4680BD00BFA08601008C
:104640007F841E00FF083D0083DE1B43D34D6210B4
:1046500080B588B002AFF8607A601A460B467B815D
:1046600013463B81FEF704FE7861FB6893F83D300A
:10467000DBB2202B40F0E0807B69009319230122FC
:104680007049F86801F010F90346002B01D00223AD
:10469000D3E0FB6893F83C30012B01D10223CCE03E
:1046A000FB68012283F83C20FB681B681B6803F051
:1046B0000103012B07D0FB681B681A68FB681B68A5
:1046C00042F001021A60FB681B681A68FB681B68ED
:1046D00022F400621A60FB68212283F83D20FB6807
:1046E000102283F83E20FB6800221A64FB687A6877
:1046F0005A62FB683A895A85FB685B8D9AB2FB68FF
:104700001A85FB68504ADA6279897B693A6AF868E7
:1047100000F0FCFD0346002B01D001238DE00023B7
:104720003B61FB681B685B693B61FB681B689B69BD
:104730003B613B6966E07A69396AF86801F08AF999
:104740000346002B0DD0FB681B6C042B07D1FB68C4
:104750001B681A68FB681B6842F400721A60012328
:104760006BE0FB685B6A1A78FB681B681A61FB6880
:104770005B6A5A1CFB685A62FB685B8D9BB2013B0B
:104780009AB2FB685A85FB681B8D013B9AB2FB68A5
:104790001A85FB681B685B6903F00403042B1BD1BB
:1047A000FB681B8D002B17D0FB685B6A1A78FB68CF
:1047B0001B681A61FB685B6A5A1CFB685A62FB68DB
:1047C0005B8D9BB2013B9AB2FB685A85FB681B8DDF
:1047D000013B9AB2FB681A857A69396AF86801F078
:1047E0007AF90346002B0DD0FB681B6C042B07D114
:1047F000FB681B681A68FB681B6842F400721A6049
:1048000001231AE0FB681B8D002B94D1FB681B6809
:104810001A68FB681B6842F400721A60FB68202269
:1048200083F83D20FB68002283F83E20FB680022CD
:1048300083F83C20002300E0022318461837BD46C9
:1048400080BD00BF020010000000FFFF80B58CB0EB
:1048500002AFF8607A601A460B467B8113463B81B3
:10486000FEF706FD7862FB6893F83D30DBB2202B43
:1048700040F00B827B6A0093192301227C49F8687F
:1048800001F012F80346002B01D00223FEE1FB6881
:1048900093F83C30012B01D10223F7E1FB680122A0
:1048A00083F83C20FB681B681B6803F00103012BA5
:1048B00007D0FB681B681A68FB681B6842F001029E
:1048C0001A60FB681B681A68FB681B6822F40062A8
:1048D0001A60FB68222283F83D20FB68102283F8CF
:1048E0003E20FB6800221A64FB687A685A62FB6803
:1048F0003A895A85FB685B8D9AB2FB681A85FB681A
:104900005C4ADA6279897B6A3A6BF86800F080FD6C
:104910000346002B01D00123B8E1FB681B8D002B5F
:1049200013D100233B62FB681B685B693B62FB6839
:104930001B689B693B623B6AFB681B681A68FB68E3
:104940001B6842F400721A608CE1FB681B8D012B1E
:104950001BD1FB681B681A68FB681B6822F4806225
:104960001A600023FB61FB681B685B69FB61FB68E5
:104970001B689B69FB61FB69FB681B681A68FB6825
:104980001B6842F400721A606CE1FB681B8D022BFD
:104990001BD1FB681B681A68FB681B6822F48062E5
:1049A0001A60FB681B681A68FB681B6842F40062A7
:1049B0001A600023BB61FB681B685B69BB61FB6815
:1049C0001B689B69BB61BB694CE1FB681B681A688B
:1049D000FB681B6842F480621A6000237B61FB68FD
:1049E0001B685B697B61FB681B689B697B617B69FA
:1049F00038E1FB681B8D032B00F2F180FB681B8DF7
:104A0000012B23D17A6A396BF86801F0A5F80346C7
:104A1000002B01D0012339E1FB681B681A69FB6890
:104A20005B6AD2B21A70FB685B6A5A1CFB685A62F6
:104A3000FB681B8D013B9AB2FB681A85FB685B8D96
:104A40009BB2013B9AB2FB685A850BE1FB681B8D58
:104A5000022B4ED17B6A00933B6B00220649F8681B
:104A600000F022FF0346002B08D001230EE100BF17
:104A7000020010000000FFFF04000100FB681B683B
:104A80001A68FB681B6842F400721A60FB681B68B6
:104A90001A69FB685B6AD2B21A70FB685B6A5A1CBF
:104AA000FB685A62FB681B8D013B9AB2FB681A8552
:104AB000FB685B8D9BB2013B9AB2FB685A85FB6831
:104AC0001B681A69FB685B6AD2B21A70FB685B6A82
:104AD0005A1CFB685A62FB681B8D013B9AB2FB684B
:104AE0001A85FB685B8D9BB2013B9AB2FB685A85C5
:104AF000B8E07B6A00933B6B00226649F86800F0DF
:104B0000D3FE0346002B01D00123BFE0FB681B68E6
:104B10001A68FB681B6822F480621A60FB681B68D5
:104B20001A69FB685B6AD2B21A70FB685B6A5A1C2E
:104B3000FB685A62FB681B8D013B9AB2FB681A85C1
:104B4000FB685B8D9BB2013B9AB2FB685A857B6A1E
:104B500000933B6B00224F49F86800F0A5FE034626
:104B6000002B01D0012391E0FB681B681A68FB68E9
:104B70001B6842F400721A60FB681B681A69FB68C4
:104B80005B6AD2B21A70FB685B6A5A1CFB685A6295
:104B9000FB681B8D013B9AB2FB681A85FB685B8D35
:104BA0009BB2013B9AB2FB685A85FB681B681A6985
:104BB000FB685B6AD2B21A70FB685B6A5A1CFB68BE
:104BC0005A62FB681B8D013B9AB2FB681A85FB6831
:104BD0005B8D9BB2013B9AB2FB685A8542E07A6AD0
:104BE000396BF86800F0B8FF0346002B01D00123B1
:104BF0004CE0FB681B681A69FB685B6AD2B21A70EA
:104C0000FB685B6A5A1CFB685A62FB681B8D013BA0
:104C10009AB2FB681A85FB685B8D9BB2013B9AB226
:104C2000FB685A85FB681B685B6903F00403042B6F
:104C300018D1FB681B681A69FB685B6AD2B21A70EC
:104C4000FB685B6A5A1CFB685A62FB681B8D013B60
:104C50009AB2FB681A85FB685B8D9BB2013B9AB2E6
:104C6000FB685A85FB681B8D002B7FF4C2AEFB6886
:104C7000202283F83D20FB68002283F83E20FB6859
:104C8000002283F83C20002300E002231846283746
:104C9000BD4680BD0400010080B588B002AFF86059
:104CA000084611461A4603467B810B463B81134654
:104CB000FB80FEF7DDFA7861FB6893F83D30DBB2EC
:104CC000202B40F0D9807B690093192301226D4984
:104CD000F86800F0E9FD0346002B01D00223CCE088
:104CE000FB6893F83C30012B01D10223C5E0FB683F
:104CF000012283F83C20FB681B681B6803F001035A
:104D0000012B07D0FB681B681A68FB681B6842F020
:104D100001021A60FB681B681A68FB681B6822F4B2
:104D200000621A60FB68212283F83D20FB68402264
:104D300083F83E20FB6800221A64FB683A6A5A62D4
:104D4000FB68BA8C5A85FB685B8D9AB2FB681A8542
:104D5000FB684D4ADA62F8883A8979897B69019360
:104D6000BB6A00930346F86800F020FC0346002B62
:104D700052D0012381E07A69B96AF86800F06AFECE
:104D80000346002B0DD0FB681B6C042B07D1FB687E
:104D90001B681A68FB681B6842F400721A600123E2
:104DA0006BE0FB685B6A1A78FB681B681A61FB683A
:104DB0005B6A5A1CFB685A62FB681B8D013B9AB206
:104DC000FB681A85FB685B8D9BB2013B9AB2FB685E
:104DD0005A85FB681B685B6903F00403042B1BD135
:104DE000FB681B8D002B17D0FB685B6A1A78FB6889
:104DF0001B681A61FB685B6A5A1CFB685A62FB6895
:104E00001B8D013B9AB2FB681A85FB685B8D9BB2D8
:104E1000013B9AB2FB685A85FB681B8D002BAAD117
:104E20007A69B96AF86800F056FE0346002B0DD087
:104E3000FB681B6C042B07D1FB681B681A68FB68B6
:104E40001B6842F400721A60012316E0FB681B68BD
:104E50001A68FB681B6842F400721A60FB68202223
:104E600083F83D20FB68002283F83E20FB68002287
:104E700083F83C20002300E0022318461837BD4683
:104E800080BD00BF020010000000FFFF80B58CB0A5
:104E900002AFF860084611461A4603467B810B466E
:104EA0003B811346FB80FEF7E3F97862FB6893F8D9
:104EB0003D30DBB2202B40F008827B6A009319233F
:104EC00001227B49F86800F0EFFC0346002B01D07B
:104ED0000223FBE1FB6893F83C30012B01D1022354
:104EE000F4E1FB68012283F83C20FB681B681B6827
:104EF00003F00103012B07D0FB681B681A68FB68ED
:104F00001B6842F001021A60FB681B681A68FB68A4
:104F10001B6822F400621A60FB68222283F83D209D
:104F2000FB68402283F83E20FB6800221A64FB687D
:104F30003A6B5A62FB68BA8E5A85FB685B8D9AB2EF
:104F4000FB681A85FB685B4ADA62F8883A897989D6
:104F50007B6A0193BB6B00930346F86800F0BCFBCF
:104F60000346002B01D00123B0E1FB681B8D002B11
:104F700013D100233B62FB681B685B693B62FB68E3
:104F80001B689B693B623B6AFB681B681A68FB688D
:104F90001B6842F400721A6084E1FB681B8D012BD0
:104FA0001BD1FB681B681A68FB681B6822F48062CF
:104FB0001A600023FB61FB681B685B69FB61FB688F
:104FC0001B689B69FB61FB69FB681B681A68FB68CF
:104FD0001B6842F400721A6064E1FB681B8D022BAF
:104FE0001BD1FB681B681A68FB681B6822F480628F
:104FF0001A60FB681B681A68FB681B6842F4006251
:105000001A600023BB61FB681B685B69BB61FB68BE
:105010001B689B69BB61BB6944E100237B61FB6842
:105020001B685B697B61FB681B689B697B617B69B3
:1050300038E1FB681B8D032B00F2F180FB681B8DB0
:10504000012B23D17A6AB96BF86800F085FD03461D
:10505000002B01D0012339E1FB681B681A69FB684A
:105060005B6AD2B21A70FB685B6A5A1CFB685A62B0
:10507000FB681B8D013B9AB2FB681A85FB685B8D50
:105080009BB2013B9AB2FB685A850BE1FB681B8D12
:10509000022B4ED17B6A0093BB6B00220649F86855
:1050A00000F002FC0346002B08D001230EE100BFF4
:1050B000020010000000FFFF04000100FB681B68F5
:1050C0001A68FB681B6842F400721A60FB681B6870
:1050D0001A69FB685B6AD2B21A70FB685B6A5A1C79
:1050E000FB685A62FB681B8D013B9AB2FB681A850C
:1050F000FB685B8D9BB2013B9AB2FB685A85FB68EB
:105100001B681A69FB685B6AD2B21A70FB685B6A3B
:105110005A1CFB685A62FB681B8D013B9AB2FB6804
:105120001A85FB685B8D9BB2013B9AB2FB685A857E
:10513000B8E07B6A0093BB6B00226649F86800F018
:10514000B3FB0346002B01D00123BFE0FB681B68C3
:105150001A68FB681B6822F480621A60FB681B688F
:105160001A69FB685B6AD2B21A70FB685B6A5A1CE8
:10517000FB685A62FB681B8D013B9AB2FB681A857B
:10518000FB685B8D9BB2013B9AB2FB685A857B6AD8
:105190000093BB6B00224F49F86800F085FB034683
:1051A000002B01D0012391E0FB681B681A68FB68A3
:1051B0001B6842F400721A60FB681B681A69FB687E
:1051C0005B6AD2B21A70FB685B6A5A1CFB685A624F
:1051D000FB681B8D013B9AB2FB681A85FB685B8DEF
:1051E0009BB2013B9AB2FB685A85FB681B681A693F
:1051F000FB685B6AD2B21A70FB685B6A5A1CFB6878
:105200005A62FB681B8D013B9AB2FB681A85FB68EA
:105210005B8D9BB2013B9AB2FB685A8542E07A6A89
:10522000B96BF86800F098FC0346002B01D001230D
:105230004CE0FB681B681A69FB685B6AD2B21A70A3
:10524000FB685B6A5A1CFB685A62FB681B8D013B5A
:105250009AB2FB681A85FB685B8D9BB2013B9AB2E0
:10526000FB685A85FB681B685B6903F00403042B29
:1052700018D1FB681B681A69FB685B6AD2B21A70A6
:10528000FB685B6A5A1CFB685A62FB681B8D013B1A
:105290009AB2FB681A85FB685B8D9BB2013B9AB2A0
:1052A000FB685A85FB681B8D002B7FF4C2AEFB6840
:1052B000202283F83D20FB68002283F83E20FB6813
:1052C000002283F83C20002300E002231846283700
:1052D000BD4680BD0400010080B483B000AF78609B
:1052E0007B6893F83D30DBB218460C37BD465DF85D
:1052F000047B704780B483B000AF78607B681B6C20
:1053000018460C37BD465DF8047B704780B588B001
:1053100002AFF8607A603B600B467B81FB68DB6A1A
:105320007B617B69082B06D07B69012B03D07B69ED
:1053300013F5803F08D1FB681B681A68FB681B687F
:1053400042F480721A600BE0FB681B6B122B07D1D2
:10535000FB681B681A68FB681B6842F480721A605D
:105360003B6800937B6800224FF00111F86800F061
:105370009BFA0346002B0DD0FB681B681B6803F4E7
:105380008073B3F5807F03D1FB684FF400721A6419
:10539000032335E0FB681B69B3F5804F08D17B8997
:1053A000DBB21A46FB681B6802F0FE021A611BE0C2
:1053B0007B89DB11DBB203F00603DBB263F00F0382
:1053C000DAB2FB681B681A613B687A680E49F868B4
:1053D00000F0C1FA0346002B01D0012310E07B89C5
:1053E000DAB2FB681B681A613B687A680749F8689B
:1053F00000F0B1FA0346002B01D0012300E00023A6
:1054000018461837BD4680BD0800010002000100A3
:1054100080B588B002AFF8607A603B600B467B8154
:10542000FB68DB6A7B61FB681B681A68FB681B68AA
:1054300042F480621A607B69082B06D07B69012BDD
:1054400003D07B6913F5803F08D1FB681B681A689D
:10545000FB681B6842F480721A600BE0FB681B6BF0
:10546000112B07D1FB681B681A68FB681B6842F4A4
:1054700080721A603B6800937B6800224FF0011134
:10548000F86800F011FA0346002B0DD0FB681B688A
:105490001B6803F48073B3F5807F03D1FB684FF47E
:1054A00000721A64032379E0FB681B69B3F5804F2F
:1054B00008D17B89DBB243F00103DAB2FB681B68D9
:1054C0001A615FE07B89DB11DBB203F00603DBB21C
:1054D00063F00F03DAB2FB681B681A613B687A68F5
:1054E0003049F86800F037FA0346002B01D0012359
:1054F00054E07B89DAB2FB681B681A613B687A6802
:105500002949F86800F027FA0346002B01D001234F
:1055100044E000233B61FB681B685B693B61FB68FF
:105520001B689B693B613B69FB681B681A68FB68E9
:105530001B6842F480721A603B6800937B6800220B
:105540004FF00111F86800F0AFF90346002B0DD0C1
:10555000FB681B681B6803F48073B3F5807F03D17D
:10556000FB684FF400721A64032317E07B89DB1198
:10557000DBB203F00603DBB263F00E03DAB2FB68C2
:105580001B681A613B687A680749F86800F0E3F91C
:105590000346002B01D0012300E0002318461837F2
:1055A000BD4680BD080001000200010080B588B042
:1055B00002AFF860084611461A4603467B810B4647
:1055C0003B811346FB80FB681B681A68FB681B68FD
:1055D00042F480721A607B6A00933B6A00224FF0AB
:1055E0000111F86800F060F90346002B0DD0FB684C
:1055F0001B681B6803F48073B3F5807F03D1FB68DD
:105600004FF400721A6403235FE07B89DBB21A4611
:10561000FB681B6802F0FE021A617B6A3A6A2D4938
:10562000F86800F098F90346002B01D001234CE004
:1056300000237B61FB681B685B697B61FB681B68FF
:105640009B697B617B697A6A396AF86800F002FAC3
:105650000346002B0DD0FB681B6C042B07D1FB68A5
:105660001B681A68FB681B6842F400721A60012309
:105670002BE0FB88012B05D13B89DAB2FB681B6864
:105680001A6121E03B891B0A9BB2DAB2FB681B68F6
:105690001A617A6A396AF86800F0DCF90346002B6F
:1056A0000DD0FB681B6C042B07D1FB681B681A68C4
:1056B000FB681B6842F400721A60012305E03B8915
:1056C000DAB2FB681B681A61002318461837BD461A
:1056D00080BD00BF0200010080B588B002AFF86055
:1056E000084611461A4603467B810B463B8113460A
:1056F000FB80FB681B681A68FB681B6842F48062C9
:105700001A60FB681B681A68FB681B6842F48072A9
:105710001A607B6A00933B6A00224FF00111F8681F
:1057200000F0C2F80346002B0DD0FB681B681B6815
:1057300003F48073B3F5807F03D1FB684FF40072EC
:105740001A640323AAE07B89DBB21A46FB681B6854
:1057500002F0FE021A617B6A3A6A5249F86800F068
:10576000FAF80346002B01D0012397E000237B6168
:10577000FB681B685B697B61FB681B689B697B61DD
:105780007B697A6A396AF86800F064F90346002B8D
:105790000DD0FB681B6C042B07D1FB681B681A68D3
:1057A000FB681B6842F400721A60012376E0FB88F4
:1057B000012B05D13B89DAB2FB681B681A6121E035
:1057C0003B891B0A9BB2DAB2FB681B681A617A6AD2
:1057D000396AF86800F03EF90346002B0DD0FB68EB
:1057E0001B6C042B07D1FB681B681A68FB681B68DD
:1057F00042F400721A60012350E03B89DAB2FB6880
:105800001B681A617A6A396AF86800F023F903465E
:10581000002B0DD0FB681B6C042B07D1FB681B68A9
:105820001A68FB681B6842F400721A60012335E0B5
:10583000FB681B681A68FB681B6842F480721A6078
:105840007B6A00933B6A00224FF00111F86800F078
:105850002BF80346002B0DD0FB681B681B6803F474
:105860008073B3F5807F03D1FB684FF400721A6434
:10587000032313E07B89DBB243F00103DAB2FB6858
:105880001B681A617B6A3A6A0649F86800F063F897
:105890000346002B01D0012300E0002318461837EF
:1058A000BD4680BD0200010080B584B000AFF86045
:1058B000B9603B601346FB7125E03B68B3F1FF3FE5
:1058C00021D0FDF7D5FC0246BB69D31A3A689A424B
:1058D00002D33B68002B16D1FB6800221A63FB68D9
:1058E000202283F83D20FB68002283F83E20FB68DD
:1058F0001B6C43F02002FB681A64FB68002283F8EB
:105900003C20012323E0BB681B0CDBB2012B0DD133
:10591000FB681B685B69DA43BB6813409BB2002BD2
:105920000CBF01230023DBB21A460CE0FB681B68A6
:105930009B69DA43BB6813409BB2002B0CBF012369
:105940000023DBB21A46FB799A42B6D000231846F0
:105950001037BD4680BD80B584B000AFF860B96037
:105960007A603B6051E0FB681B685B6903F480630D
:10597000B3F5806F23D1FB681B681A68FB681B684E
:1059800042F400721A60FB681B686FF480625A610F
:10599000FB6800221A63FB68202283F83D20FB6825
:1059A000002283F83E20FB681B6C43F00402FB6876
:1059B0001A64FB68002283F83C20012346E07B68E0
:1059C000B3F1FF3F21D0FDF753FC02463B68D31AE9
:1059D0007A689A4202D37B68002B16D1FB680022BA
:1059E0001A63FB68202283F83D20FB68002283F8BD
:1059F0003E20FB681B6C43F02002FB681A64FB68C6
:105A0000002283F83C20012320E0BB681B0CDBB2A2
:105A1000012B0CD1FB681B685B69DA43BB68134040
:105A20009BB2002B14BF01230023DBB20BE0FB6809
:105A30001B689B69DA43BB6813409BB2002B14BF01
:105A400001230023DBB2002B8DD100231846103731
:105A5000BD4680BD80B584B000AFF860B9607A60A3
:105A60002DE0F86800F0CEF80346002B01D00123AA
:105A70002DE0BB68B3F1FF3F21D0FDF7F9FB0246F3
:105A80007B68D31ABA689A4202D3BB68002B16D13E
:105A9000FB6800221A63FB68202283F83D20FB6824
:105AA000002283F83E20FB681B6C43F02002FB6859
:105AB0001A64FB68002283F83C20012307E0FB689E
:105AC0001B685B6903F08003802BCAD10023184652
:105AD0001037BD4680BD80B584B000AFF860B960B6
