:020000040800F2
:10000000000002208D1D0008AD1A0008B31A000878
:10001000B91A0008BF1A0008C51A0008000000003D
:10002000000000000000000000000000CB1A0008E3
:10003000D91A000800000000E71A0008F51A0008A5
:10004000DD1D0008DD1D0008DD1D0008DD1D0008A8
:10005000DD1D0008DD1D0008DD1D0008DD1D000898
:10006000DD1D0008DD1D0008DD1D0008DD1D000888
:10007000DD1D0008DD1D0008DD1D0008DD1D000878
:10008000DD1D0008DD1D0008DD1D0008000000006A
:10009000000000000000000000000000DD1D00085E
:1000A000DD1D0008DD1D0008DD1D0008DD1D000848
:1000B000DD1D0008DD1D0008011B0008DD1D000816
:1000C000DD1D0008DD1D0008DD1D0008DD1D000828
:1000D000DD1D0008DD1D0008DD1D0008000000001A
:1000E000DD1D0008DD1D0008DD1D0008000000000A
:1000F000000000000000000000000000DD1D0008FE
:1001000000000000DD1D0008DD1D0008DD1D0008E9
:1001100000000000000000000000000000000000DF
:10012000DD1D0008DD1D0008DD1D0008DD1D0008C7
:10013000DD1D0008000000000000000000000000BD
:10014000000000000000000000000000151B000877
:10015000DD1D0008DD1D0008DD1D0008DD1D000897
:10016000DD1D0008DD1D000800000000000000008B
:10017000000000000000000000000000000000007F
:1001800000000000DD1D000800000000000000006D
:08019000DD1D0008DD1D000863
:1001A00010B5054C237833B9044B13B10448AFF3B1
:1001B00000800123237010BDD00200200000000049
:1001C00030C8000808B5034B1BB103490348AFF31F
:1001D000008008BD00000000D402002030C80008E4
:1001E000034613F8012B002AFBD1181A0138704777
:1001F00001F0FF01102A2BDB10F0070F08D010F8D8
:10020000013B013A8B422DD010F0070F42B3F6D1DB
:10021000F0B441EA012141EA014122F007047FF0F4
:1002200000070023F0E80256083C85EA010586EA4B
:10023000010685FA47F5A3FA87F586FA47F6A5FA87
:1002400087F68EB9EED1F0BC01F0FF0102F0070293
:1002500032B110F8013B013A83EA010313B1F8D13E
:100260000020704701387047002D06BF354603381F
:10027000073815F0010F07D1013015F4807F02BF58
:10028000013015F4C03F0130F0BC0138704700BFA9
:1002900081F0004102E000BF83F0004330B54FEA37
:1002A00041044FEA430594EA050F08BF90EA020FA4
:1002B0001FBF54EA000C55EA020C7FEA645C7FEA37
:1002C000655C00F0E2804FEA5454D4EB5555B8BF5A
:1002D0006D420CDD2C4480EA020281EA030382EACB
:1002E000000083EA010180EA020281EA0303362D5D
:1002F00088BF30BD11F0004F4FEA01314FF4801C30
:100300004CEA113102D0404261EB410113F0004F41
:100310004FEA03334CEA133302D0524263EB4303F8
:1003200094EA050F00F0A780A4F10104D5F1200E96
:100330000DDB02FA0EFC22FA05F2801841F10001F1
:1003400003FA0EF2801843FA05F359410EE0A5F1C5
:1003500020050EF1200E012A03FA0EFC28BF4CF0F6
:10036000020C43FA05F3C01851EBE37101F00045AC
:1003700007D54FF0000EDCF1000C7EEB00006EEBB9
:100380000101B1F5801F1BD3B1F5001F0CD3490843
:100390005FEA30004FEA3C0C04F101044FEA44529A
:1003A00012F5800F80F09A80BCF1004F08BF5FEA21
:1003B000500C50F1000041EB045141EA050130BD01
:1003C0005FEA4C0C404141EB0101013C28BFB1F513
:1003D000801FE9D291F0000F04BF01460020B1FA5E
:1003E00081F308BF2033A3F10B03B3F120020CDA31
:1003F0000C3208DD02F1140CC2F10C0201FA0CF00F
:1004000021FA02F10CE002F11402D8BFC2F1200C73
:1004100001FA02F120FA0CFCDCBF41EA0C01904029
:10042000E41AA2BF01EB0451294330BD6FEA040472
:100430001F3C1CDA0C340EDC04F11404C4F120025D
:1004400020FA04F001FA02F340EA030021FA04F36F
:1004500045EA030130BDC4F10C04C4F1200220FAC6
:1004600002F001FA04F340EA0300294630BD21FA04
:1004700004F0294630BD94F0000F83F4801306BFCA
:1004800081F480110134013D4EE77FEA645C18BFBE
:100490007FEA655C29D094EA050F08BF90EA020F55
:1004A00005D054EA000C04BF1946104630BD91EA4D
:1004B000030F1EBF0021002030BD5FEA545C05D150
:1004C0004000494128BF41F0004130BD14F580048F
:1004D0003CBF01F5801130BD01F0004545F0FE4103
:1004E00041F470014FF0000030BD7FEA645C1ABF38
:1004F000194610467FEA655C1CBF0B46024650EA6F
:10050000013406BF52EA033591EA030F41F400219A
:1005100030BD00BF90F0000F04BF0021704730B520
:100520004FF4806404F132044FF000054FF00001F5
:1005300050E700BF90F0000F04BF0021704730B5B6
:100540004FF4806404F1320410F0004548BF40428B
:100550004FF000013EE700BF42004FEAE2014FEAE0
:1005600031014FEA02701FBF12F07F4393F07F4FBB
:1005700081F06051704732F07F4208BF704793F0BE
:100580007F4F04BF41F40021704730B54FF46074D1
:1005900001F0004521F000411CE700BF50EA0102D4
:1005A00008BF704730B54FF000050AE050EA01027D
:1005B00008BF704730B511F0004502D5404261EBED
:1005C00041014FF4806404F132045FEA915C3FF42E
:1005D000D8AE4FF003025FEADC0C18BF03325FEACB
:1005E000DC0C18BF033202EBDC02C2F1200300FA7C
:1005F00003FC20FA02F001FA03FE40EA0E0021FAA1
:1006000002F11444BDE600BF70B54FF0FF0C4CF48E
:10061000E06C1CEA11541DBF1CEA135594EA0C0F40
:1006200095EA0C0F00F0DEF82C4481EA030621EA7B
:100630004C5123EA4C5350EA013518BF52EA0335B6
:1006400041F4801143F4801338D0A0FB02CE4FF068
:100650000005E1FB02E506F00042E0FB03E54FF098
:100660000006E1FB03569CF0000F18BF4EF0010E90
:10067000A4F1FF04B6F5007F64F5407404D25FEA8C
:100680004E0E6D4146EB060642EAC62141EA55513F
:100690004FEAC52040EA5E504FEACE2EB4F1FD0C81
:1006A00088BFBCF5E06F1ED8BEF1004F08BF5FEAFF
:1006B000500E50F1000041EB045170BD06F00046B1
:1006C00046EA010140EA020081EA0301B4EB5C045E
:1006D000C2BFD4EB0C0541EA045170BD41F4801156
:1006E0004FF0000E013C00F3AB8014F1360FDEBF7B
:1006F000002001F0004170BDC4F10004203C35DA57
:100700000C341BDC04F11404C4F1200500FA05F3D9
:1007100020FA04F001FA05F240EA020001F000427A
:1007200021F0004110EBD37021FA04F642EB0601F0
:100730005EEA430E08BF20EAD37070BDC4F10C041A
:10074000C4F1200500FA04F320FA05F001FA04F2DE
:1007500040EA020001F0004110EBD37041F10001CA
:100760005EEA430E08BF20EAD37070BDC4F12005D5
:1007700000FA05F24EEA020E20FA04F301FA05F23D
:1007800043EA020321FA04F001F0004121FA04F2E5
:1007900020EA020000EBD3705EEA430E08BF20EAB5
:1007A000D37070BD94F0000F0FD101F000464000EF
:1007B00041EB010111F4801F08BF013CF7D041EA71
:1007C000060195F0000F18BF704703F00046520075
:1007D00043EB030313F4801F08BF013DF7D043EA46
:1007E0000603704794EA0C0F0CEA135518BF95EAFC
:1007F0000C0F0CD050EA410618BF52EA4306D1D183
:1008000081EA030101F000414FF0000070BD50EAA1
:10081000410606BF1046194652EA430619D094EA2B
:100820000C0F02D150EA013613D195EA0C0F05D115
:1008300052EA03361CBF104619460AD181EA030169
:1008400001F0004141F0FE4141F470014FF0000021
:1008500070BD41F0FE4141F4780170BD70B54FF0BC
:10086000FF0C4CF4E06C1CEA11541DBF1CEA13553C
:1008700094EA0C0F95EA0C0F00F0A7F8A4EB05041E
:1008800081EA030E52EA03354FEA013100F0888015
:100890004FEA03334FF0805545EA131343EA1263DE
:1008A0004FEA022245EA111545EA10654FEA002693
:1008B0000EF000419D4208BF964244F1FD0404F54C
:1008C000407402D25B084FEA3202B61A65EB0305A8
:1008D0005B084FEA32024FF480104FF4002CB6EB65
:1008E000020E75EB030E22BFB61A754640EA0C00E5
:1008F0005B084FEA3202B6EB020E75EB030E22BF25
:10090000B61A754640EA5C005B084FEA3202B6EB65
:10091000020E75EB030E22BFB61A754640EA9C0024
:100920005B084FEA3202B6EB020E75EB030E22BFF4
:10093000B61A754640EADC0055EA060E18D04FEAB2
:10094000051545EA16754FEA06164FEAC30343EA52
:1009500052734FEAC2025FEA1C1CC0D111F4801F1F
:100960000BD141EA00014FF000004FF0004CB6E718
:1009700011F4801F04BF01430020B4F1FD0C88BFB7
:10098000BCF5E06F3FF6AFAEB5EB030C04BFB6EBC2
:10099000020C5FEA500C50F1000041EB045170BDB5
:1009A0000EF0004E4EEA113114EB5C04C2BFD4EBE2
:1009B0000C0541EA045170BD41F480114FF0000E66
:1009C000013C90E645EA060E8DE60CEA135594EAE2
:1009D0000C0F08BF95EA0C0F3FF43BAF94EA0C0FE5
:1009E0000AD150EA01347FF434AF95EA0C0F7FF45A
:1009F00025AF104619462CE795EA0C0F06D152EAAE
:100A000003353FF4FDAE1046194622E750EA410691
:100A100018BF52EA43067FF4C5AE50EA41047FF4A2
:100A20000DAF52EA43057FF4EBAE12E74FF0FF3C07
:100A300006E000BF4FF0010C02E000BF4FF0010CD8
:100A40004DF804CD4FEA410C7FEA6C5C4FEA430C51
:100A500018BF7FEA6C5C1BD001B050EA410C0CBFA0
:100A600052EA430C91EA030F02BF90EA020F002002
:100A7000704710F1000F91EA030F58BF994208BF69
:100A800090422CBFD8176FEAE37040F00100704726
:100A90004FEA410C7FEA6C5C02D150EA013C07D17D
:100AA0004FEA430C7FEA6C5CD6D152EA033CD3D0C8
:100AB0005DF8040B704700BF8446104662468C46C2
:100AC0001946634600E000BF01B5FFF7B7FF0028F5
:100AD00048BF10F1000F01BD4DF808EDFFF7F4FF1E
:100AE0000CBF012000205DF808FB00BF4DF808EDA9
:100AF000FFF7EAFF34BF012000205DF808FB00BFCC
:100B00004DF808EDFFF7E0FF94BF012000205DF8ED
:100B100008FB00BF4DF808EDFFF7CEFF94BF0120A2
:100B200000205DF808FB00BF4DF808EDFFF7C4FF9B
:100B300034BF012000205DF808FB00BF4FEA410CE4
:100B40007FEA6C5C02D150EA013C0AD14FEA430CC7
:100B50007FEA6C5C02D152EA033C02D14FF0000004
:100B600070474FF0010070474FEA410212F5001242
:100B700015D211D56FF47873B3EB625212D94FEAE4
:100B8000C12343F0004343EA505311F0004F23FACE
:100B900002F018BF404270474FF00000704750EA23
:100BA000013005D111F0004008BF6FF000407047E0
:100BB0004FF00000704700BF4FEA4102B2F1E0433E
:100BC00024BFB3F5001CDCF1FE5C0DD901F0004C34
:100BD0004FEAC0024CEA5070B2F1004F40EB830084
:100BE00008BF20F00100704711F0804F21D113F1B0
:100BF0003872BCBF01F00040704741F480114FEAE9
:100C00005252C2F11802C2F1200C10FA0CF320FA71
:100C100002F018BF40F001004FEAC1234FEAD3238E
:100C200003FA0CFC40EA0C0023FA02F34FEA4303F8
:100C3000CCE77FEA625307D150EA01331EBF4FF081
:100C4000FE4040F44000704701F0004040F0FE409C
:100C500040F40000704700BF53B94AB9002908BFEB
:100C600000281CBF4FF0FF314FF0FF3000F074B987
:100C7000ADF1080C6DE904CE00F006F8DDF804E0F3
:100C8000DDE9022304B070472DE9F047089D0446D2
:100C90008E46002B4DD18A42944669D9B2FA82F22F
:100CA00052B101FA02F3C2F1200120FA01F10CFA6B
:100CB00002FC41EA030E94404FEA1C48210CBEFBA3
:100CC000F8F61FFA8CF708FB16E341EA034306FB2C
:100CD00007F199420AD91CEB030306F1FF3080F0BB
:100CE0001F81994240F21C81023E63445B1AA4B208
:100CF000B3FBF8F008FB103344EA034400FB07F7AA
:100D0000A7420AD91CEB040400F1FF3380F00A81EA
:100D1000A74240F207816444023840EA0640E41BDF
:100D200000261DB1D4400023C5E900433146BDE88B
:100D3000F0878B4209D9002D00F0EF800026C5E92D
:100D4000000130463146BDE8F087B3FA83F6002E45
:100D50004AD18B4202D3824200F2F980841A61EBBD
:100D6000030301209E46002DE0D0C5E9004EDDE7DB
:100D700002B9FFDEB2FA82F2002A40F09280A1EBC3
:100D80000C014FEA1C471FFA8CFE0126200CB1FB18
:100D9000F7F307FB131140EA01410EFB03F0884211
:100DA00008D91CEB010103F1FF3802D2884200F29E
:100DB000CB804346091AA4B2B1FBF7F007FB101130
:100DC00044EA01440EFB00FEA64508D91CEB0404CE
:100DD00000F1FF3102D2A64500F2BB800846A4EB29
:100DE0000E0440EA03409CE7C6F12007B34022FA14
:100DF00007FC4CEA030C20FA07F401FA06F31C4343
:100E0000F9404FEA1C4900FA06F3B1FBF9F8200C4F
:100E10001FFA8CFE09FB181140EA014108FB0EF095
:100E2000884202FA06F20BD91CEB010108F1FF3AE5
:100E300080F08880884240F28580A8F102086144F1
:100E4000091AA4B2B1FBF9F009FB101144EA0141FF
:100E500000FB0EFE8E4508D91CEB010100F1FF34AA
:100E60006CD28E456AD90238614440EA0840A0FB42
:100E70000294A1EB0E01A142C846A64656D353D018
:100E80005DB1B3EB080261EB0E0101FA07F722FA3C
:100E900006F3F1401F43C5E9007100263146BDE865
:100EA000F087C2F12003D8400CFA02FC21FA03F3C8
:100EB000914001434FEA1C471FFA8CFEB3FBF7F049
:100EC00007FB10360B0C43EA064300FB0EF69E426E
:100ED00004FA02F408D91CEB030300F1FF382FD207
:100EE0009E422DD9023863449B1B89B2B3FBF7F6AF
:100EF00007FB163341EA034106FB0EF38B4208D988
:100F00001CEB010106F1FF3816D28B4214D9023EC8
:100F10006144C91A46EA004638E72E46284605E7E6
:100F20000646E3E61846F8E64B45A9D2B9EB0208B7
:100F300064EB0C0E0138A3E74646EAE7204694E747
:100F40004046D1E7D0467BE7023B614432E730467A
:100F500009E76444023842E7704700BF80B58AB0B1
:100F600000AF07F1140300221A605A609A60DA6039
:100F70001A6100233B61274B1B6B264A43F0040395
:100F80001363244B1B6B03F004033B613B69002399
:100F9000FB60204B1B6B1F4A43F0800313631D4B08
:100FA0001B6B03F08003FB60FB680023BB60194BE5
:100FB0001B6B184A43F001031363164B1B6B03F0C2
:100FC0000103BB60BB6800237B60124B1B6B114AA3
:100FD00043F0020313630F4B1B6B03F002037B60B0
:100FE0007B6800224FF400510B4801F025FA4FF4C2
:100FF00000537B610123BB610023FB6100233B6243
:1010000007F114031946044801F092F800BF28378D
:10101000BD4680BD003802400008024080B500AFE8
:10102000124B134A1A60114B124A5A600F4B00229E
:101030009A600E4B0022DA600C4B4FF480421A612A
:101040000A4B00225A61094B00229A61074B002289
:10105000DA61064B00221A62044801F021FA0346C5
:10106000002B01D000F06EF900BF80BDEC02002023
:10107000005C0040801A060080B58AB000AF78603E
:1010800007F1140300221A605A609A60DA601A614C
:101090007B681B68284A93424AD100233B61274B57
:1010A0001B6B264A43F001031363244B1B6B03F0B5
:1010B00001033B613B690023FB60204B1B6B1F4A14
:1010C00043F0020313631D4B1B6B03F00203FB6031
:1010D000FB684FF480737B611223BB610023FB61CB
:1010E00003233B6204237B6207F11403194614486F
:1010F00001F01EF810237B611223BB610023FB610A
:1011000003233B6209237B6207F1140319460D4850
:1011100001F00EF80023BB60084B1B6C074A43F438
:1011200000031364054B1B6C03F40003BB60BB6836
:1011300000BF2837BD4680BD005C0040003802403B
:101140000000024000040240B0B582B002AF00F0DF
:1011500047FE00F053F8FFF701FFFFF75FFF08F0CD
:1011600097F800F09DFD1F4804F06AF84FF47A707C
:1011700000F0A8FE1C4800F037F900F079F91B4B8D
:101180001B78DBB2002BFAD000F006FA00F00CFA64
:1011900053EC102B10461946FFF70EFD0346144A78
:1011A000136000F07DFA53EC102B10461946FFF740
:1011B00003FD03460F4A13600D4B1B681846FFF7EB
:1011C000CBF904460D460B4B1B681846FFF7C4F9D4
:1011D00002460B46CDE9002322462B46064809F07D
:1011E00003FACCE768030020EC020020480300204B
:1011F000400300204403002048C8000880B594B094
:1012000000AF07F1200330220021184608F07AFDD4
:1012100007F10C0300221A605A609A60DA601A61C2
:101220000023BB60274B1B6C264A43F0805313649A
:10123000244B1B6C03F08053BB60BB6800237B60B6
:10124000214B1B68204A43F4404313601E4B1B682C
:1012500003F440437B607B6801233B624FF480339F
:101260007B620223BB634FF48003FB6319233B645F
:10127000C0237B640223BB640423FB6407F12003C7
:10128000184603F049FB0346002B01D000F05AF842
:101290000F23FB6002233B6100237B614FF48053EB
:1012A000BB610023FB6107F10C030321184603F027
:1012B000ABFD0346002B01D000F044F800BF5037CF
:1012C000BD4680BD003802400070004080B584B04B
:1012D00000AFF860B9607A607B689BB21946B86865
:1012E00008F094F803461A46084B1A70074B1B780F
:1012F000012BF1D0054B1B78032B01D1002300E01B
:101300007B6818461037BD4680BD00BF49030020EA
:1013100080B582B000AF78607B68074A934207D1FE
:10132000064B01221A704FF40051054801F09DF858
:1013300000BF0837BD4680BD680300204803002079
:101340000008024080B400AF72B600BFFEE780B56F
:1013500088B004AF7860084611461A460346FB7011
:101360000B46BB7013467B70FB789BB25B0099B257
:10137000BB789AB27B789BB20A2002900193BB693A
:1013800000930123786801F0C9FA0346FB60FB680B
:10139000002B00D000BFFB68DBB218461037BD46FB
:1013A00080BD80B586B004AF7860084611461A4605
:1013B0000346FB700B46BB7013467B70FB789BB2F9
:1013C0005B0099B2BB789AB27B789BB20A200290FC
:1013D00001933B6900930123786801F0A5F9034666
:1013E00018460837BD4680BD80B483B000AF786032
:1013F000044A7B68136000BF0C37BD465DF8047B70
:10140000704700BF6003002080B584B002AF034680
:101410003A60FB710B46BB71074B1868B979FA79D2
:101420003B6800930B467721FFF791FF0346184670
:101430000837BD4680BD00BF6003002080B584B082
:1014400002AF03463A60FB710B46BB71074B18684D
:10145000B979FA793B6800930B467721FFF7A1FF32
:10146000034618460837BD4680BD00BF6003002014
:1014700080B582B000AF00237B601AE07B68DBB2EE
:101480005B00DBB25E3BFB703A46FB7802211846FC
:10149000FFF7BAFF3B781B021AB27B781BB21343EB
:1014A0001BB299B2074A7B6822F813107B6801339C
:1014B0007B607B68052BE1DD00BF00BF0837BD46C0
:1014C00080BD00BF4C03002080B582B000AF154A3C
:1014D0003B1D1268114619800233120C1A70124B10
:1014E0001B785B005BB243F040035BB2DBB23A1D9A
:1014F00000211846FFF7A2FF0C2000F0E3FC3B1D83
:101500001A4603210020FFF77FFF3B791A047B79FD
:101510001B021343BA791343044A136000BF083710
:10152000BD4680BD64C800080000002058030020AC
:1015300080B582B000AF154A3B1D12681146198074
:101540000233120C1A70124B1B785B005BB243F033
:1015500050035BB2DBB23A1D00211846FFF76EFF65
:101560000C2000F0AFFC3B1D1A4603210020FFF7C2
:101570004BFF3B791A047B791B021343BA7913435F
:10158000044A136000BF0837BD4680BD64C8000828
:10159000000000205C03002080B500AFFFF7C8FF0B
:1015A000FFF792FF00BF80BDB0B586B000AF364BED
:1015B0001A68364B1B891B02D31AFB60F868FEF7CA
:1015C000A9FF04460D46314B5B891846FEF7B2FF72
:1015D0004FF000022E4BFFF741F902460B46204622
:1015E0002946FFF711F802460B46104619464FF000
:1015F0000002284BFEF752FE02460B46C7E90023C5
:101600004FF000024FF00003C7E904234FF000023F
:10161000204BD7E90001FFF769FA0346002B16D0EB
:10162000F868FEF777FF04460D46F868FEF772FF8C
:101630004FF00002184BFFF711F902460B46204607
:101640002946FEF7E1FF02460B46C7E90423D7E926
:101650000423D7E90001FEF71FFE02460B46C7E947
:1016600000234FF000020D4BD7E90001FFF7F6F819
:1016700002460B4643EC172BB0EE470AF0EE670A22
:101680001837BD46B0BD00BF5C0300204C030020EE
:101690000000604100409F400000E04100005940D0
:1016A0002DE9B04390B000AFC34B1A68C34B1B8900
:1016B0001B02D31A7B62786AFEF72CFF04460D46A4
:1016C000BE4B5B891846FEF735FF4FF00002BC4B5E
:1016D000FFF7C4F802460B4620462946FEF794FF62
:1016E00002460B46104619464FF00002B54BFEF776
:1016F000D5FD02460B46C7E90623B04B5B881B04A9
:101700001A46AE4BDB8819467B6A01FB03F3DB0903
:1017100013441846FEF7FEFE02460B46C7E90423B3
:10172000A64B1B88DB031A46A44B9B8819467B6A91
:1017300001FB03F31B0A13441846FEF7EBFE0246B7
:101740000B46C7E90223A04B1B681846FEF7E2FED2
:10175000D7E90223FEF758FF02460B46104619460A
:101760004FF00002994BFFF779F802460B461046FE
:101770001946D7E90423FEF78FFD02460B461046B3
:1017800019464FF00002924BFFF768F802460B46ED
:10179000C7E900234FF000024FF00003C7E90E2312
:1017A0004FF000024FF00003C7E90C234FF0000296
:1017B0004FF00003C7E90A234FF00002814BD7E93D
:1017C0000601FFF793F90346002B00F0CC807B6AFB
:1017D00003FB03F3DB0F002298469146404649463F
:1017E000FEF7E4FE02460B46C7E90E234FF0000267
:1017F000744BD7E90601FEF74FFD02460B46104633
:1018000019464FF00002734BFEF7FEFE02460B46F0
:1018100014461D464FF000026A4BD7E90601FEF759
:101820003BFD02460B4620462946FEF7EDFE0246EA
:101830000B46104619464FF000024FF08043FFF769
:101840000DF802460B46C7E90C234FF000025D4B32
:10185000D7E90601FEF720FD02460B461046194661
:101860004FF000025B4BFEF7CFFE02460B461446DC
:101870001D464FF00002534BD7E90601FEF70CFD61
:1018800002460B4620462946FEF7BEFE02460B46A0
:10189000104619464FF000024F4BFEF7DFFF02469D
:1018A0000B46C7E90A2340A3D3E90023D7E9060181
:1018B000FFF71CF90346002B55D03DA3D3E90023C5
:1018C000D7E90601FEF7EAFC02460B461046194628
:1018D0004FF00002414BFEF797FE02460B461446BE
:1018E0001D4633A3D3E90023D7E90601FEF7D6FC52
:1018F00002460B4620462946FEF786FE02460B4668
:10190000D7E90C01FEF7CAFC02460B46C7E90C23D7
:1019100027A3D3E90023D7E90601FEF7BFFC02465F
:101920000B46104619464FF000022A4BFEF76CFE9C
:1019300002460B4614461D461DA3D3E90023D7E9F2
:101940000601FEF7ABFC02460B4620462946FEF791
:101950005BFE02460B46D7E90A01FEF79FFC0246F2
:101960000B46C7E90A23D7E90E23D7E90601FEF79C
:1019700093FC02460B46C7E90623D7E90C23D7E9B7
:101980000401FEF789FC02460B46C7E90423D7E9A8
:101990000A23D7E90201FEF77FFC02460B46C7E99E
:1019A0000223094B1B681BE000000000007097C079
:1019B00000000000007097405C0300204C030020F2
:1019C0000000604100409F4058030020000040415B
:1019D0000000E040000014400000104000001C40E7
:1019E0001846FEF797FDD7E90223FEF70DFE0246E3
:1019F0000B46104619464FF00002154BFEF72EFF1E
:101A000002460B4610461946D7E90423FEF744FC6C
:101A100002460B46104619464FF000020D4BFEF7EA
:101A20001DFF02460B46C7E900234FF000020A4B98
:101A3000D7E90001FEF712FF02460B4643EC172BD5
:101A4000B0EE470AF0EE670A4037BD46BDE8B08306
:101A5000000040410000E0400000594080B483B0E5
:101A600000AF00237B60104B5B6C0F4A43F4804354
:101A700053640D4B5B6C03F480437B607B680023F5
:101A80003B60094B1B6C084A43F080531364064BC0
:101A90001B6C03F080533B603B6800BF0C37BD46B6
:101AA0005DF8047B704700BF0038024080B400AF8F
:101AB000FEE780B400AFFEE780B400AFFEE780B47D
:101AC00000AFFEE780B400AFFEE780B400AF00BF18
:101AD000BD465DF8047B704780B400AF00BFBD46D3
:101AE0005DF8047B704780B400AF00BFBD465DF871
:101AF000047B704780B500AF00F0C4F900BF80BD23
:101B000080B500AF024803F0FDFB00BF80BD00BF01
:101B10006803002080B500AF024801F0D0FD00BF8F
:101B200080BD00BF9418002080B400AF0123184688
:101B3000BD465DF8047B704780B582B000AF786029
:101B4000396008F0B5F8034616221A604FF0FF33EB
:101B500018460837BD4680BD80B582B000AF7860BA
:101B60004FF0FF317868FFF7E7FFFEE780B586B0FA
:101B700000AFF860B9607A6000237B610AE0AFF3E0
:101B800000800146BB685A1CBA60CAB21A707B69F1
:101B900001337B617A697B689A42F0DB7B68184687
:101BA0001837BD4680BD80B483B000AF78604FF079
:101BB000FF3318460C37BD465DF8047B704780B490
:101BC00083B000AF786039603B684FF400525A60D0
:101BD000002318460C37BD465DF8047B704780B47F
:101BE00083B000AF7860012318460C37BD465DF81E
:101BF000047B704780B485B000AFF860B9607A604C
:101C0000002318461437BD465DF8047B704700007A
:101C100080B586B000AF7860144A154BD31A7B614B
:101C20007B693B61134B1B68002B02D1114B124A9D
:101C30001A60104B1A687B6813443A699A4207D2BB
:101C400008F036F803460C221A604FF0FF3309E023
:101C5000084B1B68FB60074B1A687B681344054AF6
:101C60001360FB6818461837BD4680BD000002208F
:101C70000004000064030020D01F002080B400AFE7
:101C8000064BD3F88830054A43F47003C2F8883015
:101C900000BFBD465DF8047B704700BF00ED00E06B
:101CA00080B586B000AF07F1080300221A605A60C1
:101CB0009A60DA603B4600221A605A601D4B1E4A49
:101CC0001A601C4B40F2BF325A601A4B00229A60D5
:101CD000184B40F2CF72DA60164B00221A61154B96
:101CE00080229A61134803F05BFA0346002B01D06F
:101CF000FFF728FB4FF48053BB6007F10803194638
:101D00000C4803F007FC0346002B01D0FFF71AFB39
:101D100000233B6000237B603B461946054803F0E7
:101D200003FE0346002B01D0FFF70CFB00BF183762
:101D3000BD4680BD680300200008004080B584B027
:101D400000AF78607B681B680E4A934215D1002370
:101D5000FB600D4B1B6C0C4A43F0040313640A4BED
:101D60001B6C03F00403FB60FB68002200211E20B3
:101D700000F0A7F91E2000F0C0F900BF1037BD46E3
:101D800080BD00BF0008004000380240DFF834D0BA
:101D90000D480E490E4A002302E0D458C4500433C3
:101DA000C4188C42F9D30B4A0B4C002301E013609A
:101DB0000432A242FBD3FFF761FF07F07FFFFFF77A
:101DC000C3F970470000022000000020D00200206C
:101DD000ECCC0008D0020020D01F0020FEE700005D
:101DE00080B500AF0E4B1B680D4A43F400731360BF
:101DF0000B4B1B680A4A43F480631360084B1B6853
:101E0000074A43F480731360032000F04FF90F205A
:101E100000F008F8FFF722FE0023184680BD00BF3F
:101E2000003C024080B582B000AF7860124B1A6867
:101E3000124B1B7819464FF47A73B3FBF1F3B2FBE4
:101E4000F3F3184600F067F90346002B01D0012395
:101E50000EE07B680F2B0AD8002279684FF0FF3024
:101E600000F02FF9064A7B681360002300E001238D
:101E700018460837BD4680BD040000200C00002035
:101E80000800002080B400AF064B1B781A46064BB2
:101E90001B681344044A136000BFBD465DF8047B11
:101EA000704700BF0C000020B003002080B400AFDA
:101EB000034B1B681846BD465DF8047B704700BFA6
:101EC000B003002080B584B000AF7860FFF7EEFF6C
:101ED000B8607B68FB60FB68B3F1FF3F05D00A4B3D
:101EE0001B781A46FB681344FB6000BFFFF7DEFF58
:101EF0000246BB68D31AFA689A42F7D800BF00BFFF
:101F00001037BD4680BD00BF0C00002080B485B0F6
:101F100000AF78607B6803F00703FB600C4BDB6865
:101F2000BB60BA684FF6FF031340BB60FB681A0240
:101F3000BB68134343F0BF6343F40033BB60044A00
:101F4000BB68D36000BF1437BD465DF8047B7047A3
:101F500000ED00E080B400AF044BDB681B0A03F027
:101F600007031846BD465DF8047B704700ED00E0AE
:101F700080B483B000AF0346FB7197F90730002BA4
:101F80000BDBFB7903F01F02074997F907305B0968
:101F9000012000FA02F241F8232000BF0C37BD46B1
:101FA0005DF8047B704700BF00E100E080B483B0BF
:101FB00000AF03463960FB7197F90730002B0ADB4D
:101FC0003B68DAB20C4997F907301201D2B20B44E0
:101FD00083F800230AE03B68DAB20849FB7903F092
:101FE0000F03043B1201D2B20B441A7600BF0C3728
:101FF000BD465DF8047B704700E100E000ED00E0C5
:1020000080B489B000AFF860B9607A60FB6803F013
:102010000703FB61FB69C3F10703042B28BF0423FB
:10202000BB61FB690433062B02D9FB69033B00E06B
:1020300000237B614FF0FF32BB6902FA03F3DA43FE
:10204000BB681A407B699A404FF0FF317B6901FA07
:1020500003F3D9437B680B40134318462437BD462E
:102060005DF8047B7047000080B582B000AF7860F7
:102070007B68013BB3F1807F01D301230FE00A4A63
:102080007B68013B53600F214FF0FF30FFF78EFF5D
:10209000054B00229A60044B07221A600023184661
:1020A0000837BD4680BD00BF10E000E080B582B0BB
:1020B00000AF78607868FFF729FF00BF0837BD469A
:1020C00080BD80B586B000AF0346B9607A60FB730F
:1020D00000237B61FFF73EFF78617A68B968786911
:1020E000FFF78EFF024697F90F3011461846FFF7AB
:1020F0005DFF00BF1837BD4680BD80B582B000AF20
:102100000346FB7197F907301846FFF731FF00BF10
:102110000837BD4680BD80B582B000AF7860786872
:10212000FFF7A2FF034618460837BD4680BD0000F2
:1021300080B489B000AF7860396000237B610023F0
:102140003B610023BB610023FB6159E10122FB6974
:1021500002FA03F37B613B681B687A6913403B61B9
:102160003A697B699A4240F048813B685B6803F0BA
:102170000303012B05D03B685B6803F00303022BCC
:1021800030D17B689B68BB61FB695B00032202FA6C
:1021900003F3DB43BA691340BB613B68DA68FB6950
:1021A0005B0002FA03F3BA691343BB617B68BA6947
:1021B0009A607B685B68BB610122FB6902FA03F3EA
:1021C000DB43BA691340BB613B685B681B0903F0E2
:1021D0000102FB6902FA03F3BA691343BB617B682E
:1021E000BA695A603B685B6803F00303032B17D09E
:1021F0007B68DB68BB61FB695B00032202FA03F3C7
:10220000DB43BA691340BB613B689A68FB695B00BA
:1022100002FA03F3BA691343BB617B68BA69DA60F7
:102220003B685B6803F00303022B23D1FB69DA08E8
:102230007B68083253F82230BB61FB6903F0070367
:102240009B000F2202FA03F3DB43BA691340BB6120
:102250003B681A69FB6903F007039B0002FA03F36A
:10226000BA691343BB61FB69DA087B680832B96954
:1022700043F822107B681B68BB61FB695B0003228B
:1022800002FA03F3DB43BA691340BB613B685B6846
:1022900003F00302FB695B0002FA03F3BA6913431C
:1022A000BB617B68BA691A603B685B6803F44033C2
:1022B000002B00F0A2800023FB60574B5B6C564A5A
:1022C00043F480435364544B5B6C03F48043FB60E2
:1022D000FB68524AFB699B08023352F82330BB610A
:1022E000FB6903F003039B000F2202FA03F3DB43B5
:1022F000BA691340BB617B68494A934219D07B6835
:10230000484A934213D07B68474A93420DD07B687A
:10231000464A934207D07B68454A934201D1042341
:1023200008E0072306E0032304E0022302E0012380
:1023300000E00023FA6902F0030292009340BA69B8
:102340001343BB613549FB699B080233BA6941F805
:102350002320384B9B68BB613B69DB43BA69134060
:10236000BB613B685B6803F48013002B03D0BA6940
:102370003B691343BB612F4ABB6993602D4BDB68FC
:10238000BB613B69DB43BA691340BB613B685B6877
:1023900003F40013002B03D0BA693B691343BB61FC
:1023A000244ABB69D360234B5B68BB613B69DB4359
:1023B000BA691340BB613B685B6803F40033002BD0
:1023C00003D0BA693B691343BB611A4ABB695360C6
:1023D000184B1B68BB613B69DB43BA691340BB61A7
:1023E0003B685B6803F48033002B03D0BA693B6918
:1023F0001343BB610F4ABB691360FB690133FB6187
:10240000FB690F2B7FF6A2AE00BF00BF2437BD468D
:102410005DF8047B704700BF00380240003801407F
:10242000000002400004024000080240000C02408C
:1024300000100240003C014080B483B000AF7860DF
:102440000B467B8013467B707B78002B03D07A8809
:102450007B689A6103E07B881A047B689A6100BFFD
:102460000C37BD465DF8047B704780B485B000AF83
:1024700078600B467B807B685B69FB607A88FB68D1
:1024800013401A04FB68D9437B880B401A437B68CE
:102490009A6100BF1437BD465DF8047B70470000A9
:1024A00080B584B000AF78607B68002B01D1012338
:1024B0002BE17B6893F83D30DBB2002B06D17B68C3
:1024C000002283F83C207868FEF7D6FD7B68242242
:1024D00083F83D207B681B681A687B681B6822F0C4
:1024E00001021A607B681B681A687B681B6842F4EB
:1024F00000421A607B681B681A687B681B6822F4BC
:1025000000421A6002F038FEF8607B685B68814A1E
:10251000934207D8FB68804A934294BF012300236B
:10252000DBB206E0FB687D4A934294BF012300239F
:10253000DBB2002B01D00123E7E0FB68784AA2FB65
:1025400003239B0CBB607B681B685B6823F03F0127
:102550007B681B68BA680A435A607B681B681B6A01
:1025600023F03F017B685B686A4A934202D8BB68EC
:10257000013309E0BB684FF4967202FB03F3694A2A
:10258000A2FB03239B0901337A6812680B43136291
:102590007B681B68DB6923F44F4222F0FF027B68F3
:1025A0005B685C498B4219D8FB68591E7B685B6885
:1025B0005B00B1FBF3F3591C40F6FC730B40002B9E
:1025C0000AD0FB68591E7B685B685B00B1FBF3F3C4
:1025D0000133C3F30B0351E004234FE07B689B6896
:1025E000002B11D1FB68581E7B6859680B465B00B5
:1025F0000B44B0FBF3F30133C3F30B03002B0CBF0D
:1026000001230023DBB212E0FB68581E7B68596887
:102610000B469B000B4499000B44B0FBF3F30133D2
:10262000C3F30B03002B0CBF01230023DBB2002BF1
:1026300001D0012322E07B689B68002B0ED1FB6850
:10264000581E7B6859680B465B000B44B0FBF3F3E4
:102650000133C3F30B0343F400430FE0FB68581E40
:102660007B6859680B469B000B4499000B44B0FBF8
:10267000F3F30133C3F30B0343F440437968096870
:102680001343CB617B681B681B6823F0C0017B6828
:10269000DA697B681B6A1A437B681B680A431A6005
:1026A0007B681B689B6823F4034323F0FF037A686D
:1026B00011697A68D26811437A6812680B43936093
:1026C0007B681B68DB6823F0FF017B685A697B68C5
:1026D0009B691A437B681B680A43DA607B681B6846
:1026E0001A687B681B6842F001021A607B6800224E
:1026F0001A647B68202283F83D207B6800221A63DD
:102700007B68002283F83E20002318461037BD4620
:1027100080BD00BFA08601007F841E00FF083D0031
:1027200083DE1B43D34D621080B588B002AFF860E2
:10273000084611461A4603467B810B463B811346E9
:10274000FB80FFF7B3FB7861FB6893F83D30DBB2A9
:10275000202B40F0D9807B690093192301226D4919
:10276000F86800F07FFC0346002B01D00223CCE088
:10277000FB6893F83C30012B01D10223C5E0FB68D4
:10278000012283F83C20FB681B681B6803F00103EF
:10279000012B07D0FB681B681A68FB681B6842F0B6
:1027A00001021A60FB681B681A68FB681B6822F448
:1027B00000621A60FB68212283F83D20FB684022FA
:1027C00083F83E20FB6800221A64FB683A6A5A626A
:1027D000FB68BA8C5A85FB685B8D9AB2FB681A85D8
:1027E000FB684D4ADA62F8883A8979897B690193F6
:1027F000BB6A00930346F86800F0B6FA0346002B64
:1028000052D0012381E07A69B96AF86800F000FDCE
:102810000346002B0DD0FB681B6C042B07D1FB6813
:102820001B681A68FB681B6842F400721A60012377
:102830006BE0FB685B6A1A78FB681B681A61FB68CF
:102840005B6A5A1CFB685A62FB681B8D013B9AB29B
:10285000FB681A85FB685B8D9BB2013B9AB2FB68F3
:102860005A85FB681B685B6903F00403042B1BD1CA
:10287000FB681B8D002B17D0FB685B6A1A78FB681E
:102880001B681A61FB685B6A5A1CFB685A62FB682A
:102890001B8D013B9AB2FB681A85FB685B8D9BB26E
:1028A000013B9AB2FB685A85FB681B8D002BAAD1AD
:1028B0007A69B96AF86800F0ECFC0346002B0DD089
:1028C000FB681B6C042B07D1FB681B681A68FB684C
:1028D0001B6842F400721A60012316E0FB681B6853
:1028E0001A68FB681B6842F400721A60FB682022B9
:1028F00083F83D20FB68002283F83E20FB6800221D
:1029000083F83C20002300E0022318461837BD4618
:1029100080BD00BF020010000000FFFF80B58CB03A
:1029200002AFF860084611461A4603467B810B4603
:102930003B811346FB80FFF7B9FA7862FB6893F896
:102940003D30DBB2202B40F008827B6A00931923D4
:1029500001227B49F86800F085FB0346002B01D07B
:102960000223FBE1FB6893F83C30012B01D10223E9
:10297000F4E1FB68012283F83C20FB681B681B68BC
:1029800003F00103012B07D0FB681B681A68FB6882
:102990001B6842F001021A60FB681B681A68FB683A
:1029A0001B6822F400621A60FB68222283F83D2033
:1029B000FB68402283F83E20FB6800221A64FB6813
:1029C0003A6B5A62FB68BA8E5A85FB685B8D9AB285
:1029D000FB681A85FB685B4ADA62F8883A8979896C
:1029E0007B6A0193BB6B00930346F86800F052FAD0
:1029F0000346002B01D00123B0E1FB681B8D002BA7
:102A000013D100233B62FB681B685B693B62FB6878
:102A10001B689B693B623B6AFB681B681A68FB6822
:102A20001B6842F400721A6084E1FB681B8D012B65
:102A30001BD1FB681B681A68FB681B6822F4806264
:102A40001A600023FB61FB681B685B69FB61FB6824
:102A50001B689B69FB61FB69FB681B681A68FB6864
:102A60001B6842F400721A6064E1FB681B8D022B44
:102A70001BD1FB681B681A68FB681B6822F4806224
:102A80001A60FB681B681A68FB681B6842F40062E6
:102A90001A600023BB61FB681B685B69BB61FB6854
:102AA0001B689B69BB61BB6944E100237B61FB68D8
:102AB0001B685B697B61FB681B689B697B617B6949
:102AC00038E1FB681B8D032B00F2F180FB681B8D46
:102AD000012B23D17A6AB96BF86800F01BFC03461E
:102AE000002B01D0012339E1FB681B681A69FB68E0
:102AF0005B6AD2B21A70FB685B6A5A1CFB685A6246
:102B0000FB681B8D013B9AB2FB681A85FB685B8DE5
:102B10009BB2013B9AB2FB685A850BE1FB681B8DA7
:102B2000022B4ED17B6A0093BB6B00220649F868EA
:102B300000F098FA0346002B08D001230EE100BFF5
:102B4000020010000000FFFF04000100FB681B688A
:102B50001A68FB681B6842F400721A60FB681B6805
:102B60001A69FB685B6AD2B21A70FB685B6A5A1C0E
:102B7000FB685A62FB681B8D013B9AB2FB681A85A1
:102B8000FB685B8D9BB2013B9AB2FB685A85FB6880
:102B90001B681A69FB685B6AD2B21A70FB685B6AD1
:102BA0005A1CFB685A62FB681B8D013B9AB2FB689A
:102BB0001A85FB685B8D9BB2013B9AB2FB685A8514
:102BC000B8E07B6A0093BB6B00226649F86800F0AE
:102BD00049FA0346002B01D00123BFE0FB681B68C4
:102BE0001A68FB681B6822F480621A60FB681B6825
:102BF0001A69FB685B6AD2B21A70FB685B6A5A1C7E
:102C0000FB685A62FB681B8D013B9AB2FB681A8510
:102C1000FB685B8D9BB2013B9AB2FB685A857B6A6D
:102C20000093BB6B00224F49F86800F01BFA034683
:102C3000002B01D0012391E0FB681B681A68FB6838
:102C40001B6842F400721A60FB681B681A69FB6813
:102C50005B6AD2B21A70FB685B6A5A1CFB685A62E4
:102C6000FB681B8D013B9AB2FB681A85FB685B8D84
:102C70009BB2013B9AB2FB685A85FB681B681A69D4
:102C8000FB685B6AD2B21A70FB685B6A5A1CFB680D
:102C90005A62FB681B8D013B9AB2FB681A85FB6880
:102CA0005B8D9BB2013B9AB2FB685A8542E07A6A1F
:102CB000B96BF86800F02EFB0346002B01D001230E
:102CC0004CE0FB681B681A69FB685B6AD2B21A7039
:102CD000FB685B6A5A1CFB685A62FB681B8D013BF0
:102CE0009AB2FB681A85FB685B8D9BB2013B9AB276
:102CF000FB685A85FB681B685B6903F00403042BBF
:102D000018D1FB681B681A69FB685B6AD2B21A703B
:102D1000FB685B6A5A1CFB685A62FB681B8D013BAF
:102D20009AB2FB681A85FB685B8D9BB2013B9AB235
:102D3000FB685A85FB681B8D002B7FF4C2AEFB68D5
:102D4000202283F83D20FB68002283F83E20FB68A8
:102D5000002283F83C20002300E002231846283795
:102D6000BD4680BD0400010080B588B002AFF860A8
:102D7000084611461A4603467B810B463B811346A3
:102D8000FB80FB681B681A68FB681B6842F4807252
:102D90001A607B6A00933B6A00224FF00111F868C9
:102DA00000F060F90346002B0DD0FB681B681B6820
:102DB00003F48073B3F5807F03D1FB684FF4007296
:102DC0001A6403235FE07B89DBB21A46FB681B6849
:102DD00002F0FE021A617B6A3A6A2D49F86800F037
:102DE00098F90346002B01D001234CE000237B61BE
:102DF000FB681B685B697B61FB681B689B697B6187
:102E00007B697A6A396AF86800F002FA0346002B97
:102E10000DD0FB681B6C042B07D1FB681B681A687C
:102E2000FB681B6842F400721A6001232BE0FB88E8
:102E3000012B05D13B89DAB2FB681B681A6121E0DE
:102E40003B891B0A9BB2DAB2FB681B681A617A6A7B
:102E5000396AF86800F0DCF90346002B0DD0FB68F6
:102E60001B6C042B07D1FB681B681A68FB681B6886
:102E700042F400721A60012305E03B89DAB2FB6874
:102E80001B681A61002318461837BD4680BD00BF75
:102E90000200010080B588B002AFF8600846114614
:102EA0001A4603467B810B463B811346FB80FB6839
:102EB0001B681A68FB681B6842F480621A60FB6832
:102EC0001B681A68FB681B6842F480721A607B6A90
:102ED00000933B6A00224FF00111F86800F0C2F83D
:102EE0000346002B0DD0FB681B681B6803F480733E
:102EF000B3F5807F03D1FB684FF400721A6403239B
:102F0000AAE07B89DBB21A46FB681B6802F0FE026E
:102F10001A617B6A3A6A5249F86800F0FAF8034687
:102F2000002B01D0012397E000237B61FB681B6825
:102F30005B697B61FB681B689B697B617B697A6A63
:102F4000396AF86800F064F90346002B0DD0FB687D
:102F50001B6C042B07D1FB681B681A68FB681B6895
:102F600042F400721A60012376E0FB88012B05D140
:102F70003B89DAB2FB681B681A6121E03B891B0AB6
:102F80009BB2DAB2FB681B681A617A6A396AF86820
:102F900000F03EF90346002B0DD0FB681B6C042BA0
:102FA00007D1FB681B681A68FB681B6842F4007253
:102FB0001A60012350E03B89DAB2FB681B681A6192
:102FC0007A6A396AF86800F023F90346002B0DD0BD
:102FD000FB681B6C042B07D1FB681B681A68FB6835
:102FE0001B6842F400721A60012335E0FB681B681D
:102FF0001A68FB681B6842F480721A607B6A00934F
:103000003B6A00224FF00111F86800F02BF80346EC
:10301000002B0DD0FB681B681B6803F48073B3F5AD
:10302000807F03D1FB684FF400721A64032313E01E
:103030007B89DBB243F00103DAB2FB681B681A61DB
:103040007B6A3A6A0649F86800F063F80346002B89
:1030500001D0012300E0002318461837BD4680BD8B
:103060000200010080B584B000AFF860B9603B6039
:103070001346FB7125E03B68B3F1FF3F21D0FEF71B
:1030800015FF0246BB69D31A3A689A4202D33B68DD
:10309000002B16D1FB6800221A63FB68202283F8FC
:1030A0003D20FB68002283F83E20FB681B6C43F048
:1030B0002002FB681A64FB68002283F83C2001238D
:1030C00023E0BB681B0CDBB2012B0DD1FB681B6836
:1030D0005B69DA43BB6813409BB2002B0CBF012332
:1030E0000023DBB21A460CE0FB681B689B69DA43DD
:1030F000BB6813409BB2002B0CBF01230023DBB243
:103100001A46FB799A42B6D0002318461037BD46BE
:1031100080BD80B584B000AFF860B9607A603B6074
:1031200051E0FB681B685B6903F48063B3F5806F53
:1031300023D1FB681B681A68FB681B6842F40072A5
:103140001A60FB681B686FF480625A61FB6800229A
:103150001A63FB68202283F83D20FB68002283F875
:103160003E20FB681B6C43F00402FB681A64FB689A
:10317000002283F83C20012346E07B68B3F1FF3F47
:1031800021D0FEF793FE02463B68D31A7A689A4232
:1031900002D37B68002B16D1FB6800221A63FB6800
:1031A000202283F83D20FB68002283F83E20FB6844
:1031B0001B6C43F02002FB681A64FB68002283F852
:1031C0003C20012320E0BB681B0CDBB2012B0CD19F
:1031D000FB681B685B69DA43BB6813409BB2002B3A
:1031E00014BF01230023DBB20BE0FB681B689B6963
:1031F000DA43BB6813409BB2002B14BF01230023AA
:10320000DBB2002B8DD1002318461037BD4680BDA0
:1032100080B584B000AFF860B9607A602DE0F868DE
:1032200000F0CEF80346002B01D001232DE0BB684F
:10323000B3F1FF3F21D0FEF739FE02467B68D31A77
:10324000BA689A4202D3BB68002B16D1FB680022F1
:103250001A63FB68202283F83D20FB68002283F874
:103260003E20FB681B6C43F02002FB681A64FB687D
:10327000002283F83C20012307E0FB681B685B69A0
:1032800003F08003802BCAD1002318461037BD46B7
:1032900080BD80B584B000AFF860B9607A602DE081
:1032A000F86800F08DF80346002B01D001232DE0D3
:1032B000BB68B3F1FF3F21D0FEF7F8FD02467B6803
:1032C000D31ABA689A4202D3BB68002B16D1FB68A6
:1032D00000221A63FB68202283F83D20FB6800224D
:1032E00083F83E20FB681B6C43F02002FB681A64E5
:1032F000FB68002283F83C20012307E0FB681B6881
:103300005B6903F00403042BCAD10023184610376D
:10331000BD4680BD80B584B000AFF860B9607A600A
:1033200042E0FB681B685B6903F01003102B19D1A6
:10333000FB681B686FF010025A61FB6800221A6379
:10334000FB68202283F83D20FB68002283F83E20A2
:10335000FB681A6CFB681A64FB68002283F83C2047
:10336000012329E0FEF7A2FD02467B68D31ABA6862
:103370009A4202D3BB68002B16D1FB6800221A6365
:10338000FB68202283F83D20FB68002283F83E2062
:10339000FB681B6C43F02002FB681A64FB68002288
:1033A00083F83C20012307E0FB681B685B6903F09E
:1033B0004003402BB5D1002318461037BD4680BDD1
:1033C00080B483B000AF78607B681B685B6903F4EE
:1033D0008063B3F5806F1BD17B681B686FF48062DC
:1033E0005A617B6800221A637B68202283F83D20A3
:1033F0007B68002283F83E207B681B6C43F004024C
:103400007B681A647B68002283F83C20012300E07B
:10341000002318460C37BD465DF8047B7047F0B5B5
:103420008FB00AAF78607B68002B01D101230FE1D8
:103430007B681B68BB607B6893F8BD34DBB2002BF4
:1034400006D17B68002283F8BC24786806F026F950
:103450007B68032283F8BD24BB68DB6B03F48073B5
:10346000002B02D17B6800221A617B681B6818461A
:1034700002F0F1FB7B681B683B607E686D4606F1DD
:1034800010040FCC0FC50FCC0FC594E8030085E8DE
:103490000300331D0ECB386802F0C8FA0346002B38
:1034A00005D07B68022283F8BD240123D0E07B682D
:1034B0001B680021184602F0DFFB0023FB734AE083
:1034C000FA7B79681346DB0013449B000B443D33C1
:1034D00001221A70FA7B79681346DB0013449B00C3
:1034E0000B443C33FA7B1A70FA7BFB7B98B2796809
:1034F0001346DB0013449B000B44443302461A80FE
:10350000FA7B79681346DB0013449B000B4440337D
:1035100000221A70FA7B79681346DB0013449B0083
:103520000B44483300221A60FA7B79681346DB00AB
:1035300013449B000B444C3300221A60FA7B7968D9
:103540001346DB0013449B000B44543300221A60E3
:10355000FB7B0133FB73FA7B7B685B689A42AFD3DA
:103560000023FB7344E0FA7B79681346DB001344C5
:103570009B000B4403F27D2300221A70FA7B7968CA
:103580001346DB0013449B000B4403F51F73FA7BC7
:103590001A70FA7B79681346DB0013449B000B44D6
:1035A00003F5207300221A70FA7B79681346DB005A
:1035B00013449B000B4403F5227300221A60FA7B2C
:1035C00079681346DB0013449B000B4403F5237317
:1035D00000221A60FA7B79681346DB0013449B00D3
:1035E0000B4403F5257300221A60FB7B0133FB7348
:1035F000FA7B7B685B689A42B5D37B681B683B604B
:103600007E686D4606F110040FCC0FC50FCC0FC5B8
:1036100094E8030085E80300331D0ECB386802F000
:1036200077FB0346002B05D07B68022283F8BD247C
:1036300001230DE07B68002283F838207B6801229B
:1036400083F8BD247B681B68184603F0C6FC002382
:1036500018461437BD46F0BD80B584B000AF786021
:103660007B681B68FB607B6893F8BC34012B01D13D
:10367000022320E07B68012283F8BC247B689B6ADC
:10368000012B09D17B689B69012B05D0FB689B6BE3
:1036900043F48032FB689A637B681B68184602F02B
:1036A000C9FA7B681B68184603F076FC7B68002229
:1036B00083F8BC24002318461037BD4680BD90B562
:1036C0008DB000AF78607B681B683B623B6AFB6132
:1036D0007B681B68184603F034FD0346002B40F05E
:1036E0008A847B681B68184603F098FC0346002B0D
:1036F00000F08084FB6903F500639B681B0AC3F339
:103700000D027B68C3F8FC247B681B68184603F035
:1037100085FC034603F00203022B07D17B681B687C
:103720005A697B681B6802F002025A617B681B6859
:10373000184603F073FC034603F01003102B61D10D
:103740007B681B689A697B681B6822F010029A618B
:103750003B6A1B6ABB61BB6903F00F021346DB00C7
:1037600013449B0003F51E737A68134404337B6192
:10377000BB695B0C03F00F03022B24D1BA6947F637
:10378000F0731340002B35D07B691969BB691B09A5
:103790009BB2C3F30A039BB21A46386A03F0AAFA33
:1037A0007B691A69BB691B09C3F30A031A447B6965
:1037B0001A617B691A6ABB691B09C3F30A031A44BD
:1037C0007B691A6216E0BB695B0C03F00F03062BE2
:1037D00010D17B6803F2C44308221946386A03F00B
:1037E00089FA7B691A6ABB691B09C3F30A031A4485
:1037F0007B691A627B681B689A697B681B6842F068
:1038000010029A617B681B68184603F007FC0346A8
:1038100003F40023B3F5002F40F0A78000237B6260
:103820007B681B68184603F00CFCB86299E0BB6A21
:1038300003F00103002B00F08E807B681B687A6A1E
:10384000D2B21146184603F030FC38613B6903F0F0
:103850000103002B0CD07B6A5A01FB69134403F56A
:1038600030631A4601239360796A786800F0C2FEDB
:103870003B6903F00803002B0CD07B6A5A01FB69FB
:10388000134403F530631A4608239360796A786815
:1038900000F098FF3B6903F01003002B08D07B6A0F
:1038A0005A01FB69134403F530631A4610239360F1
:1038B0003B6903F00203002B30D03B6A5B6903F0E5
:1038C0008003802B09D1FB6903F500635B68FA690B
:1038D00002F5006243F4806353607A6A1346DB00AA
:1038E00013449B0003F51E737A68134404337B6111
:1038F0007B69DB78012B08D17B690022DA707B6A57
:10390000DBB21946786805F0C5FF7B6A5A01FB698E
:10391000134403F530631A46022393603B6903F0B6
:103920002003002B08D07B6A5A01FB69134403F57E
:1039300030631A46202393603B6903F40053002B45
:1039400009D07B6A5A01FB69134403F530631A46B8
:103950004FF4005393607B6A01337B62BB6A5B0860
:10396000BB62BB6A002B7FF462AF7B681B681846A2
:1039700003F054FB034603F48023B3F5802F40F09B
:10398000DB807B681B68184603F075FBB862002378
:103990007B62CDE0BB6A03F00103002B00F0C28024
:1039A0007B681B687A6AD2B21146184603F09BFB0B
:1039B00038613B6903F00103002B57D07B6A03F0A9
:1039C0000F03012202FA03F3FB60FB6903F50063B6
:1039D0005A6BFB68DB43F96901F5006113404B63E7
:1039E0007B6A5A01FB69134403F510631A460123ED
:1039F00093607B681B69012B32D179687A6A134620
:103A0000DB0013449B000B444C33196878687A6AD6
:103A10001346DB0013449B00034448331B681944DE
:103A200078687A6A1346DB0013449B0003444C33E6
:103A300019607B6A002B13D179687A6A1346DB0020
:103A400013449B000B4454331B68002B08D17B6844
:103A500018687B6803F2C4431A46012103F0A2FBF5
:103A60007B6ADBB21946786805F099FE3B6903F082
:103A70000803002B08D07B6A5A01FB69134403F545
:103A800010631A46082393603B6903F01003002B70
:103A900008D07B6A5A01FB69134403F510631A4688
:103AA000102393603B6903F04003002B08D07B6A2E
:103AB0005A01FB69134403F510631A4640239360CF
:103AC0003B6903F00203002B23D0796A386A02F0C5
:103AD00083FA7A6A1346DB0013449B0038337A6812
:103AE000134404337B617B69DB78012B08D17B694C
:103AF0000022DA707B6ADBB21946786805F0DCFEDA
:103B00007B6A5A01FB69134403F510631A460223CA
:103B100093603B6903F08003002B03D0796A7868D7
:103B200000F0DBFC7B6A01337B62BB6A5B08BB6233
:103B3000BB6A002B7FF42EAF7B681B68184603F02E
:103B40006DFA034603F00043B3F1004F22D1FB6945
:103B500003F500635B68FA6902F5006223F0010374
:103B600053607B6893F8F434012B08D17B68002202
:103B700083F8F4240021786800F0C2FE02E078683F
:103B800005F07AFE7B681B685A697B681B6802F047
:103B900000425A617B681B68184603F03FFA0346EF
:103BA00003F40063B3F5006F12D1FB6903F5006302
:103BB0009B6803F00103012B02D1786805F036FE03
:103BC0007B681B685A697B681B6802F400625A6153
:103BD0007B681B68184603F021FA034603F4805300
:103BE000B3F5805F40F0B780FB6903F500635B6865
:103BF000FA6902F5006223F0010353607B681B68D9
:103C00001021184602F0E8F90023FB6246E0FB6A47
:103C10005A01FB69134403F510631A464FF67F33CC
:103C20009360FB6A5A01FB69134403F510631B6838
:103C3000FA6A5101FA690A4402F5106223F400138A
:103C40001360FB6A5A01FB69134403F530631A469B
:103C50004FF67F339360FB6A5A01FB69134403F507
:103C600030631B68FA6A5101FA690A4402F530624E
:103C700023F400131360FB6A5A01FB69134403F534
:103C800030631B68FA6A5101FA690A4402F530622E
:103C900043F000631360FB6A0133FB627B685B687F
:103CA000FA6A9A42B3D3FB6903F50063DB69FA69E8
:103CB00002F5006243F00113D3617B681B6B002B9C
:103CC00016D0FB6903F50063D3F88430FA6902F576
:103CD000006243F00B03C2F88430FB6903F5006314
:103CE0005B6CFA6902F5006243F00B03536415E064
:103CF000FB6903F500635B69FA6902F5006243F44E
:103D0000005343F02B035361FB6903F500631B6908
:103D1000FA6902F5006243F00B031361FB6903F5D6
:103D200000631B68FA6902F5006223F4FE63136006
:103D30007B6818687B681B69D9B27B6803F2C4434F
:103D40001A4603F02FFA7B681B685A697B681B6868
:103D500002F480525A617B681B68184603F05EF9D2
:103D6000034603F40053B3F5005F24D17B681B685E
:103D7000184603F0F4F97B681B68184602F0A9F9AD
:103D800003461A467B68DA607B681C6801F0E8F934
:103D900001467B68DB68DBB21A46204601F0A8FECC
:103DA000786805F024FD7B681B685A697B681B688E
:103DB00002F400525A617B681B68184603F02EF922
:103DC000034603F00803082B0AD1786805F001FDCB
:103DD0007B681B685A697B681B6802F008025A619D
:103DE0007B681B68184603F019F9034603F080034B
:103DF000802B22D13B6A9B6923F080023B6A9A6147
:103E000001237B6214E079687A6A1346DB0013446D
:103E10009B000B4403F27F231B78012B05D17B6AA7
:103E2000DBB21946786800F027FB7B6A01337B62BE
:103E30007B685B687A6A9A42E5D37B681B681846A0
:103E400003F0ECF8034603F48013B3F5801F3BD175
:103E500001237B622BE07B6A5A01FB69134403F563
:103E600010631B68BB6179687A6A1346DB001344F0
:103E70009B000B4440331B78012B15D1BB69002BF1
:103E800012DA79687A6A1346DB0013449B000B440C
:103E90003F3301221A707B6ADBB263F07F03DBB22F
:103EA0001946786800F0E8FA7B6A01337B627B6828
:103EB0005B687A6A9A42CED37B681B685A697B68D2
:103EC0001B6802F480125A617B681B68184603F075
:103ED000A5F8034603F40013B3F5001F55D10123E1
:103EE0007B6245E07B6A5A01FB69134403F530634A
:103EF0001B68BB6179687A6A1346DB0013449B0038
:103F00000B4403F520731B78012B2ED1BB69002BCA
:103F10002BDABB6903F480327B68D3F8FC3403F0FE
:103F200001039A4221D179687A6A1346DB0013446F
:103F30009B000B4403F27F2301221A703B6A9B69AA
:103F400043F080023B6A9A613B6A5B6903F080033D
:103F5000002B0AD1FB6903F500635B68FA6902F57F
:103F6000006243F40073536007E07B6A01337B62B5
:103F70007B685B687A6A9A42B4D37B681B685A692B
:103F80007B681B6802F400125A617B681B68184644
:103F900003F044F8034603F08043B3F1804F0AD1A5
:103FA000786805F09BFC7B681B685A697B681B6816
:103FB00002F080425A617B681B68184603F02EF8B5
:103FC000034603F00403042B15D17B681B685B6870
:103FD000BB61BB6903F00403002B02D0786805F0D5
:103FE0008BFC7B681B6859687B681B68BA690A434D
:103FF0005A6000E000BF3437BD4690BD80B582B046
:1040000000AF78600B46FB707B6893F8BC34012BE3
:1040100001D1022313E07B68012283F8BC247B6872
:10402000FA7883F838207B681B68FA7811461846BE
:1040300002F08CFF7B68002283F8BC240023184622
:104040000837BD4680BD80B584B000AF78600846B3
:1040500011461A460346FB700B463B801346BB7065
:104060000023FB7297F90330002B0FDAFB7803F083
:104070000F021346DB0013449B0038337A68134465
:104080000433FB60FB6801225A700FE0FB7803F0F9
:104090000F021346DB0013449B0003F51E737A687E
:1040A00013440433FB60FB6800225A70FB7803F072
:1040B0000F03DAB2FB681A703A88FB68DA60FB68B3
:1040C000BA781A71FB685B78002B04D0FB681B7808
:1040D0009AB2FB681A81BB78022B02D1FB680022DE
:1040E0005A717B6893F8BC34012B01D102230EE096
:1040F0007B68012283F8BC247B681B68F96818463A
:1041000002F00CF87B68002283F8BC24FB7A184686
:104110001037BD4680BD80B584B000AF78600B46D7
:10412000FB7097F90330002B0FDAFB7803F00F02D6
:104130001346DB0013449B0038337A68134404337E
:10414000FB60FB6801225A700FE0FB7803F00F025E
:104150001346DB0013449B0003F51E737A68134477
:104160000433FB60FB6800225A70FB7803F00F03F6
:10417000DAB2FB681A707B6893F8BC34012B01D16A
:1041800002230EE07B68012283F8BC247B681B6855
:10419000F968184602F04AF87B68002283F8BC24CC
:1041A000002318461037BD4680BD80B586B000AFED
:1041B000F8607A603B600B46FB72FB7A03F00F02FB
:1041C0001346DB0013449B0003F51E73FA68134487
:1041D00004337B617B697A681A617B693A689A610A
:1041E0007B6900221A627B6900225A70FB7A03F015
:1041F0000F03DAB27B691A70FB681B69012B02D1CD
:104200007A687B695A61FB7A03F00F03002B09D1AE
:10421000FB681868FB681B69DBB21A46796902F013
:1042200029FB08E0FB681868FB681B69DBB21A46CB
:10423000796902F0D7F8002318461837BD4680BDCB
:1042400080B483B000AF78600B46FB70FB7803F05E
:104250000F0279681346DB0013449B000B4403F5FF
:1042600027731B6818460C37BD465DF8047B704702
:1042700080B586B000AFF8607A603B600B46FB7299
:10428000FB7A03F00F021346DB0013449B00383324
:10429000FA68134404337B617B697A681A617B692D
:1042A0003A689A617B6900221A627B6901225A701E
:1042B000FB7A03F00F03DAB27B691A70FB681B69A3
:1042C000012B02D17A687B695A61FB7A03F00F03F4
:1042D000002B09D1FB681868FB681B69DBB21A4622
:1042E000796902F0C7FA08E0FB681868FB681B6987
:1042F000DBB21A46796902F075F8002318461837C0
:10430000BD4680BD80B584B000AF78600B46FB70C1
:10431000FB7803F00F027B685B689A4201D90123A6
:1043200050E097F90330002B0FDAFB7803F00F020F
:104330001346DB0013449B0038337A68134404337C
:10434000FB60FB6801225A700DE0FA781346DB002F
:1043500013449B0003F51E737A6813440433FB6017
:10436000FB6800225A70FB6801229A70FB7803F008
:104370000F03DAB2FB681A707B6893F8BC34012B28
:1043800001D102231EE07B68012283F8BC247B68F4
:104390001B68F968184602F005FDFB7803F00F036F
:1043A000002B0AD17B6818687B681B69D9B27B68CF
:1043B00003F2C4431A4602F0F5FE7B68002283F83C
:1043C000BC24002318461037BD4680BD80B584B09C
:1043D00000AF78600B46FB70FB7803F00F027B6840
:1043E0005B689A4201D9012342E097F90330002B20
:1043F0000FDAFB7803F00F021346DB0013449B0037
:1044000038337A6813440433FB60FB6801225A7026
:104410000FE0FB7803F00F021346DB0013449B0010
:1044200003F51E737A6813440433FB60FB680022B3
:104430005A70FB6800229A70FB7803F00F03DAB21F
:10444000FB681A707B6893F8BC34012B01D10223FE
:104450000EE07B68012283F8BC247B681B68F96846
:10446000184602F00DFD7B68002283F8BC2400236F
:1044700018461037BD4680BD80B584B000AF786067
:104480000B46FB7097F90330002B0CDAFB7803F036
:104490000F021346DB0013449B0038337A68134441
:1044A0000433FB600CE0FB7803F00F021346DB00E3
:1044B00013449B0003F51E737A6813440433FB60B6
:1044C0007B681B68F968184602F02CFB0346FB72F8
:1044D000FB7A18461037BD4680BD80B58AB002AF62
:1044E000786039607B681B687B617B693B613A68F7
:1044F0001346DB0013449B0038337A6813440433BB
:10450000FB60FB681A6AFB689B699A4201D9012328
:104510006CE0FB689A69FB681B6AD31AFB61FB6855
:10452000DB68FA699A4202D9FB68DB68FB61FB69C8
:1045300003339B08BB612BE0FB689A69FB681B6A2D
:10454000D31AFB61FB68DB68FA699A4202D9FB68FF
:10455000DB68FB61FB6903339B08BB61FB6819697E
:104560003B68DAB2FB6998B27B681B69DBB20093E7
:104570000346786902F080FBFB681A69FB691A44FC
:10458000FB681A61FB681A6AFB691A44FB681A62C5
:104590003B685A013B69134403F510639B699BB266
:1045A000BA699A4209D8FB681A6AFB689B699A4201
:1045B00003D2FB689B69002BBED1FB689A69FB683C
:1045C0001B6A9A4211D83B6803F00F03012202FADA
:1045D00003F3BB603B6903F500635A6BBB68DB43C5
:1045E000396901F5006113404B63002318462037F9
:1045F000BD4680BD80B588B000AF786039607B680B
:104600001B68FB61FB69BB61FB693C3304331B68BE
:104610007B613B685A01BB69134403F530639B68B7
:104620003B617B681B69012B7BD13B6903F008036D
:10463000002B15D07B69614A934240F2B9803B69F7
:1046400003F40043002B00F0B3803B685A01BB69C0
:10465000134403F530631A464FF400439360A7E018
:104660003B6903F02003002B09D03B685A01BB696A
:10467000134403F530631A462023936098E03B69A6
:1046800003F02803002B40F093807B694B4A934250
:104690000FD93B6903F40043002B0AD03B685A0151
:1046A000BB69134403F530631A464FF4004393602B
:1046B0007EE03A681346DB0013449B0003F51E734B
:1046C0007A6813440433FB60FB68DA693B6859017C
:1046D000BB690B4403F530631B69C3F31203D21AA1
:1046E000FB681A623B68002B14D1FB689B69002BA6
:1046F00009D17B6818687B6803F2C4431A4601211C
:1047000002F050FD06E0FB681A69FB681B6A1A4458
:10471000FB681A613B68DBB21946786805F024F83B
:1047200046E07B69264A934224D13B6903F4004367
:10473000002B0AD03B685A01BB69134403F5306370
:104740001A464FF40043936032E03B6903F02003C4
:10475000002B08D03B685A01BB69134403F5306352
:104760001A46202393603B68DBB21946786804F050
:10477000FBFF1DE03B68002B14D179683A681346B3
:10478000DB0013449B000B4403F525731B68002BCF
:1047900008D17B6818687B6803F2C4431A4600217D
:1047A00002F000FD3B68DBB21946786804F0DCFFDC
:1047B000002318462037BD4680BD00BF0A30544F45
:1047C0000A31544F80B586B000AF786039607B689D
:1047D0001B687B617B693B617B693C3304331B68ED
:1047E000FB603B685A013B69134403F530639B68E7
:1047F000BB60FB68154A93420ED9BB6803F40043C3
:10480000002B09D03B685A013B69134403F5306320
:104810001A464FF400439360786804F093FFFB68F6
:104820000A4A93420CD97B681B69012B08D17B682B
:1048300018687B6803F2C4431A46012102F0B2FCF7
:10484000002318461837BD4680BD00BF0A30544FBC
:1048500080B485B000AF78600B46FB7013463B8098
:104860007B681B685B6ABB60FB78002B07D13B88C9
:1048700019047B681B68BA680A439A6228E07B685F
:104880001B689B6A1B0CBA681344BB600023FB7354
:104890000DE07B681A68FB7B40339B0013445B6828
:1048A0001B0CBA681344BB60FB7B0133FB73FA7BC0
:1048B000FB78013B9A42ECD33B8818047B6819686B
:1048C000FB78013BBA68024340339B000B445A60BB
:1048D000002318461437BD465DF8047B704780B44A
:1048E00083B000AF78600B467B807B681B687A885A
:1048F0005A62002318460C37BD465DF8047B7047AA
:1049000080B483B000AF78600B46FB7000BF0C37FB
:10491000BD465DF8047B704780B586B000AF786017
:104920007B68002B01D1012367E27B681B6803F0E1
:104930000103002B75D0884B9B6803F00C03042BFC
:104940000CD0854B9B6803F00C03082B12D1824BD3
:104950005B6803F48003B3F5800F0BD17E4B1B68BB
:1049600003F40033002B5BD07B685B68002B57D1CE
:10497000012342E27B685B68B3F5803F06D1764B4A
:104980001B68754A43F4803313601DE07B685B68E5
:10499000B3F5A02F0CD1704B1B686F4A43F48023F2
:1049A00013606D4B1B686C4A43F4803313600BE05B
:1049B000694B1B68684A23F480331360664B1B689D
:1049C000654A23F4802313607B685B68002B13D057
:1049D000FDF76CFA386108E0FDF768FA02463B69BA
:1049E000D31A642B01D9032307E25B4B1B6803F442
:1049F0000033002BF0D014E0FDF758FA386108E0DE
:104A0000FDF754FA02463B69D31A642B01D90323FC
:104A1000F3E1514B1B6803F40033002BF0D100E0AD
:104A200000BF7B681B6803F00203002B63D04A4B76
:104A30009B6803F00C03002B0BD0474B9B6803F0E3
:104A40000C03082B1CD1444B5B6803F48003002B40
:104A500016D1414B1B6803F00203002B05D07B6885
:104A6000DB68012B01D00123C7E13B4B1B6823F01E
:104A7000F8027B681B69DB00374913430B603AE09F
:104A80007B68DB68002B20D0344B01221A60FDF7D5
:104A90000DFA386108E0FDF709FA02463B69D31ABE
:104AA000022B01D90323A8E12B4B1B6803F002035F
:104AB000002BF0D0284B1B6823F0F8027B681B69A1
:104AC000DB00254913430B6015E0244B00221A60DC
:104AD000FDF7ECF9386108E0FDF7E8F902463B69BB
:104AE000D31A022B01D9032387E11B4B1B6803F068
:104AF0000203002BF0D17B681B6803F00803002B36
:104B000036D07B685B69002B16D0154B01221A60EA
:104B1000FDF7CCF9386108E0FDF7C8F902463B69BA
:104B2000D31A022B01D9032367E10B4B5B6F03F010
:104B30000203002BF0D01BE0094B00221A60FDF7A6
:104B4000B5F938610EE0FDF7B1F902463B69D31AB9
:104B5000022B07D9032350E10038024000004742EE
:104B6000800E4742884B5B6F03F00203002BEAD1B3
:104B70007B681B6803F00403002B00F09780002380
:104B8000FB75814B1B6C03F08053002B0FD100236E
:104B9000BB607D4B1B6C7C4A43F0805313647A4BA3
:104BA0001B6C03F08053BB60BB680123FB75774B24
:104BB0001B6803F48073002B18D1744B1B68734A75
:104BC00043F480731360FDF771F9386108E0FDF775
:104BD0006DF902463B69D31A022B01D903230CE17C
:104BE0006A4B1B6803F48073002BF0D07B689B68D2
:104BF000012B06D1644B1B6F634A43F0010313671B
:104C00001CE07B689B68052B0CD15F4B1B6F5E4AD9
:104C100043F0040313675C4B1B6F5B4A43F00103D3
:104C200013670BE0584B1B6F574A23F001031367C0
:104C3000554B1B6F544A23F0040313677B689B6832
:104C4000002B15D0FDF732F938610AE0FDF72EF997
:104C500002463B69D31A41F28832934201D90323B9
:104C6000CBE0494B1B6F03F00203002BEED014E0A6
:104C7000FDF71CF938610AE0FDF718F902463B69B7
:104C8000D31A41F28832934201D90323B5E03E4B57
:104C90001B6F03F00203002BEED1FB7D012B05D12E
:104CA000394B1B6C384A23F0805313647B689B6933
:104CB000002B00F0A180344B9B6803F00C03082B01
:104CC0005CD07B689B69022B41D1314B00221A607A
:104CD000FDF7ECF8386108E0FDF7E8F802463B69BB
:104CE000D31A022B01D9032387E0274B1B6803F05B
:104CF0000073002BF0D17B68DA697B681B6A1A436A
:104D00007B685B6A9B011A437B689B6A5B08013B7B
:104D10001B041A437B68DB6A1B061B4913434B6069
:104D20001B4B01221A60FDF7C1F8386108E0FDF75E
:104D3000BDF802463B69D31A022B01D903235CE07C
:104D4000114B1B6803F00073002BF0D054E0104BA4
:104D500000221A60FDF7AAF8386108E0FDF7A6F80E
:104D600002463B69D31A022B01D9032345E0064BC7
:104D70001B6803F00073002BF0D13DE07B689B695A
:104D8000012B07D1012338E00038024000700040B9
:104D9000600047421B4B5B68FB607B689B69012B93
:104DA00028D0FB6803F480027B68DB699A4221D13A
:104DB000FB6803F03F027B681B6A9A421AD1FA68CB
:104DC00047F6C07313407A68526A9201934211D138
:104DD000FB6803F440327B689B6A5B08013B1B0461
:104DE0009A4207D1FB6803F070627B68DB6A1B069E
:104DF0009A4201D0012300E0002318461837BD462F
:104E000080BD00BF0038024080B584B000AF78603C
:104E100039607B68002B01D10123CCE0684B1B6813
:104E200003F007033A689A420CD9654B3A68D2B24C
:104E30001A70634B1B6803F007033A689A4201D06B
:104E40000123B8E07B681B6803F00203002B20D02D
:104E50007B681B6803F00403002B05D0594B9B684B
:104E6000584A43F4E05393607B681B6803F00803DF
:104E7000002B05D0534B9B68524A43F46043936028
:104E8000504B9B6823F0F0027B689B684D491343AD
:104E90008B607B681B6803F00103002B44D07B68A8
:104EA0005B68012B07D1474B1B6803F40033002BD1
:104EB00019D101237FE07B685B68022B03D07B68FC
:104EC0005B68032B07D13F4B1B6803F00073002B7B
:104ED00009D101236FE03B4B1B6803F00203002B59
:104EE00001D1012367E0374B9B6823F003027B6805
:104EF0005B68344913438B60FCF7D8FFF8600AE025
:104F0000FCF7D4FF0246FB68D31A41F28832934281
:104F100001D903234FE02B4B9B6803F00C027B6805
:104F20005B689B009A42EBD1254B1B6803F007039B
:104F30003A689A420CD2224B3A68D2B21A70204B8D
:104F40001B6803F007033A689A4201D0012332E05C
:104F50007B681B6803F00403002B08D0194B9B6887
:104F600023F4E0527B68DB68164913438B607B684F
:104F70001B6803F00803002B09D0124B9B6823F435
:104F800060427B681B69DB000E4913438B6000F0B5
:104F900021F802460B4B9B681B0903F00F030A49DB
:104FA000CB5C22FA03F3094A1360094B1B681846CD
:104FB000FCF738FF002318461037BD4680BD00BF00
:104FC000003C024000380240E8C80008040000200D
:104FD000080000202DE9B04F90B000AF00237B63A4
:104FE0000023FB6300233B630023BB63594B9B6897
:104FF00003F00C03082B0DD0082B00F2A180002B2E
:1050000002D0042B03D09BE0534BBB639BE0534B7C
:10501000BB6398E04F4B5B6803F03F037B634D4BF2
:105020005B6803F48003002B28D04A4B5B689B0924
:1050300000223B627A623B6AC3F308000021474BBF
:1050400003FB01F2002300FB03F31344434AA0FBDC
:105050000212FA620A46BA62FA6A1344FB627B6B76
:105060000022BB61FA61D7E90623D7E90A01FBF701
:10507000F3FD02460B461346FB6353E0354B5B687A
:105080009B0900223B617A613B69C3F3080A4FF038
:10509000000B52465B464FF000004FF000015901F3
:1050A00041EAD261500102460B46B2EB0A0863EBBB
:1050B0000B094FF000024FF000034FEA891343EA57
:1050C00098634FEA8812B2EB080463EB09054FF0CE
:1050D00000024FF00003EB0043EA5473E200144671
:1050E0001D4614EB0A033B6045EB0B037B604FF05E
:1050F00000024FF00003D7E9004529468B02214604
:1051000043EA915321468A02104619467B6B0022DE
:10511000BB60FA60D7E90223FBF79EFD02460B460F
:105120001346FB630B4B5B681B0C03F0030301335B
:105130005B003B63FA6B3B6BB2FBF3F3BB6302E0D8
:10514000054BBB6300BFBB6B18464037BD46BDE88F
:10515000B08F00BF003802400024F40040787D0189
:1051600080B400AF034B1B681846BD465DF8047B56
:10517000704700BF0400002080B500AFFFF7F0FFCC
:105180000246054B9B689B0A03F007030349CB5C6F
:1051900022FA03F3184680BD00380240F8C8000820
:1051A00080B582B000AF78607B68002B01D101230D
:1051B00041E07B6893F83D30DBB2002B06D17B6881
:1051C000002283F83C207868FCF7B8FD7B68022257
:1051D00083F83D207B681A687B68043319461046C3
:1051E00000F088FA7B68012283F846207B68012260
:1051F00083F83E207B68012283F83F207B680122F0
:1052000083F840207B68012283F841207B680122DB
:1052100083F842207B68012283F843207B680122C7
:1052200083F844207B68012283F845207B680122B3
:1052300083F83D20002318460837BD4680BD000096
:1052400080B485B000AF78607B6893F83D30DBB206
:10525000012B01D0012344E07B68022283F83D202A
:105260007B681B68DA687B681B6842F00102DA60C1
:105270007B681B681E4A934218D07B681B68B3F199
:10528000804F13D07B681B681A4A93420ED07B680C
:105290001B68194A934209D07B681B68174A9342DE
:1052A00004D07B681B68164A934211D17B681B6847
:1052B0009B6803F00703FB60FB68062B10D07B683C
:1052C0001B681A687B681B6842F001021A6007E0DD
:1052D0007B681B681A687B681B6842F001021A60D1
:1052E000002318461437BD465DF8047B704700BFA5
:1052F000000001400004004000080040000C004095
:105300000040014080B582B000AF78607B681B68C8
:105310001B6903F00203022B22D17B681B68DB6848
:1053200003F00203022B1BD17B681B686FF00202A3
:105330001A617B6801221A777B681B689B6903F0FE
:105340000303002B03D0786800F0B5F905E0786816
:1053500000F0A7F9786800F0B8F97B6800221A77A6
:105360007B681B681B6903F00403042B22D17B6854
:105370001B68DB6803F00403042B1BD17B681B68EC
:105380006FF004021A617B6802221A777B681B683F
:105390009B6903F44073002B03D0786800F08BF90D
:1053A00005E0786800F07DF9786800F08EF97B6898
:1053B00000221A777B681B681B6903F00803082B1F
:1053C00022D17B681B68DB6803F00803082B1BD124
:1053D0007B681B686FF008021A617B6804221A77E9
:1053E0007B681B68DB6903F00303002B03D078683C
:1053F00000F061F905E0786800F053F9786800F092
:1054000064F97B6800221A777B681B681B6903F0CC
:105410001003102B22D17B681B68DB6803F010039C
:10542000102B1BD17B681B686FF010021A617B6820
:1054300008221A777B681B68DB6903F44073002B32
:1054400003D0786800F037F905E0786800F029F9B2
:10545000786800F03AF97B6800221A777B681B684D
:105460001B6903F00103012B0ED17B681B68DB680D
:1054700003F00103012B07D17B681B686FF0010269
:105480001A617868FBF744FF7B681B681B6903F0AF
:105490008003802B0ED17B681B68DB6803F08003E0
:1054A000802B07D17B681B686FF080021A617868D7
:1054B00000F0B2FA7B681B681B6903F04003402BC5
:1054C0000ED17B681B68DB6803F04003402B07D1DB
:1054D0007B681B686FF040021A61786800F0FFF883
:1054E0007B681B681B6903F02003202B0ED17B68AF
:1054F0001B68DB6803F02003202B07D17B681B6847
:105500006FF020021A61786800F07CFA00BF08375B
:10551000BD4680BD80B584B000AF7860396000239F
:10552000FB737B6893F83C30012B01D10223B4E07C
:105530007B68012283F83C207B68022283F83D20AF
:105540007B681B689B68BB60BB6823F07703BB600C
:10555000BB6823F47F43BB607B681B68BA689A60B2
:105560003B681B68B3F5005F3ED0B3F5005F00F207
:105570008780B3F5805F00F08680B3F5805F7FD8C9
:10558000702B1AD0702B7BD8602B50D0602B77D823
:10559000502B3CD0502B73D8402B58D0402B6FD879
:1055A000302B64D0302B6BD8202B60D0202B67D8C9
:1055B000002B5CD0102B5AD062E07B6818683B68E7
:1055C00099683B685A683B68DB6800F08DF97B6836
:1055D0001B689B68BB60BB6843F07703BB607B685C
:1055E0001B68BA689A604FE07B6818683B689968E6
:1055F0003B685A683B68DB6800F076F97B681B689B
:105600009A687B681B6842F480429A603CE07B6841
:1056100018683B6859683B68DB681A4600F0EAF88E
:105620007B681B685021184600F043F92CE07B682A
:1056300018683B6859683B68DB681A4600F009F94E
:105640007B681B686021184600F033F91CE07B681A
:1056500018683B6859683B68DB681A4600F0CAF86E
:105660007B681B684021184600F023F90CE07B683A
:105670001A683B681B681946104600F01AF903E0E7
:105680000123FB7300E000BF7B68012283F83D200B
:105690007B68002283F83C20FB7B18461037BD4610
:1056A00080BD80B483B000AF786000BF0C37BD46CA
:1056B0005DF8047B704780B483B000AF786000BFB2
:1056C0000C37BD465DF8047B704780B483B000AFF3
:1056D000786000BF0C37BD465DF8047B704780B42E
:1056E00083B000AF786000BF0C37BD465DF8047B27
:1056F0007047000080B485B000AF786039607B6887
:105700001B68FB607B68344A93420FD07B68B3F11F
:10571000804F0BD07B68314A934207D07B68304A78
:10572000934203D07B682F4A934208D1FB6823F051
:105730007003FB603B685B68FA681343FB607B683F
:10574000254A93421BD07B68B3F1804F17D07B680A
:10575000224A934213D07B68214A93420FD07B6840
:10576000204A93420BD07B681F4A934207D07B6844
:105770001E4A934203D07B681D4A934208D1FB68BE
:1057800023F44073FB603B68DB68FA681343FB60FB
:10579000FB6823F080023B685B691343FB607B6816
:1057A000FA681A603B689A687B68DA623B681A6834
:1057B0007B689A627B68084A934203D13B681A6906
:1057C0007B681A637B6801225A6100BF1437BD46AB
:1057D0005DF8047B704700BF0000014000040040FA
:1057E00000080040000C004000400140004401401F
:1057F0000048014080B487B000AFF860B9607A60BB
:10580000FB681B6A7B61FB681B6A23F00102FB6873
:105810001A62FB689B693B613B6923F0F0033B61C3
:105820007B681B013A6913433B617B6923F00A03E0
:105830007B617A69BB6813437B61FB683A699A6153
:10584000FB687A691A6200BF1C37BD465DF8047BAD
:10585000704780B487B000AFF860B9607A60FB68C9
:105860001B6A23F01002FB681A62FB689B697B616C
:10587000FB681B6A3B617B6923F470437B617B6837
:105880001B037A6913437B613B6923F0A0033B61EF
:10589000BB681B013A6913433B61FB687A699A61F3
:1058A000FB683A691A6200BF1C37BD465DF8047B8D
:1058B000704780B485B000AF786039607B689B68C2
:1058C000FB60FB6823F07003FB603A68FB681343DE
:1058D00043F00703FB607B68FA689A6000BF1437E7
:1058E000BD465DF8047B704780B487B000AFF860B8
:1058F000B9607A603B60FB689B687B617B6923F4DD
:105900007F437B613B681A027B681A43BB68134381
:105910007A6913437B61FB687A699A6000BF1C3720
:10592000BD465DF8047B704780B485B000AF7860F9
:1059300039607B6893F83C30012B01D1022350E0A1
:105940007B68012283F83C207B68022283F83D209B
:105950007B681B685B68FB607B681B689B68BB603F
:10596000FB6823F07003FB603B681B68FA68134315
:10597000FB607B681B68FA685A607B681B681C4A7E
:10598000934218D07B681B68B3F1804F13D07B68BB
:105990001B68184A93420ED07B681B68164A9342D4
:1059A00009D07B681B68154A934204D07B681B684A
:1059B000134A93420CD1BB6823F08003BB603B6861
:1059C0005B68BA681343BB607B681B68BA689A60FF
:1059D0007B68012283F83D207B68002283F83C200D
:1059E000002318461437BD465DF8047B704700BF9E
:1059F000000001400004004000080040000C00408E
:105A00000040014080B483B000AF786000BF0C3725
:105A1000BD465DF8047B704780B483B000AF78600A
:105A200000BF0C37BD465DF8047B704784B080B57D
:105A300084B000AF786007F11C0080E80E003B6B7B
:105A4000012B22D17B689B6B23F480327B689A63A5
:105A50007B68DB6823F4840323F040037A68D36017
:105A60007B68DB6823F440127B68DA60FB6C012BF7
:105A700005D17B68DB6843F480127B68DA60786864
:105A800001F0EEFB0346FB731AE07B68DB6843F032
:105A900040027B68DA60786801F0E2FB0346FB7342
:105AA0003B6C002B06D17B689B6B43F480327B6898
:105AB0009A6305E07B689B6B23F480327B689A6372
:105AC000BB6A012B0BD17B689B6843F006027B68A5
:105AD0009A607B689B6843F020027B689A60FB7B3E
