:020000040800F2
:1000000000000220A5160008451200084B12000847
:1000100051120008571200085D120008000000008D
:100020000000000000000000000000006312000853
:1000300071120008000000007F1200088D120008F5
:10004000F5160008F5160008F5160008F516000864
:10005000F5160008F5160008F5160008F516000854
:10006000F5160008F5160008F5160008F516000844
:10007000F5160008F5160008F5160008F516000834
:10008000F516000899120008F51600080000000097
:10009000000000000000000000000000F51600084D
:1000A000F5160008F5160008F5160008F516000804
:1000B000F5160008F5160008AD120008F516000840
:1000C000F5160008F5160008F5160008F5160008E4
:1000D000F5160008F5160008C1120008000000001F
:1000E000F5160008F5160008F516000800000000D7
:1000F000000000000000000000000000F5160008ED
:1001000000000000F5160008F5160008F5160008B6
:1001100000000000000000000000000000000000DF
:10012000F5160008F5160008F5160008F516000883
:10013000F5160008000000000000000000000000AC
:10014000000000000000000000000000D5120008C0
:10015000F5160008F5160008F5160008F516000853
:10016000F5160008F5160008000000000000000069
:10017000000000000000000000000000000000007F
:1001800000000000F516000800000000000000005C
:08019000F5160008F516000841
:1001A00010B5054C237833B9044B13B10448AFF3B1
:1001B00000800123237010BDD00200200000000049
:1001C00084D0000808B5034B1BB103490348AFF3C3
:1001D000008008BD00000000D402002084D0000888
:1001E000034613F8012B002AFBD1181A0138704777
:1001F00001F0FF01102A2BDB10F0070F08D010F8D8
:10020000013B013A8B422DD010F0070F42B3F6D1DB
:10021000F0B441EA012141EA014122F007047FF0F4
:1002200000070023F0E80256083C85EA010586EA4B
:10023000010685FA47F5A3FA87F586FA47F6A5FA87
:1002400087F68EB9EED1F0BC01F0FF0102F0070293
:1002500032B110F8013B013A83EA010313B1F8D13E
:100260000020704701387047002D06BF354603381F
:10027000073815F0010F07D1013015F4807F02BF58
:10028000013015F4C03F0130F0BC0138704700BFA9
:1002900081F0004102E000BF83F0004330B54FEA37
:1002A00041044FEA430594EA050F08BF90EA020FA4
:1002B0001FBF54EA000C55EA020C7FEA645C7FEA37
:1002C000655C00F0E2804FEA5454D4EB5555B8BF5A
:1002D0006D420CDD2C4480EA020281EA030382EACB
:1002E000000083EA010180EA020281EA0303362D5D
:1002F00088BF30BD11F0004F4FEA01314FF4801C30
:100300004CEA113102D0404261EB410113F0004F41
:100310004FEA03334CEA133302D0524263EB4303F8
:1003200094EA050F00F0A780A4F10104D5F1200E96
:100330000DDB02FA0EFC22FA05F2801841F10001F1
:1003400003FA0EF2801843FA05F359410EE0A5F1C5
:1003500020050EF1200E012A03FA0EFC28BF4CF0F6
:10036000020C43FA05F3C01851EBE37101F00045AC
:1003700007D54FF0000EDCF1000C7EEB00006EEBB9
:100380000101B1F5801F1BD3B1F5001F0CD3490843
:100390005FEA30004FEA3C0C04F101044FEA44529A
:1003A00012F5800F80F09A80BCF1004F08BF5FEA21
:1003B000500C50F1000041EB045141EA050130BD01
:1003C0005FEA4C0C404141EB0101013C28BFB1F513
:1003D000801FE9D291F0000F04BF01460020B1FA5E
:1003E00081F308BF2033A3F10B03B3F120020CDA31
:1003F0000C3208DD02F1140CC2F10C0201FA0CF00F
:1004000021FA02F10CE002F11402D8BFC2F1200C73
:1004100001FA02F120FA0CFCDCBF41EA0C01904029
:10042000E41AA2BF01EB0451294330BD6FEA040472
:100430001F3C1CDA0C340EDC04F11404C4F120025D
:1004400020FA04F001FA02F340EA030021FA04F36F
:1004500045EA030130BDC4F10C04C4F1200220FAC6
:1004600002F001FA04F340EA0300294630BD21FA04
:1004700004F0294630BD94F0000F83F4801306BFCA
:1004800081F480110134013D4EE77FEA645C18BFBE
:100490007FEA655C29D094EA050F08BF90EA020F55
:1004A00005D054EA000C04BF1946104630BD91EA4D
:1004B000030F1EBF0021002030BD5FEA545C05D150
:1004C0004000494128BF41F0004130BD14F580048F
:1004D0003CBF01F5801130BD01F0004545F0FE4103
:1004E00041F470014FF0000030BD7FEA645C1ABF38
:1004F000194610467FEA655C1CBF0B46024650EA6F
:10050000013406BF52EA033591EA030F41F400219A
:1005100030BD00BF90F0000F04BF0021704730B520
:100520004FF4806404F132044FF000054FF00001F5
:1005300050E700BF90F0000F04BF0021704730B5B6
:100540004FF4806404F1320410F0004548BF40428B
:100550004FF000013EE700BF42004FEAE2014FEAE0
:1005600031014FEA02701FBF12F07F4393F07F4FBB
:1005700081F06051704732F07F4208BF704793F0BE
:100580007F4F04BF41F40021704730B54FF46074D1
:1005900001F0004521F000411CE700BF50EA0102D4
:1005A00008BF704730B54FF000050AE050EA01027D
:1005B00008BF704730B511F0004502D5404261EBED
:1005C00041014FF4806404F132045FEA915C3FF42E
:1005D000D8AE4FF003025FEADC0C18BF03325FEACB
:1005E000DC0C18BF033202EBDC02C2F1200300FA7C
:1005F00003FC20FA02F001FA03FE40EA0E0021FAA1
:1006000002F11444BDE600BF70B54FF0FF0C4CF48E
:10061000E06C1CEA11541DBF1CEA135594EA0C0F40
:1006200095EA0C0F00F0DEF82C4481EA030621EA7B
:100630004C5123EA4C5350EA013518BF52EA0335B6
:1006400041F4801143F4801338D0A0FB02CE4FF068
:100650000005E1FB02E506F00042E0FB03E54FF098
:100660000006E1FB03569CF0000F18BF4EF0010E90
:10067000A4F1FF04B6F5007F64F5407404D25FEA8C
:100680004E0E6D4146EB060642EAC62141EA55513F
:100690004FEAC52040EA5E504FEACE2EB4F1FD0C81
:1006A00088BFBCF5E06F1ED8BEF1004F08BF5FEAFF
:1006B000500E50F1000041EB045170BD06F00046B1
:1006C00046EA010140EA020081EA0301B4EB5C045E
:1006D000C2BFD4EB0C0541EA045170BD41F4801156
:1006E0004FF0000E013C00F3AB8014F1360FDEBF7B
:1006F000002001F0004170BDC4F10004203C35DA57
:100700000C341BDC04F11404C4F1200500FA05F3D9
:1007100020FA04F001FA05F240EA020001F000427A
:1007200021F0004110EBD37021FA04F642EB0601F0
:100730005EEA430E08BF20EAD37070BDC4F10C041A
:10074000C4F1200500FA04F320FA05F001FA04F2DE
:1007500040EA020001F0004110EBD37041F10001CA
:100760005EEA430E08BF20EAD37070BDC4F12005D5
:1007700000FA05F24EEA020E20FA04F301FA05F23D
:1007800043EA020321FA04F001F0004121FA04F2E5
:1007900020EA020000EBD3705EEA430E08BF20EAB5
:1007A000D37070BD94F0000F0FD101F000464000EF
:1007B00041EB010111F4801F08BF013CF7D041EA71
:1007C000060195F0000F18BF704703F00046520075
:1007D00043EB030313F4801F08BF013DF7D043EA46
:1007E0000603704794EA0C0F0CEA135518BF95EAFC
:1007F0000C0F0CD050EA410618BF52EA4306D1D183
:1008000081EA030101F000414FF0000070BD50EAA1
:10081000410606BF1046194652EA430619D094EA2B
:100820000C0F02D150EA013613D195EA0C0F05D115
:1008300052EA03361CBF104619460AD181EA030169
:1008400001F0004141F0FE4141F470014FF0000021
:1008500070BD41F0FE4141F4780170BD70B54FF0BC
:10086000FF0C4CF4E06C1CEA11541DBF1CEA13553C
:1008700094EA0C0F95EA0C0F00F0A7F8A4EB05041E
:1008800081EA030E52EA03354FEA013100F0888015
:100890004FEA03334FF0805545EA131343EA1263DE
:1008A0004FEA022245EA111545EA10654FEA002693
:1008B0000EF000419D4208BF964244F1FD0404F54C
:1008C000407402D25B084FEA3202B61A65EB0305A8
:1008D0005B084FEA32024FF480104FF4002CB6EB65
:1008E000020E75EB030E22BFB61A754640EA0C00E5
:1008F0005B084FEA3202B6EB020E75EB030E22BF25
:10090000B61A754640EA5C005B084FEA3202B6EB65
:10091000020E75EB030E22BFB61A754640EA9C0024
:100920005B084FEA3202B6EB020E75EB030E22BFF4
:10093000B61A754640EADC0055EA060E18D04FEAB2
:10094000051545EA16754FEA06164FEAC30343EA52
:1009500052734FEAC2025FEA1C1CC0D111F4801F1F
:100960000BD141EA00014FF000004FF0004CB6E718
:1009700011F4801F04BF01430020B4F1FD0C88BFB7
:10098000BCF5E06F3FF6AFAEB5EB030C04BFB6EBC2
:10099000020C5FEA500C50F1000041EB045170BDB5
:1009A0000EF0004E4EEA113114EB5C04C2BFD4EBE2
:1009B0000C0541EA045170BD41F480114FF0000E66
:1009C000013C90E645EA060E8DE60CEA135594EAE2
:1009D0000C0F08BF95EA0C0F3FF43BAF94EA0C0FE5
:1009E0000AD150EA01347FF434AF95EA0C0F7FF45A
:1009F00025AF104619462CE795EA0C0F06D152EAAE
:100A000003353FF4FDAE1046194622E750EA410691
:100A100018BF52EA43067FF4C5AE50EA41047FF4A2
:100A20000DAF52EA43057FF4EBAE12E74FF0FF3C07
:100A300006E000BF4FF0010C02E000BF4FF0010CD8
:100A40004DF804CD4FEA410C7FEA6C5C4FEA430C51
:100A500018BF7FEA6C5C1BD001B050EA410C0CBFA0
:100A600052EA430C91EA030F02BF90EA020F002002
:100A7000704710F1000F91EA030F58BF994208BF69
:100A800090422CBFD8176FEAE37040F00100704726
:100A90004FEA410C7FEA6C5C02D150EA013C07D17D
:100AA0004FEA430C7FEA6C5CD6D152EA033CD3D0C8
:100AB0005DF8040B704700BF8446104662468C46C2
:100AC0001946634600E000BF01B5FFF7B7FF0028F5
:100AD00048BF10F1000F01BD4DF808EDFFF7F4FF1E
:100AE0000CBF012000205DF808FB00BF4DF808EDA9
:100AF000FFF7EAFF34BF012000205DF808FB00BFCC
:100B00004DF808EDFFF7E0FF94BF012000205DF8ED
:100B100008FB00BF4DF808EDFFF7CEFF94BF0120A2
:100B200000205DF808FB00BF4DF808EDFFF7C4FF9B
:100B300034BF012000205DF808FB00BF4FEA410CE4
:100B40007FEA6C5C02D150EA013C0AD14FEA430CC7
:100B50007FEA6C5C02D152EA033C02D14FF0000004
:100B600070474FF0010070474FEA410212F5001242
:100B700015D211D56FF47873B3EB625212D94FEAE4
:100B8000C12343F0004343EA505311F0004F23FACE
:100B900002F018BF404270474FF00000704750EA23
:100BA000013005D111F0004008BF6FF000407047E0
:100BB0004FF00000704700BF53B94AB9002908BF81
:100BC00000281CBF4FF0FF314FF0FF3000F074B928
:100BD000ADF1080C6DE904CE00F006F8DDF804E094
:100BE000DDE9022304B070472DE9F047089D044673
:100BF0008E46002B4DD18A42944669D9B2FA82F2D0
:100C000052B101FA02F3C2F1200120FA01F10CFA0B
:100C100002FC41EA030E94404FEA1C48210CBEFB43
:100C2000F8F61FFA8CF708FB16E341EA034306FBCC
:100C300007F199420AD91CEB030306F1FF3080F05B
:100C40001F81994240F21C81023E63445B1AA4B2A8
:100C5000B3FBF8F008FB103344EA034400FB07F74A
:100C6000A7420AD91CEB040400F1FF3380F00A818B
:100C7000A74240F207816444023840EA0640E41B80
:100C800000261DB1D4400023C5E900433146BDE82C
:100C9000F0878B4209D9002D00F0EF800026C5E9CE
:100CA000000130463146BDE8F087B3FA83F6002EE6
:100CB0004AD18B4202D3824200F2F980841A61EB5E
:100CC000030301209E46002DE0D0C5E9004EDDE77C
:100CD00002B9FFDEB2FA82F2002A40F09280A1EB64
:100CE0000C014FEA1C471FFA8CFE0126200CB1FBB9
:100CF000F7F307FB131140EA01410EFB03F08842B2
:100D000008D91CEB010103F1FF3802D2884200F23E
:100D1000CB804346091AA4B2B1FBF7F007FB1011D0
:100D200044EA01440EFB00FEA64508D91CEB04046E
:100D300000F1FF3102D2A64500F2BB800846A4EBC9
:100D40000E0440EA03409CE7C6F12007B34022FAB4
:100D500007FC4CEA030C20FA07F401FA06F31C43E3
:100D6000F9404FEA1C4900FA06F3B1FBF9F8200CF0
:100D70001FFA8CFE09FB181140EA014108FB0EF036
:100D8000884202FA06F20BD91CEB010108F1FF3A86
:100D900080F08880884240F28580A8F10208614492
:100DA000091AA4B2B1FBF9F009FB101144EA0141A0
:100DB00000FB0EFE8E4508D91CEB010100F1FF344B
:100DC0006CD28E456AD90238614440EA0840A0FBE3
:100DD0000294A1EB0E01A142C846A64656D353D0B9
:100DE0005DB1B3EB080261EB0E0101FA07F722FADD
:100DF00006F3F1401F43C5E9007100263146BDE806
:100E0000F087C2F12003D8400CFA02FC21FA03F368
:100E1000914001434FEA1C471FFA8CFEB3FBF7F0E9
:100E200007FB10360B0C43EA064300FB0EF69E420E
:100E300004FA02F408D91CEB030300F1FF382FD2A7
:100E40009E422DD9023863449B1B89B2B3FBF7F64F
:100E500007FB163341EA034106FB0EF38B4208D928
:100E60001CEB010106F1FF3816D28B4214D9023E69
:100E70006144C91A46EA004638E72E46284605E787
:100E80000646E3E61846F8E64B45A9D2B9EB020858
:100E900064EB0C0E0138A3E74646EAE7204694E7E8
:100EA0004046D1E7D0467BE7023B614432E730461B
:100EB00009E76444023842E7704700BF80B582B05A
:100EC00000AF00237B600C4B1B6B0B4A43F40013F9
:100ED0001363094B1B6B03F400137B607B680022D8
:100EE0000021112000F079FD112000F092FD00BFDB
:100EF0000837BD4680BD00BF0038024080B588B0CD
:100F000000AF07F10C0300221A605A609A60DA60A1
:100F10001A610023BB60204B1B6B1F4A43F0040384
:100F200013631D4B1B6B03F00403BB60BB68002302
:100F30007B60194B1B6B184A43F080031363164BFD
:100F40001B6B03F080037B607B6800233B60124BCC
:100F50001B6B114A43F0010313630F4B1B6B03F030
:100F600001033B603B6800224FF400510B4801F045
:100F7000F1FA4FF40053FB6001233B6100237B61D6
:100F80000023BB6107F10C031946044801F05EF928
:100F900000BF2037BD4680BD003802400008024037
:100FA00080B59EB004AF00F0A7FB00F069F8FFF732
:100FB000A5FFFFF783FF00F053FA00F0C7FA08F02F
:100FC000C3FB294803F01EFA41F2883000F006FC0A
:100FD000642301222549264803F057FE12222549A1
:100FE000234803F0F5FE642301222049204803F042
:100FF0004CFE214B1B78DBB2002BFAD000233B6068
:101000003B1D60220021184609F0D8F800F0DAFBF9
:101010000146384610A3D3E90023CDE9022310A3EB
:10102000D3E90023CDE900230A46144909F066FDFF
:101030003B461846FFF7D4F8034687F8673097F821
:1010400067309AB23B461946094803F0C1FE0A4B85
:1010500000221A70CDE700BF000000400C42404063
:10106000000000E0CE772840F402002000000020BD
:101070003C03002030D10008EC020020A0D0000882
:1010800080B594B000AF07F120033022002118464C
:1010900009F094F807F10C0300221A605A609A6074
:1010A000DA601A610023BB60274B1B6C264A43F0B1
:1010B00080531364244B1B6C03F08053BB60BB68EC
:1010C00000237B60214B1B68204A43F4404313609C
:1010D0001E4B1B6803F440437B607B6801233B622B
:1010E0004FF480337B620223BB634FF48003FB63C6
:1010F00019233B64C0237B640223BB640423FB6489
:1011000007F12003184602F0D5FC0346002B01D05E
:1011100000F06AF80F23FB6002233B6100237B6130
:101120004FF48053BB610023FB6107F10C030321E3
:10113000184602F037FF0346002B01D000F054F8A8
:1011400000BF5037BD4680BD0038024000700040EF
:1011500080B584B000AFF860B9607A607B689BB2FC
:101160001946B86808F0AEFB03461A46084B1A70D9
:10117000074B1B78012BF1D0054B1B78032B01D1BA
:10118000002300E07B6818461037BD4680BD00BFD5
:10119000ED02002080B582B000AF78607B680E4A17
:1011A000934214D10D4B1B78322B0AD14FF40051CE
:1011B0000B4801F0E8F90B4B01221A70074B002293
:1011C0001A70064B1B780133DAB2044B1A7000BF59
:1011D0000837BD4680BD00BFF4020020010000209A
:1011E00000080240EC02002080B400AF72B600BFDD
:1011F000FEE7000080B483B000AF00237B60104B9B
:101200005B6C0F4A43F4804353640D4B5B6C03F4F7
:1012100080437B607B6800233B60094B1B6C084A62
:1012200043F080531364064B1B6C03F080533B6008
:101230003B6800BF0C37BD465DF8047B704700BFBC
:101240000038024080B400AFFEE780B400AFFEE794
:1012500080B400AFFEE780B400AFFEE780B400AF1B
:10126000FEE780B400AF00BFBD465DF8047B704769
:1012700080B400AF00BFBD465DF8047B704780B40A
:1012800000AF00BFBD465DF8047B704780B500AF7E
:1012900000F084FA00BF80BD80B500AF024800F0C6
:1012A0006BFD00BF80BD00BF8003002080B500AF94
:1012B000024803F009F900BF80BD00BFF40200201E
:1012C00080B500AF024803F001FE00BF80BD00BF43
:1012D0003C03002080B500AF024801F0BEFA00BF19
:1012E00080BD00BFC418002080B400AF01231846A1
:1012F000BD465DF8047B704780B582B000AF786072
:10130000396008F031FF034616221A604FF0FF33B0
:1013100018460837BD4680BD80B582B000AF786002
:101320004FF0FF317868FFF7E7FFFEE780B586B042
:1013300000AFF860B9607A6000237B610AE0AFF328
:1013400000800146BB685A1CBA60CAB21A707B6939
:1013500001337B617A697B689A42F0DB7B681846CF
:101360001837BD4680BD80B483B000AF78604FF0C1
:10137000FF3318460C37BD465DF8047B704780B4D8
:1013800083B000AF786039603B684FF400525A6018
:10139000002318460C37BD465DF8047B704780B4C7
:1013A00083B000AF7860012318460C37BD465DF866
:1013B000047B704780B485B000AFF860B9607A6094
:1013C000002318461437BD465DF8047B70470000C3
:1013D00080B586B000AF7860144A154BD31A7B6194
:1013E0007B693B61134B1B68002B02D1114B124AE6
:1013F0001A60104B1A687B6813443A699A4207D204
:1014000008F0B2FE03460C221A604FF0FF3309E0E9
:10141000084B1B68FB60074B1A687B681344054A3E
:101420001360FB6818461837BD4680BD00000220D7
:1014300000040000F00200200020002080B400AF73
:10144000064BD3F88830054A43F47003C2F888305D
:1014500000BFBD465DF8047B704700BF00ED00E0B3
:1014600080B586B000AF07F1080300221A605A6009
:101470009A60DA603B4600221A605A601D4B1E4A91
:101480001A601C4B40F2BF325A601A4B00229A601D
:10149000184B40F2E732DA60164B00221A61154B06
:1014A00080229A61134802F05DFF0346002B01D0B1
:1014B000FFF79AFE4FF48053BB6007F1080319460B
:1014C0000C4803F009F90346002B01D0FFF78CFE0E
:1014D00000233B6000237B603B461946054803F030
:1014E00005FB0346002B01D0FFF77EFE00BF183737
:1014F000BD4680BDF40200200008004080B584B0E5
:1015000000AF78607B681B680E4A934215D10023B8
:10151000FB600D4B1B6C0C4A43F0040313640A4B35
:101520001B6C03F00403FB60FB68002200211E20FB
:1015300000F053FA1E2000F06CFA00BF1037BD46D1
:1015400080BD00BF000800400038024080B500AFF9
:10155000114B124A1A60104B4FF4E1325A600E4B95
:1015600000229A600C4B0022DA600B4B00221A61B9
:10157000094B0C225A61084B00229A61064B00224B
:10158000DA61054803F034FB0346002B01D0FFF776
:101590002BFE00BF80BD00BF3C0300200044004084
:1015A00080B58AB000AF786007F1140300221A609A
:1015B0005A609A60DA601A617B681B68344A934209
:1015C00061D100233B61334B1B6C324A43F400333F
:1015D0001364304B1B6C03F400333B613B69002305
:1015E000FB602C4B1B6B2B4A43F001031363294B0D
:1015F0001B6B03F00103FB60FB680C237B61022380
:10160000BB610023FB6103233B6207237B6207F17D
:1016100014031946204800F019FE204B204A1A6096
:101620001E4B4FF000625A601C4B40229A601B4BCD
:101630000022DA60194B4FF480621A61174B0022C6
:101640005A61164B00229A61144B0022DA61134B47
:1016500000221A62114B00225A62104800F0F4F97D
:101660000346002B01D0FFF7BFFD7B680B4A5A638E
:101670000A4A7B68936300220021262000F0ADF91E
:10168000262000F0C6F900BF2837BD4680BD00BF48
:101690000044004000380240000002408003002067
:1016A000A0600240DFF834D00D480E490E4A0023F6
:1016B00002E0D458C4500433C4188C42F9D30B4A06
:1016C0000B4C002301E013600432A242FBD3FFF76E
:1016D000B5FE08F04FFDFFF763FC704700000220E5
:1016E00000000020D00200204CD50008D0020020CD
:1016F00000200020FEE7000080B500AF0E4B1B6805
:101700000D4A43F4007313600B4B1B680A4A43F401
:1017100080631360084B1B68074A43F480731360AF
:10172000032000F04FF90F2000F008F8FFF762FDEA
:101730000023184680BD00BF003C024080B582B047
:1017400000AF7860124B1A68124B1B7819464FF4A1
:101750007A73B3FBF1F3B2FBF3F3184600F067F9C9
:101760000346002B01D001230EE07B680F2B0AD823
:10177000002279684FF0FF3000F02FF9064A7B68AD
:101780001360002300E0012318460837BD4680BDE2
:10179000040000200C0000200800002080B400AFEE
:1017A000064B1B781A46064B1B681344044A136009
:1017B00000BFBD465DF8047B704700BF0C000020F1
:1017C000E003002080B400AF034B1B681846BD4601
:1017D0005DF8047B704700BFE003002080B584B053
:1017E00000AF7860FFF7EEFFB8607B68FB60FB68D6
:1017F000B3F1FF3F05D00A4B1B781A46FB68134430
:10180000FB6000BFFFF7DEFF0246BB68D31AFA6831
:101810009A42F7D800BF00BF1037BD4680BD00BF59
:101820000C00002080B485B000AF78607B6803F0C6
:101830000703FB600C4BDB68BB60BA684FF6FF0325
:101840001340BB60FB681A02BB68134343F0BF63DD
:1018500043F40033BB60044ABB68D36000BF143755
:10186000BD465DF8047B704700ED00E080B400AF3A
:10187000044BDB681B0A03F007031846BD465DF8FE
:10188000047B704700ED00E080B483B000AF0346F6
:10189000FB7197F90730002B0BDBFB7903F01F027C
:1018A000074997F907305B09012000FA02F241F875
:1018B000232000BF0C37BD465DF8047B704700BF96
:1018C00000E100E080B483B000AF03463960FB71F3
:1018D00097F90730002B0ADB3B68DAB20C4997F91D
:1018E00007301201D2B20B4483F800230AE03B68B0
:1018F000DAB20849FB7903F00F03043B1201D2B2BC
:101900000B441A7600BF0C37BD465DF8047B704768
:1019100000E100E000ED00E080B489B000AFF860C5
:10192000B9607A60FB6803F00703FB61FB69C3F1F0
:101930000703042B28BF0423BB61FB690433062B78
:1019400002D9FB69033B00E000237B614FF0FF32CB
:10195000BB6902FA03F3DA43BB681A407B699A4019
:101960004FF0FF317B6901FA03F3D9437B680B40E9
:10197000134318462437BD465DF8047B70470000CA
:1019800080B582B000AF78607B68013BB3F1807FA7
:1019900001D301230FE00A4A7B68013B53600F210A
:1019A0004FF0FF30FFF78EFF054B00229A60044B8B
:1019B00007221A60002318460837BD4680BD00BFC5
:1019C00010E000E080B582B000AF78607868FFF783
:1019D00029FF00BF0837BD4680BD80B586B000AF87
:1019E0000346B9607A60FB7300237B61FFF73EFF1B
:1019F00078617A68B9687869FFF78EFF024697F9CF
:101A00000F3011461846FFF75DFF00BF1837BD467F
:101A100080BD80B582B000AF0346FB7197F90730F7
:101A20001846FFF731FF00BF0837BD4680BD80B5BF
:101A300082B000AF78607868FFF7A2FF03461846CF
:101A40000837BD4680BD000080B586B000AF786025
:101A500000237B61FFF7B6FE38617B68002B01D164
:101A6000012399E07B68022283F835207B680022FD
:101A700083F834207B681B681A687B681B6822F037
:101A800001021A600FE0FFF79DFE02463B69D31A80
:101A9000052B08D97B6820225A657B68032283F8CE
:101AA0003520032378E07B681B681B6803F0010383
:101AB000002BE8D17B681B681B687B617A69384B17
:101AC00013407B617B685A687B689B681A437B681C
:101AD000DB681A437B681B691A437B685B691A439E
:101AE0007B689B691A437B68DB691A437B681B6AC6
:101AF00013437A6913437B617B685B6A042B07D1CC
:101B00007B68DA6A7B681B6B13437A6913437B61DA
:101B10007B681B687A691A607B681B685B697B61FC
:101B20007B6923F007037B617B685B6A7A691343F7
:101B30007B617B685B6A042B17D17B689B6A7A693F
:101B400013437B617B68DB6A002B0ED0786800F062
:101B500001FB0346002B08D07B6840225A657B6856
:101B6000012283F83520012316E07B681B687A691F
:101B70005A61786800F0B8FA0346FB607B68DB6D59
:101B80003F229A40FB689A607B6800225A657B6816
:101B9000012283F83520002318461837BD4680BD42
:101BA0003F8010F080B586B000AFF860B9607A6011
:101BB0003B600023FB75FB689B6D3B61FB6893F802
:101BC0003430012B01D1022340E0FB68012283F86D
:101BD0003420FB6893F83530DBB2012B2FD1FB6842
:101BE000022283F83520FB6800225A653B687A6838
:101BF000B968F86800F04AFAFB68DB6D3F229A404A
:101C00003B699A60FB681B681A68FB681B6842F0B6
:101C100016021A60FB681B6C002B07D0FB681B6860
:101C20001A68FB681B6842F008021A60FB681B68B0
:101C30001A68FB681B6842F001021A6005E0FB6845
:101C4000002283F834200223FB75FB7D18461837E9
:101C5000BD4680BD80B584B000AF78607B689B6D69
:101C6000FB60FFF7AFFDB8607B6893F83530DBB2FF
:101C7000022B08D07B6880225A657B68002283F89B
:101C80003420012352E07B681B681A687B681B685C
:101C900022F016021A607B681B685A697B681B6811
:101CA00022F080025A617B681B6C002B03D17B6899
:101CB0009B6C002B07D07B681B681A687B681B68CD
:101CC00022F008021A607B681B681A687B681B6830
:101CD00022F001021A6013E0FFF774FD0246BB68B0
:101CE000D31A052B0CD97B6820225A657B68032206
:101CF00083F835207B68002283F83420032315E025
:101D00007B681B681B6803F00103002BE4D17B6830
:101D1000DB6D3F229A40FB689A607B68012283F862
:101D200035207B68002283F83420002318461037C2
:101D3000BD4680BD80B483B000AF78607B6893F807
:101D40003530DBB2022B04D07B6880225A65012338
:101D50000CE07B68052283F835207B681B681A68D5
:101D60007B681B6822F001021A60002318460C37BA
:101D7000BD465DF8047B704780B586B000AF7860E3
:101D80000023BB608E4B1B688E4AA2FB03239B0A79
:101D90007B617B689B6D3B613B691B68FB607B687B
:101DA000DB6D08229A40FB681340002B1AD07B6839
:101DB0001B681B6803F00403002B13D07B681B68AF
:101DC0001A687B681B6822F004021A607B68DB6D6E
:101DD00008229A403B699A607B685B6D43F0010280
:101DE0007B685A657B68DB6D01229A40FB68134073
:101DF000002B12D07B681B685B6903F08003002B0B
:101E00000BD07B68DB6D01229A403B699A607B684E
:101E10005B6D43F002027B685A657B68DB6D0422D0
:101E20009A40FB681340002B12D07B681B681B682C
:101E300003F00203002B0BD07B68DB6D04229A4079
:101E40003B699A607B685B6D43F004027B685A656E
:101E50007B68DB6D10229A40FB681340002B43D057
:101E60007B681B681B6803F00803002B3CD07B6871
:101E7000DB6D10229A403B699A607B681B681B6887
:101E800003F48023002B18D07B681B681B6803F4C5
:101E90000023002B08D17B681B6C002B24D07B68AF
:101EA0001B6C786898471FE07B689B6C002B1BD0ED
:101EB0007B689B6C7868984716E07B681B681B689A
:101EC00003F48073002B07D17B681B681A687B685A
:101ED0001B6822F008021A607B681B6C002B03D081
:101EE0007B681B6C786898477B68DB6D20229A4082
:101EF000FB681340002B00F08F807B681B681B6819
:101F000003F01003002B00F087807B68DB6D20223C
:101F10009A403B699A607B6893F83530DBB2052BB9
:101F200036D17B681B681A687B681B6822F0160232
:101F30001A607B681B685A697B681B6822F0800204
:101F40005A617B681B6C002B03D17B689B6C002B58
:101F500007D07B681B681A687B681B6822F0080240
:101F60001A607B68DB6D3F229A403B699A607B6810
:101F7000012283F835207B68002283F834207B68B7
:101F80001B6D002B7ED07B681B6D7868984779E0CD
:101F90007B681B681B6803F48023002B1DD07B68C3
:101FA0001B681B6803F40023002B0DD17B685B6C5E
:101FB000002B31D07B685B6C786898472CE000BFC1
:101FC00004000020B5814E1B7B68DB6B002B23D007
:101FD0007B68DB6B786898471EE07B681B681B6832
:101FE00003F48073002B0FD17B681B681A687B6831
:101FF0001B6822F010021A607B68012283F83520EA
:102000007B68002283F834207B68DB6B002B03D0D5
:102010007B68DB6B786898477B685B6D002B32D000
:102020007B685B6D03F00103002B22D07B680522E7
:1020300083F835207B681B681A687B681B6822F070
:1020400001021A60BB680133BB607A699A4207D308
:102050007B681B681B6803F00103002BF2D100E0D2
:1020600000BF7B68012283F835207B68002283F85B
:1020700034207B68DB6C002B05D07B68DB6C7868D8
:10208000984700E000BF1837BD4680BD80B485B0DA
:1020900000AFF860B9607A603B60FB681B681A6843
:1020A000FB681B6822F480221A60FB681B683A6890
:1020B0005A60FB689B68402B08D1FB681B687A68F4
:1020C0009A60FB681B68BA68DA6007E0FB681B6807
:1020D000BA689A60FB681B687A68DA6000BF1437D8
:1020E000BD465DF8047B704780B485B000AF786072
:1020F0007B681B68DBB2103B144AA2FB03231B095D
:10210000FB60134AFB6813441B781A467B68DA6548
:10211000FB68032B09D97B681B6823F47F7323F0CA
:1021200003031A1D7B689A6507E07B681B6823F42C
:102130007F7323F003037A6893657B689B6D184671
:102140001437BD465DF8047B704700BFABAAAAAA4E
:102150005CD1000880B485B000AF78600023FB73C9
:102160007B689B6ABB607B689B69002B1FD1BB6847
:10217000032B56D801A252F823F000BF8D2100088E
:102180009F2100088D210008232200087B68DB6A5C
:1021900003F08073002B46D00123FB7343E07B6880
:1021A000DB6AB3F1C07F40D10123FB733DE07B6864
:1021B0009B69B3F5005F21D1BB68032B37D801A21F
:1021C00052F823F0D5210008DB210008D5210008B2
:1021D000ED2100080123FB7330E07B68DB6A03F02C
:1021E0008073002B25D00123FB7322E07B68DB6A20
:1021F000B3F1C07F1FD10123FB731CE0BB68022B2E
:1022000003D9BB68032B03D018E00123FB7315E04F
:102210007B68DB6A03F08073002B0ED00123FB7315
:102220000BE000BF0AE000BF08E000BF06E000BF0F
:1022300004E000BF02E000BF00E000BFFB7B1846E7
:102240001437BD465DF8047B704700BF80B489B089
:1022500000AF7860396000237B6100233B6100237D
:10226000BB610023FB6159E10122FB6902FA03F320
:102270007B613B681B687A6913403B613A697B6903
:102280009A4240F048813B685B6803F00303012BEE
:1022900005D03B685B6803F00303022B30D17B68F9
:1022A0009B68BB61FB695B00032202FA03F3DB431B
:1022B000BA691340BB613B68DA68FB695B0002FAEC
:1022C00003F3BA691343BB617B68BA699A607B68A0
:1022D0005B68BB610122FB6902FA03F3DB43BA6965
:1022E0001340BB613B685B681B0903F00102FB699B
:1022F00002FA03F3BA691343BB617B68BA695A6097
:102300003B685B6803F00303032B17D07B68DB6833
:10231000BB61FB695B00032202FA03F3DB43BA698A
:102320001340BB613B689A68FB695B0002FA03F3E8
:10233000BA691343BB617B68BA69DA603B685B6862
:1023400003F00303022B23D1FB69DA087B68083210
:1023500053F82230BB61FB6903F007039B000F2297
:1023600002FA03F3DB43BA691340BB613B681A69A5
:10237000FB6903F007039B0002FA03F3BA691343F6
:10238000BB61FB69DA087B680832B96943F822103F
:102390007B681B68BB61FB695B00032202FA03F3E5
:1023A000DB43BA691340BB613B685B6803F003021F
:1023B000FB695B0002FA03F3BA691343BB617B68F4
:1023C000BA691A603B685B6803F44033002B00F085
:1023D000A2800023FB60574B5B6C564A43F480435A
:1023E0005364544B5B6C03F48043FB60FB68524ABC
:1023F000FB699B08023352F82330BB61FB6903F091
:1024000003039B000F2202FA03F3DB43BA69134074
:10241000BB617B68494A934219D07B68484A934222
:1024200013D07B68474A93420DD07B68464A93425B
:1024300007D07B68454A934201D1042308E0072373
:1024400006E0032304E0022302E0012300E000236E
:10245000FA6902F0030292009340BA691343BB6128
:102460003549FB699B080233BA6941F82320384B90
:102470009B68BB613B69DB43BA691340BB613B6846
:102480005B6803F48013002B03D0BA693B691343E4
:10249000BB612F4ABB6993602D4BDB68BB613B6915
:1024A000DB43BA691340BB613B685B6803F400130C
:1024B000002B03D0BA693B691343BB61244ABB6953
:1024C000D360234B5B68BB613B69DB43BA69134054
:1024D000BB613B685B6803F40033002B03D0BA692F
:1024E0003B691343BB611A4ABB695360184B1B68B5
:1024F000BB613B69DB43BA691340BB613B685B6806
:1025000003F48033002B03D0BA693B691343BB61EA
:102510000F4ABB691360FB690133FB61FB690F2B39
:102520007FF6A2AE00BF00BF2437BD465DF8047B36
:10253000704700BF003802400038014000000240F0
:102540000004024000080240000C0240001002405B
:10255000003C014080B483B000AF78600B467B80C4
:1025600013467B707B78002B03D07A887B689A6156
:1025700003E07B881A047B689A6100BF0C37BD4674
:102580005DF8047B704780B485B000AF78600B467F
:102590007B807B685B69FB607A88FB6813401A0468
:1025A000FB68D9437B880B401A437B689A6100BF64
:1025B0001437BD465DF8047B7047F0B58FB00AAFA5
:1025C00078607B68002B01D101230FE17B681B68D9
:1025D000BB607B6893F8BD34DBB2002B06D17B680F
:1025E000002283F8BC24786807F0B4FA7B680322E1
:1025F00083F8BD24BB68DB6B03F48073002B02D12E
:102600007B6800221A617B681B68184603F07FFD17
:102610007B681B683B607E686D4606F110040FCC3A
:102620000FC50FCC0FC594E8030085E80300331DE8
:102630000ECB386803F056FC0346002B05D07B68B0
:10264000022283F8BD240123D0E07B681B680021AF
:10265000184603F06DFD0023FB734AE0FA7B7968AE
:102660001346DB0013449B000B443D3301221A70D8
:10267000FA7B79681346DB0013449B000B443C3320
:10268000FA7B1A70FA7BFB7B98B279681346DB0001
:1026900013449B000B44443302461A80FA7B79684A
:1026A0001346DB0013449B000B44403300221A7096
:1026B000FA7B79681346DB0013449B000B444833D4
:1026C00000221A60FA7B79681346DB0013449B00F2
:1026D0000B444C3300221A60FA7B79681346DB0006
:1026E00013449B000B44543300221A60FB7B0133DC
:1026F000FB73FA7B7B685B689A42AFD30023FB7362
:1027000044E0FA7B79681346DB0013449B000B44DA
:1027100003F27D2300221A70FA7B79681346DB00EE
:1027200013449B000B4403F51F73FA7B1A70FA7B6A
:1027300079681346DB0013449B000B4403F52073B8
:1027400000221A70FA7B79681346DB0013449B0061
:102750000B4403F5227300221A60FA7B7968134652
:10276000DB0013449B000B4403F5237300221A6023
:10277000FA7B79681346DB0013449B000B4403F596
:10278000257300221A60FB7B0133FB73FA7B7B68A5
:102790005B689A42B5D37B681B683B607E686D4678
:1027A00006F110040FCC0FC50FCC0FC594E8030041
:1027B00085E80300331D0ECB386803F005FD0346A2
:1027C000002B05D07B68022283F8BD2401230DE095
:1027D0007B68002283F838207B68012283F8BD24BF
:1027E0007B681B68184604F054FE00231846143713
:1027F000BD46F0BD80B584B000AF78607B681B68D3
:10280000FB607B6893F8BC34012B01D1022320E0EC
:102810007B68012283F8BC247B689B6A012B09D169
:102820007B689B69012B05D0FB689B6B43F480326E
:10283000FB689A637B681B68184603F057FC7B684B
:102840001B68184604F004FE7B68002283F8BC2451
:10285000002318461037BD4680BD90B58DB000AF3F
:1028600078607B681B683B623B6AFB617B681B6826
:10287000184604F0C2FE0346002B40F08A847B68B1
:102880001B68184604F026FE0346002B00F08084E7
:10289000FB6903F500639B681B0AC3F30D027B68A9
:1028A000C3F8FC247B681B68184604F013FE03463B
:1028B00003F00203022B07D17B681B685A697B680F
:1028C0001B6802F002025A617B681B68184604F01C
:1028D00001FE034603F01003102B61D17B681B68D7
:1028E0009A697B681B6822F010029A613B6A1B6A36
:1028F000BB61BB6903F00F021346DB0013449B006E
:1029000003F51E737A68134404337B61BB695B0C67
:1029100003F00F03022B24D1BA6947F6F07313407A
:10292000002B35D07B691969BB691B099BB2C3F3C6
:102930000A039BB21A46386A04F038FC7B691A69AC
:10294000BB691B09C3F30A031A447B691A617B69DB
:102950001A6ABB691B09C3F30A031A447B691A622A
:1029600016E0BB695B0C03F00F03062B10D17B68EC
:1029700003F2C44308221946386A04F017FC7B6945
:102980001A6ABB691B09C3F30A031A447B691A62FA
:102990007B681B689A697B681B6842F010029A6129
:1029A0007B681B68184604F095FD034603F400237A
:1029B000B3F5002F40F0A78000237B627B681B6883
:1029C000184604F09AFDB86299E0BB6A03F001036F
:1029D000002B00F08E807B681B687A6AD2B21146A9
:1029E000184604F0BEFD38613B6903F00103002B7B
:1029F0000CD07B6A5A01FB69134403F530631A4615
:102A000001239360796A786800F0C2FE3B6903F0A5
:102A10000803002B0CD07B6A5A01FB69134403F5B1
:102A200030631A4608239360796A786800F098FF4B
:102A30003B6903F01003002B08D07B6A5A01FB6945
:102A4000134403F530631A46102393603B6903F087
:102A50000203002B30D03B6A5B6903F08003802BBC
:102A600009D1FB6903F500635B68FA6902F500624E
:102A700043F4806353607A6A1346DB0013449B007F
:102A800003F51E737A68134404337B617B69DB783A
:102A9000012B08D17B690022DA707B6ADBB2194610
:102AA000786807F053F97B6A5A01FB69134403F510
:102AB00030631A46022393603B6903F02003002B26
:102AC00008D07B6A5A01FB69134403F530631A4648
:102AD000202393603B6903F40053002B09D07B6AE9
:102AE0005A01FB69134403F530631A464FF400534F
:102AF00093607B6A01337B62BB6A5B08BB62BB6A23
:102B0000002B7FF462AF7B681B68184604F0E2FC80
:102B1000034603F48023B3F5802F40F0DB807B680D
:102B20001B68184604F003FDB86200237B62CDE009
:102B3000BB6A03F00103002B00F0C2807B681B68B6
:102B40007A6AD2B21146184604F029FD38613B6911
:102B500003F00103002B57D07B6A03F00F0301221F
:102B600002FA03F3FB60FB6903F500635A6BFB6831
:102B7000DB43F96901F5006113404B637B6A5A013D
:102B8000FB69134403F510631A46012393607B68C5
:102B90001B69012B32D179687A6A1346DB00134432
:102BA0009B000B444C33196878687A6A1346DB0043
:102BB00013449B00034448331B68194478687A6ABD
:102BC0001346DB0013449B0003444C3319607B6ABB
:102BD000002B13D179687A6A1346DB0013449B00FB
:102BE0000B4454331B68002B08D17B6818687B6842
:102BF00003F2C4431A46012104F030FD7B6ADBB2C4
:102C00001946786807F027F83B6903F00803002BA2
:102C100008D07B6A5A01FB69134403F510631A4616
:102C2000082393603B6903F01003002B08D07B6AF4
:102C30005A01FB69134403F510631A46102393608D
:102C40003B6903F04003002B08D07B6A5A01FB6903
:102C5000134403F510631A46402393603B6903F065
:102C60000203002B23D0796A386A03F011FC7A6AD8
:102C70001346DB0013449B0038337A681344043353
:102C80007B617B69DB78012B08D17B690022DA70DC
:102C90007B6ADBB21946786807F06AF87B6A5A01EA
:102CA000FB69134403F510631A46022393603B69E2
:102CB00003F08003002B03D0796A786800F0DBFC16
:102CC0007B6A01337B62BB6A5B08BB62BB6A002B19
:102CD0007FF42EAF7B681B68184604F0FBFB0346AD
:102CE00003F00043B3F1004F22D1FB6903F5006309
:102CF0005B68FA6902F5006223F0010353607B68A8
:102D000093F8F434012B08D17B68002283F8F42473
:102D10000021786800F0C2FE02E0786807F008F849
:102D20007B681B685A697B681B6802F000425A6125
:102D30007B681B68184604F0CDFB034603F4006370
:102D4000B3F5006F12D1FB6903F500639B6803F0D4
:102D50000103012B02D1786806F0C4FF7B681B6871
:102D60005A697B681B6802F400625A617B681B68C1
:102D7000184604F0AFFB034603F48053B3F5805FBD
:102D800040F0B780FB6903F500635B68FA6902F500
:102D9000006223F0010353607B681B681021184612
:102DA00003F076FB0023FB6246E0FB6A5A01FB69F5
:102DB000134403F510631A464FF67F339360FB6AA2
:102DC0005A01FB69134403F510631B68FA6A510149
:102DD000FA690A4402F5106223F400131360FB6AD7
:102DE0005A01FB69134403F530631A464FF67F33EB
:102DF0009360FB6A5A01FB69134403F530631B6857
:102E0000FA6A5101FA690A4402F5306223F40013A8
:102E10001360FB6A5A01FB69134403F530631B68B6
:102E2000FA6A5101FA690A4402F5306243F000631C
:102E30001360FB6A0133FB627B685B68FA6A9A4243
:102E4000B3D3FB6903F50063DB69FA6902F500623D
:102E500043F00113D3617B681B6B002B16D0FB6919
:102E600003F50063D3F88430FA6902F5006243F099
:102E70000B03C2F88430FB6903F500635B6CFA69ED
:102E800002F5006243F00B03536415E0FB6903F5A0
:102E900000635B69FA6902F5006243F4005343F092
:102EA0002B035361FB6903F500631B69FA6902F5A3
:102EB000006243F00B031361FB6903F500631B68B9
:102EC000FA6902F5006223F4FE6313607B681868F8
:102ED0007B681B69D9B27B6803F2C4431A4604F0CD
:102EE000BDFB7B681B685A697B681B6802F48052D3
:102EF0005A617B681B68184604F0ECFA034603F439
:102F00000053B3F5005F24D17B681B68184604F0BA
:102F100082FB7B681B68184603F037FB03461A46A2
:102F20007B68DA607B681C6801F0E8F901467B6821
:102F3000DB68DBB21A46204603F036F8786806F004
:102F4000B2FE7B681B685A697B681B6802F40052FA
:102F50005A617B681B68184604F0BCFA034603F00C
:102F60000803082B0AD1786806F08FFE7B681B687F
:102F70005A697B681B6802F008025A617B681B680B
:102F8000184604F0A7FA034603F08003802B22D1F1
:102F90003B6A9B6923F080023B6A9A6101237B6252
:102FA00014E079687A6A1346DB0013449B000B44F3
:102FB00003F27F231B78012B05D17B6ADBB2194614
:102FC000786800F027FB7B6A01337B627B685B6873
:102FD0007A6A9A42E5D37B681B68184604F07AFA4D
:102FE000034603F48013B3F5801F3BD101237B62BA
:102FF0002BE07B6A5A01FB69134403F510631B68DD
:10300000BB6179687A6A1346DB0013449B000B446A
:1030100040331B78012B15D1BB69002B12DA79687C
:103020007A6A1346DB0013449B000B443F330122B2
:103030001A707B6ADBB263F07F03DBB219467868F3
:1030400000F0E8FA7B6A01337B627B685B687A6A2E
:103050009A42CED37B681B685A697B681B6802F46E
:1030600080125A617B681B68184604F033FA0346E5
:1030700003F40013B3F5001F55D101237B6245E033
:103080007B6A5A01FB69134403F530631B68BB611B
:1030900079687A6A1346DB0013449B000B4403F5FE
:1030A00020731B78012B2ED1BB69002B2BDABB6957
:1030B00003F480327B68D3F8FC3403F001039A42B6
:1030C00021D179687A6A1346DB0013449B000B44D4
:1030D00003F27F2301221A703B6A9B6943F080024E
:1030E0003B6A9A613B6A5B6903F08003002B0AD15B
:1030F000FB6903F500635B68FA6902F5006243F45B
:103100000073536007E07B6A01337B627B685B6816
:103110007A6A9A42B4D37B681B685A697B681B68D9
:1031200002F400125A617B681B68184604F0D2F959
:10313000034603F08043B3F1804F0AD1786806F06C
:1031400029FE7B681B685A697B681B6802F0804215
:103150005A617B681B68184604F0BCF9034603F00B
:103160000403042B15D17B681B685B68BB61BB69DA
:1031700003F00403002B02D0786806F019FE7B6888
:103180001B6859687B681B68BA690A435A6000E08B
:1031900000BF3437BD4690BD80B582B000AF7860C7
:1031A0000B46FB707B6893F8BC34012B01D10223E2
:1031B00013E07B68012283F8BC247B68FA7883F8EB
:1031C00038207B681B68FA781146184604F01AF913
:1031D0007B68002283F8BC24002318460837BD46CC
:1031E00080BD80B584B000AF7860084611461A46AD
:1031F0000346FB700B463B801346BB700023FB72FB
:1032000097F90330002B0FDAFB7803F00F02134617
:10321000DB0013449B0038337A6813440433FB60AB
:10322000FB6801225A700FE0FB7803F00F0213468F
:10323000DB0013449B0003F51E737A6813440433C8
:10324000FB60FB6800225A70FB7803F00F03DAB2D0
:10325000FB681A703A88FB68DA60FB68BA781A7102
:10326000FB685B78002B04D0FB681B789AB2FB6884
:103270001A81BB78022B02D1FB6800225A717B684D
:1032800093F8BC34012B01D102230EE07B680122AC
:1032900083F8BC247B681B68F968184603F09AF928
:1032A0007B68002283F8BC24FB7A18461037BD46A1
:1032B00080BD80B584B000AF78600B46FB7097F995
:1032C0000330002B0FDAFB7803F00F021346DB000C
:1032D00013449B0038337A6813440433FB60FB6863
:1032E00001225A700FE0FB7803F00F021346DB0057
:1032F00013449B0003F51E737A6813440433FB6088
:10330000FB6800225A70FB7803F00F03DAB2FB6807
:103310001A707B6893F8BC34012B01D102230EE0B4
:103320007B68012283F8BC247B681B68F968184617
:1033300003F0D8F97B68002283F8BC2400231846E8
:103340001037BD4680BD80B586B000AFF8607A60AA
:103350003B600B46FB72FB7A03F00F021346DB0067
:1033600013449B0003F51E73FA68134404337B6116
:103370007B697A681A617B693A689A617B69002285
:103380001A627B6900225A70FB7A03F00F03DAB2EB
:103390007B691A70FB681B69012B02D17A687B6913
:1033A0005A61FB7A03F00F03002B09D1FB68186800
:1033B000FB681B69DBB21A46796903F0B7FC08E0C9
:1033C000FB681868FB681B69DBB21A46796903F071
:1033D00065FA002318461837BD4680BD80B483B017
:1033E00000AF78600B46FB70FB7803F00F02796842
:1033F0001346DB0013449B000B4403F527731B6843
:1034000018460C37BD465DF8047B704780B586B022
:1034100000AFF8607A603B600B46FB72FB7A03F00A
:103420000F021346DB0013449B003833FA68134441
:1034300004337B617B697A681A617B693A689A61B7
:103440007B6900221A627B6901225A70FB7A03F0C1
:103450000F03DAB27B691A70FB681B69012B02D17A
:103460007A687B695A61FB7A03F00F03002B09D15C
:10347000FB681868FB681B69DBB21A46796903F0C0
:1034800055FC08E0FB681868FB681B69DBB21A464C
:10349000796903F003FA002318461837BD4680BD4A
:1034A00080B584B000AF78600B46FB70FB7803F00A
:1034B0000F027B685B689A4201D9012350E097F9BB
:1034C0000330002B0FDAFB7803F00F021346DB000A
:1034D00013449B0038337A6813440433FB60FB6861
:1034E00001225A700DE0FA781346DB0013449B006A
:1034F00003F51E737A6813440433FB60FB680022F3
:103500005A70FB6801229A70FB7803F00F03DAB25D
:10351000FB681A707B6893F8BC34012B01D102233D
:103520001EE07B68012283F8BC247B681B68F96875
:10353000184603F093FEFB7803F00F03002B0AD12B
:103540007B6818687B681B69D9B27B6803F2C44347
:103550001A4604F083F87B68002283F8BC24002319
:1035600018461037BD4680BD80B584B000AF786086
:103570000B46FB70FB7803F00F027B685B689A4296
:1035800001D9012342E097F90330002B0FDAFB78D1
:1035900003F00F021346DB0013449B0038337A68B4
:1035A00013440433FB60FB6801225A700FE0FB7880
:1035B00003F00F021346DB0013449B0003F51E7358
:1035C0007A6813440433FB60FB6800225A70FB687E
:1035D00000229A70FB7803F00F03DAB2FB681A70CE
:1035E0007B6893F8BC34012B01D102230EE07B6889
:1035F000012283F8BC247B681B68F968184603F035
:103600009BFE7B68002283F8BC24002318461037F9
:10361000BD4680BD80B584B000AF78600B46FB70BE
:1036200097F90330002B0CDAFB7803F00F021346F6
:10363000DB0013449B0038337A6813440433FB6087
:103640000CE0FB7803F00F021346DB0013449B00F1
:1036500003F51E737A6813440433FB607B681B68B0
:10366000F968184603F0BAFC0346FB72FB7A184669
:103670001037BD4680BD80B58AB002AF7860396032
:103680007B681B687B617B693B613A681346DB00A2
:1036900013449B0038337A6813440433FB60FB689F
:1036A0001A6AFB689B699A4201D901236CE0FB68A6
:1036B0009A69FB681B6AD31AFB61FB68DB68FA69CD
:1036C0009A4202D9FB68DB68FB61FB6903339B0804
:1036D000BB612BE0FB689A69FB681B6AD31AFB612C
:1036E000FB68DB68FA699A4202D9FB68DB68FB6118
:1036F000FB6903339B08BB61FB6819693B68DAB25D
:10370000FB6998B27B681B69DBB20093034678695A
:1037100003F00EFDFB681A69FB691A44FB681A6125
:10372000FB681A6AFB691A44FB681A623B685A0113
:103730003B69134403F510639B699BB2BA699A42D3
:1037400009D8FB681A6AFB689B699A4203D2FB6836
:103750009B69002BBED1FB689A69FB681B6A9A4281
:1037600011D83B6803F00F03012202FA03F3BB6098
:103770003B6903F500635A6BBB68DB43396901F5AC
:10378000006113404B63002318462037BD4680BDBF
:1037900080B588B000AF786039607B681B68FB61DA
:1037A000FB69BB61FB693C3304331B687B613B688D
:1037B0005A01BB69134403F530639B683B617B6826
:1037C0001B69012B7BD13B6903F00803002B15D04B
:1037D0007B69614A934240F2B9803B6903F400433C
:1037E000002B00F0B3803B685A01BB69134403F51A
:1037F00030631A464FF400439360A7E03B6903F03F
:103800002003002B09D03B685A01BB69134403F520
:1038100030631A462023936098E03B6903F0280345
:10382000002B40F093807B694B4A93420FD93B6950
:1038300003F40043002B0AD03B685A01BB691344D0
:1038400003F530631A464FF4004393607EE03A6814
:103850001346DB0013449B0003F51E737A68134480
:103860000433FB60FB68DA693B685901BB690B44B0
:1038700003F530631B69C3F31203D21AFB681A62A3
:103880003B68002B14D1FB689B69002B09D17B6836
:1038900018687B6803F2C4431A46012103F0DEFE78
:1038A00006E0FB681A69FB681B6A1A44FB681A6128
:1038B0003B68DBB21946786806F0B2F946E07B69EE
:1038C000264A934224D13B6903F40043002B0AD0DB
:1038D0003B685A01BB69134403F530631A464FF441
:1038E0000043936032E03B6903F02003002B08D0D3
:1038F0003B685A01BB69134403F530631A46202321
:1039000093603B68DBB21946786806F089F91DE0E0
:103910003B68002B14D179683A681346DB001344E6
:103920009B000B4403F525731B68002B08D17B68B3
:1039300018687B6803F2C4431A46002103F08EFE28
:103940003B68DBB21946786806F06AF9002318462E
:103950002037BD4680BD00BF0A30544F0A31544F56
:1039600080B586B000AF786039607B681B687B618A
:103970007B693B617B693C3304331B68FB603B68BC
:103980005A013B69134403F530639B68BB60FB68D5
:10399000154A93420ED9BB6803F40043002B09D0AB
:1039A0003B685A013B69134403F530631A464FF4F0
:1039B00000439360786806F021F9FB680A4A934255
:1039C0000CD97B681B69012B08D17B6818687B6860
:1039D00003F2C4431A46012103F040FE00231846B7
:1039E0001837BD4680BD00BF0A30544F80B485B043
:1039F00000AF78600B46FB7013463B807B681B680A
:103A00005B6ABB60FB78002B07D13B8819047B689D
:103A10001B68BA680A439A6228E07B681B689B6A45
:103A20001B0CBA681344BB600023FB730DE07B687A
:103A30001A68FB7B40339B0013445B681B0CBA681D
:103A40001344BB60FB7B0133FB73FA7BFB78013BC8
:103A50009A42ECD33B8818047B681968FB78013BD9
:103A6000BA68024340339B000B445A600023184657
:103A70001437BD465DF8047B704780B483B000AF57
:103A800078600B467B807B681B687A885A620023CB
:103A900018460C37BD465DF8047B704780B483B090
:103AA00000AF78600B46FB7000BF0C37BD465DF879
:103AB000047B704780B586B000AF78607B68002BD0
:103AC00001D1012367E27B681B6803F00103002B2F
:103AD00075D0884B9B6803F00C03042B0CD0854BEE
:103AE0009B6803F00C03082B12D1824B5B6803F434
:103AF0008003B3F5800F0BD17E4B1B6803F40033BA
:103B0000002B5BD07B685B68002B57D1012342E21E
:103B10007B685B68B3F5803F06D1764B1B68754ABE
:103B200043F4803313601DE07B685B68B3F5A02F1E
:103B30000CD1704B1B686F4A43F4802313606D4BAC
:103B40001B686C4A43F4803313600BE0694B1B68BD
:103B5000684A23F480331360664B1B68654A23F47C
:103B6000802313607B685B68002B13D0FDF72AFE6F
:103B7000386108E0FDF726FE02463B69D31A642B44
:103B800001D9032307E25B4B1B6803F40033002BCE
:103B9000F0D014E0FDF716FE386108E0FDF712FEE4
:103BA00002463B69D31A642B01D90323F3E1514B3D
:103BB0001B6803F40033002BF0D100E000BF7B68EA
:103BC0001B6803F00203002B63D04A4B9B6803F091
:103BD0000C03002B0BD0474B9B6803F00C03082B06
:103BE0001CD1444B5B6803F48003002B16D1414B7E
:103BF0001B6803F00203002B05D07B68DB68012BF8
:103C000001D00123C7E13B4B1B6823F0F8027B681E
:103C10001B69DB00374913430B603AE07B68DB68C4
:103C2000002B20D0344B01221A60FDF7CBFD386108
:103C300008E0FDF7C7FD02463B69D31A022B01D904
:103C40000323A8E12B4B1B6803F00203002BF0D0E9
:103C5000284B1B6823F0F8027B681B69DB002549B1
:103C600013430B6015E0244B00221A60FDF7AAFDF8
:103C7000386108E0FDF7A6FD02463B69D31A022B26
:103C800001D9032387E11B4B1B6803F00203002BC0
:103C9000F0D17B681B6803F00803002B36D07B68EB
:103CA0005B69002B16D0154B01221A60FDF78AFDC7
:103CB000386108E0FDF786FD02463B69D31A022B06
:103CC00001D9032367E10B4B5B6F03F00203002B69
:103CD000F0D01BE0094B00221A60FDF773FD38613C
:103CE0000EE0FDF76FFD02463B69D31A022B07D9A0
:103CF000032350E10038024000004742800E474253
:103D0000884B5B6F03F00203002BEAD17B681B68D2
:103D100003F00403002B00F097800023FB75814B18
:103D20001B6C03F08053002B0FD10023BB607D4B35
:103D30001B6C7C4A43F0805313647A4B1B6C03F07A
:103D40008053BB60BB680123FB75774B1B6803F492
:103D50008073002B18D1744B1B68734A43F4807333
:103D60001360FDF72FFD386108E0FDF72BFD0246DB
:103D70003B69D31A022B01D903230CE16A4B1B6860
:103D800003F48073002BF0D07B689B68012B06D175
:103D9000644B1B6F634A43F0010313671CE07B68AD
:103DA0009B68052B0CD15F4B1B6F5E4A43F00403ED
:103DB00013675C4B1B6F5B4A43F0010313670BE017
:103DC000584B1B6F574A23F001031367554B1B6F6A
:103DD000544A23F0040313677B689B68002B15D0BB
:103DE000FDF7F0FC38610AE0FDF7ECFC02463B69A8
:103DF000D31A41F28832934201D90323CBE0494BD5
:103E00001B6F03F00203002BEED014E0FDF7DAFC89
:103E100038610AE0FDF7D6FC02463B69D31A41F24D
:103E20008832934201D90323B5E03E4B1B6F03F068
:103E30000203002BEED1FB7D012B05D1394B1B6C0E
:103E4000384A23F0805313647B689B69002B00F091
:103E5000A180344B9B6803F00C03082B5CD07B687B
:103E60009B69022B41D1314B00221A60FDF7AAFC5D
:103E7000386108E0FDF7A6FC02463B69D31A022B25
:103E800001D9032387E0274B1B6803F00073002B45
:103E9000F0D17B68DA697B681B6A1A437B685B6ACE
:103EA0009B011A437B689B6A5B08013B1B041A4316
:103EB0007B68DB6A1B061B4913434B601B4B0122CB
:103EC0001A60FDF77FFC386108E0FDF77BFC0246D5
:103ED0003B69D31A022B01D903235CE0114B1B6809
:103EE00003F00073002BF0D054E0104B00221A6056
:103EF000FDF768FC386108E0FDF764FC02463B69A9
:103F0000D31A022B01D9032345E0064B1B6803F0AB
:103F10000073002BF0D13DE07B689B69012B07D13A
:103F2000012338E000380240007000406000474242
:103F30001B4B5B68FB607B689B69012B28D0FB688F
:103F400003F480027B68DB699A4221D1FB6803F0AD
:103F50003F027B681B6A9A421AD1FA6847F6C0731F
:103F600013407A68526A9201934211D1FB6803F4BC
:103F700040327B689B6A5B08013B1B049A4207D175
:103F8000FB6803F070627B68DB6A1B069A4201D013
:103F9000012300E0002318461837BD4680BD00BF4E
:103FA0000038024080B584B000AF786039607B682B
:103FB000002B01D10123CCE0684B1B6803F0070301
:103FC0003A689A420CD9654B3A68D2B21A70634B80
:103FD0001B6803F007033A689A4201D00123B8E056
:103FE0007B681B6803F00203002B20D07B681B68F2
:103FF00003F00403002B05D0594B9B68584A43F447
:10400000E05393607B681B6803F00803002B05D026
:10401000534B9B68524A43F460439360504B9B68F8
:1040200023F0F0027B689B684D4913438B607B68EB
:104030001B6803F00103002B44D07B685B68012BF5
:1040400007D1474B1B6803F40033002B19D1012320
:104050007FE07B685B68022B03D07B685B68032B87
:1040600007D13F4B1B6803F00073002B09D10123DC
:104070006FE03B4B1B6803F00203002B01D10123CF
:1040800067E0374B9B6823F003027B685B68344929
:1040900013438B60FDF796FBF8600AE0FDF792FB97
:1040A0000246FB68D31A41F28832934201D90323B6
:1040B0004FE02B4B9B6803F00C027B685B689B0016
:1040C0009A42EBD1254B1B6803F007033A689A42EA
:1040D0000CD2224B3A68D2B21A70204B1B6803F004
:1040E00007033A689A4201D0012332E07B681B68DB
:1040F00003F00403002B08D0194B9B6823F4E05213
:104100007B68DB68164913438B607B681B6803F090
:104110000803002B09D0124B9B6823F460427B6894
:104120001B69DB000E4913438B6000F021F8024647
:104130000B4B9B681B0903F00F030A49CB5C22FA67
:1041400003F3094A1360094B1B681846FDF7F6FA9A
:10415000002318461037BD4680BD00BF003C02401A
:104160000038024044D1000804000020080000206C
:104170002DE9B04F90B000AF00237B630023FB63B9
:1041800000233B630023BB63594B9B6803F00C0384
:10419000082B0DD0082B00F2A180002B02D0042B9D
:1041A00003D09BE0534BBB639BE0534BBB6398E056
:1041B0004F4B5B6803F03F037B634D4B5B6803F43D
:1041C0008003002B28D04A4B5B689B0900223B628E
:1041D0007A623B6AC3F308000021474B03FB01F2FC
:1041E000002300FB03F31344434AA0FB0212FA62CC
:1041F0000A46BA62FA6A1344FB627B6B0022BB6117
:10420000FA61D7E90623D7E90A01FCF7D5FC024693
:104210000B461346FB6353E0354B5B689B0900225A
:104220003B617A613B69C3F3080A4FF0000B5246C9
:104230005B464FF000004FF00001590141EAD261A6
:10424000500102460B46B2EB0A0863EB0B094FF034
:1042500000024FF000034FEA891343EA98634FEAE4
:104260008812B2EB080463EB09054FF000024FF02F
:104270000003EB0043EA5473E20014461D4614EBBE
:104280000A033B6045EB0B037B604FF000024FF0ED
:104290000003D7E9004529468B02214643EA9153A2
:1042A00021468A02104619467B6B0022BB60FA60E9
:1042B000D7E90223FCF780FC02460B461346FB635A
:1042C0000B4B5B681B0C03F0030301335B003B6388
:1042D000FA6B3B6BB2FBF3F3BB6302E0054BBB63D2
:1042E00000BFBB6B18464037BD46BDE8B08F00BF6E
:1042F000003802400024F40040787D0180B400AF13
:10430000034B1B681846BD465DF8047B704700BF31
:104310000400002080B500AFFFF7F0FF0246054B18
:104320009B689B0A03F007030349CB5C22FA03F363
:10433000184680BD0038024054D1000880B500AF57
:10434000FFF7DCFF0246054B9B685B0B03F007039E
:104350000349CB5C22FA03F3184680BD00380240C3
:1043600054D1000880B582B000AF78607B68002B24
:1043700001D1012341E07B6893F83D30DBB2002B93
:1043800006D17B68002283F83C207868FDF7B6F8F8
:104390007B68022283F83D207B681A687B680433BF
:1043A0001946104600F088FA7B68012283F84620FF
:1043B0007B68012283F83E207B68012283F83F203E
:1043C0007B68012283F840207B68012283F841202A
:1043D0007B68012283F842207B68012283F8432016
:1043E0007B68012283F844207B68012283F8452002
:1043F0007B68012283F83D20002318460837BD461C
:1044000080BD000080B485B000AF78607B6893F811
:104410003D30DBB2012B01D0012344E07B68022256
:1044200083F83D207B681B68DA687B681B6842F074
:104430000102DA607B681B681E4A934218D07B68D1
:104440001B68B3F1804F13D07B681B681A4A9342F4
:104450000ED07B681B68194A934209D07B681B68A1
:10446000174A934204D07B681B68164A934211D1C5
:104470007B681B689B6803F00703FB60FB68062BE7
:1044800010D07B681B681A687B681B6842F00102C9
:104490001A6007E07B681B681A687B681B6842F03B
:1044A00001021A60002318461437BD465DF8047BEC
:1044B000704700BF000001400004004000080040B9
:1044C000000C00400040014080B582B000AF786031
:1044D0007B681B681B6903F00203022B22D17B68F7
:1044E0001B68DB6803F00203022B1BD17B681B688F
:1044F0006FF002021A617B6801221A777B681B68E1
:104500009B6903F00303002B03D0786800F0B5F932
:1045100005E0786800F0A7F9786800F0B8F97B68E2
:1045200000221A777B681B681B6903F00403042BC5
:1045300022D17B681B68DB6803F00403042B1BD1CA
:104540007B681B686FF004021A617B6802221A778D
:104550007B681B689B6903F44073002B03D0786869
:1045600000F08BF905E0786800F07DF9786800F0DC
:104570008EF97B6800221A777B681B681B6903F041
:104580000803082B22D17B681B68DB6803F0080353
:10459000082B1BD17B681B686FF008021A617B68CF
:1045A00004221A777B681B68DB6903F00303002B86
:1045B00003D0786800F061F905E0786800F053F9FD
:1045C000786800F064F97B6800221A777B681B68C2
:1045D0001B6903F01003102B22D17B681B68DB687A
:1045E00003F01003102B1BD17B681B686FF01002C7
:1045F0001A617B6808221A777B681B68DB6903F401
:104600004073002B03D0786800F037F905E0786834
:1046100000F029F9786800F03AF97B6800221A77EF
:104620007B681B681B6903F00103012B0ED17B68BB
:104630001B68DB6803F00103012B07D17B681B6853
:104640006FF001021A617868FCF7A4FD7B681B68B3
:104650001B6903F08003802B0ED17B681B68DB682D
:1046600003F08003802B07D17B681B686FF080020A
:104670001A61786800F0B2FA7B681B681B6903F066
:104680004003402B0ED17B681B68DB6803F04003BE
:10469000402B07D17B681B686FF040021A61786875
:1046A00000F0FFF87B681B681B6903F02003202BD8
:1046B0000ED17B681B68DB6803F02003202B07D139
:1046C0007B681B686FF020021A61786800F07CFA42
:1046D00000BF0837BD4680BD80B584B000AF7860AC
:1046E00039600023FB737B6893F83C30012B01D1C8
:1046F0000223B4E07B68012283F83C207B6802221D
:1047000083F83D207B681B689B68BB60BB6823F017
:104710007703BB60BB6823F47F43BB607B681B6887
:10472000BA689A603B681B68B3F5005F3ED0B3F58A
:10473000005F00F28780B3F5805F00F08680B3F5FC
:10474000805F7FD8702B1AD0702B7BD8602B50D015
:10475000602B77D8502B3CD0502B73D8402B58D09F
:10476000402B6FD8302B64D0302B6BD8202B60D0EF
:10477000202B67D8002B5CD0102B5AD062E07B68CE
:1047800018683B6899683B685A683B68DB6800F0CA
:104790008DF97B681B689B68BB60BB6843F077033F
:1047A000BB607B681B68BA689A604FE07B681868DA
:1047B0003B6899683B685A683B68DB6800F076F9AB
:1047C0007B681B689A687B681B6842F480429A6029
:1047D0003CE07B6818683B6859683B68DB681A46B0
:1047E00000F0EAF87B681B685021184600F043F996
:1047F0002CE07B6818683B6859683B68DB681A46A0
:1048000000F009F97B681B686021184600F033F955
:104810001CE07B6818683B6859683B68DB681A468F
:1048200000F0CAF87B681B684021184600F023F9A5
:104830000CE07B681A683B681B681946104600F05C
:104840001AF903E00123FB7300E000BF7B6801223B
:1048500083F83D207B68002283F83C20FB7B1846D0
:104860001037BD4680BD80B483B000AF786000BF14
:104870000C37BD465DF8047B704780B483B000AF51
:10488000786000BF0C37BD465DF8047B704780B48C
:1048900083B000AF786000BF0C37BD465DF8047B85
:1048A000704780B483B000AF786000BF0C37BD465E
:1048B0005DF8047B7047000080B485B000AF78607D
:1048C00039607B681B68FB607B68344A93420FD079
:1048D0007B68B3F1804F0BD07B68314A934207D09D
:1048E0007B68304A934203D07B682F4A934208D1B9
:1048F000FB6823F07003FB603B685B68FA68134356
:10490000FB607B68254A93421BD07B68B3F1804FE4
:1049100017D07B68224A934213D07B68214A934286
:104920000FD07B68204A93420BD07B681F4A93428A
:1049300007D07B681E4A934203D07B681D4A93428E
:1049400008D1FB6823F44073FB603B68DB68FA68BE
:104950001343FB60FB6823F080023B685B691343F1
:10496000FB607B68FA681A603B689A687B68DA6269
:104970003B681A687B689A627B68084A934203D155
:104980003B681A697B681A637B6801225A6100BF21
:104990001437BD465DF8047B704700BF000001403E
:1049A0000004004000080040000C004000400140AE
:1049B000004401400048014080B487B000AFF86077
:1049C000B9607A60FB681B6A7B61FB681B6A23F035
:1049D0000102FB681A62FB689B693B613B6923F03B
:1049E000F0033B617B681B013A6913433B617B69C0
:1049F00023F00A037B617A69BB6813437B61FB6820
:104A00003A699A61FB687A691A6200BF1C37BD4631
:104A10005DF8047B704780B487B000AFF860B96080
:104A20007A60FB681B6A23F01002FB681A62FB685D
:104A30009B697B61FB681B6A3B617B6923F4704364
:104A40007B617B681B037A6913437B613B6923F0BD
:104A5000A0033B61BB681B013A6913433B61FB68E0
:104A60007A699A61FB683A691A6200BF1C37BD46D1
:104A70005DF8047B704780B485B000AF7860396022
:104A80007B689B68FB60FB6823F07003FB603A68FF
:104A9000FB68134343F00703FB607B68FA689A6086
:104AA00000BF1437BD465DF8047B704780B487B003
:104AB00000AFF860B9607A603B60FB689B687B611F
:104AC0007B6923F47F437B613B681A027B681A434E
:104AD000BB6813437A6913437B61FB687A699A6008
:104AE00000BF1C37BD465DF8047B704780B485B0BD
:104AF00000AF786039607B6893F83C30012B01D1BE
:104B0000022350E07B68012283F83C207B6802226C
:104B100083F83D207B681B685B68FB607B681B68D3
:104B20009B68BB60FB6823F07003FB603B681B68FD
:104B3000FA681343FB607B681B68FA685A607B68FD
:104B40001B681C4A934218D07B681B68B3F1804FE6
:104B500013D07B681B68184A93420ED07B681B6891
:104B6000164A934209D07B681B68154A934204D0C9
:104B70007B681B68134A93420CD1BB6823F0800307
:104B8000BB603B685B68BA681343BB607B681B68AB
:104B9000BA689A607B68012283F83D207B68002216
:104BA00083F83C20002318461437BD465DF8047B8B
:104BB000704700BF000001400004004000080040B2
:104BC000000C00400040014080B483B000AF78602A
:104BD00000BF0C37BD465DF8047B704780B483B0DE
:104BE00000AF786000BF0C37BD465DF8047B7047AE
:104BF00080B582B000AF78607B68002B01D10123C3
:104C00003FE07B6893F83D30DBB2002B06D17B6838
:104C1000002283F83C207868FCF7C2FC7B682422E1
:104C200083F83D207B681B68DA687B681B6822F488
:104C30000052DA60786800F0E1FE7B681B681A6950
:104C40007B681B6822F490421A617B681B685A6972
:104C50007B681B6822F02A025A617B681B68DA684D
:104C60007B681B6842F40052DA607B6800221A6499
:104C70007B68202283F83D207B68202283F83E2039
:104C8000002318460837BD4680BD80B58AB002AF04
:104C9000F860B9603B601346FB8000237B61FB68D2
:104CA00093F83E30DBB2202B40F08C80BB68002BA9
:104CB00002D0FB88002B01D1012384E0FB6893F82C
:104CC0003C30012B01D102237DE0FB68012283F8F7
:104CD0003C20FB6800221A64FB68222283F83E20F5
:104CE000FB6800221A63FCF76DFD7861FB68FA88A7
:104CF0009A85FB68FA88DA85FB689B68B3F5805F64
:104D000008D1FB681B69002B04D10023FB61BB6841
:104D1000BB6103E0BB68FB610023BB61FB68002251
:104D200083F83C2043E03B6800937B69002220210C
:104D3000F86800F032FC0346002B01D0032342E068
:104D4000FB69002B0CD1FB681B685B689BB2C3F34B
:104D500008039AB2BB691A80BB690233BB611FE0CA
:104D6000FB689B68B3F5805F07D0FB689B68002BEE
:104D70000AD1FB681B69002B06D1FB681B685B68C6
:104D8000DAB2FB691A7008E0FB681B685B68DBB28B
:104D900003F07F03DAB2FB691A70FB690133FB6130
:104DA000FB68DB8D9BB2013B9AB2FB68DA85FB683E
:104DB000DB8D9BB2002BB6D1FB68202283F83E200E
:104DC000002300E0022318462037BD4680BD0000C6
:104DD00080B58CB000AFF860B9601346FB80FB680B
:104DE00093F83D30DBB2202B65D1BB68002B02D09D
:104DF000FB88002B01D101235EE0FB6893F83C3077
:104E0000012B01D1022357E0FB68012283F83C20EB
:104E1000BA68FB681A62FB68FA889A84FB68FA88A9
:104E2000DA84FB6800221A64FB68212283F83D20A3
:104E3000FB685B6B224ADA63FB685B6B214A1A648E
:104E4000FB685B6B204ADA64FB685B6B00221A65C7
:104E500007F10803FB62FB68586BFB6A1968FB6883
:104E60001B6804331A46FB88FCF79CFEFB681B6832
:104E70006FF040021A60FB68002283F83C20FB6858
:104E80001B681433BB61BB6953E8003F7B617B69DE
:104E900043F08003BB62FB681B681433BA6A7A6212
:104EA0003B62396A7A6A41E80023FB61FB69002BA7
:104EB000E5D1002300E0022318463037BD4680BD0F
:104EC00051540008EB5400080755000880B5BAB0EB
:104ED00000AF78607B681B681B68C7F8E4307B68AC
:104EE0001B68DB68C7F8E0307B681B685B69C7F844
:104EF000DC300023C7F8D8300023C7F8D430D7F807
:104F0000E43003F00F03C7F8D830D7F8D830002BBF
:104F10000FD1D7F8E43003F02003002B09D0D7F8E5
:104F2000E03003F02003002B03D0786800F0AAFCE7
:104F300056E2D7F8D830002B00F0DE80D7F8DC300E
:104F400003F00103002B06D1D7F8E03003F490738F
:104F5000002B00F0D180D7F8E43003F00103002BE0
:104F60000BD0D7F8E03003F48073002B05D07B68BA
:104F70001B6C43F001027B681A64D7F8E43003F03D
:104F80000403002B0BD0D7F8DC3003F00103002B17
:104F900005D07B681B6C43F002027B681A64D7F86B
:104FA000E43003F00203002B0BD0D7F8DC3003F021
:104FB0000103002B05D07B681B6C43F004027B6867
:104FC0001A64D7F8E43003F00803002B11D0D7F8A7
:104FD000E03003F02003002B05D1D7F8DC3003F0DC
:104FE0000103002B05D07B681B6C43F008027B6833
:104FF0001A647B681B6C002B00F0ED81D7F8E4305D
:1050000003F02003002B08D0D7F8E03003F0200392
:10501000002B02D0786800F035FC7B681B685B6968
:1050200003F04003402B0CBF01230023DBB2C7F881
:10503000D4307B681B6C03F00803002B03D1D7F836
:10504000D430002B4FD0786800F03DFB7B681B68A4
:105050005B6903F04003402B41D17B681B6814332C
:10506000C7F89C30D7F89C3053E8003FC7F8983019
:10507000D7F8983023F04003C7F8D0307B681B681E
:105080001433D7F8D020C7F8A820C7F8A430D7F831
:10509000A410D7F8A82041E80023C7F8A030D7F81B
:1050A000A030002BD9D17B689B6B002B13D07B6881
:1050B0009B6B7D4A1A657B689B6B1846FCF73AFE32
:1050C0000346002B16D07B689B6B1B6D7A68926B36
:1050D000104698470EE0786800F0A4F90AE0786876
:1050E00000F0A0F906E0786800F09CF97B680022E7
:1050F0001A6470E100BF6EE17B681B6B012B40F00E
:105100004A81D7F8E43003F01003002B00F043810C
:10511000D7F8E03003F01003002B00F03C810023AF
:10512000BB607B681B681B68BB607B681B685B6837
:10513000BB60BB687B681B685B6903F04003402B66
:1051400040F0B4807B689B6B1B685B68A7F8BE303F
:10515000B7F8BE30002B00F040817B689B8DB7F81C
:10516000BE209A4280F039817B68B7F8BE20DA858C
:105170007B689B6BDB69B3F5807F00F088807B6880
:105180001B680C33C7F88830D7F8883053E8003FE5
:10519000C7F88430D7F8843023F48073C7F8B83068
:1051A0007B681B680C33D7F8B820C7F89420C7F881
:1051B0009030D7F89010D7F8942041E80023C7F832
:1051C0008C30D7F88C30002BD9D17B681B68143316
:1051D0007B677B6F53E8003F3B673B6F23F0010326
:1051E000C7F8B4307B681B681433D7F8B420C7F80D
:1051F0008020FB67F96FD7F8802041E80023BB6768
:10520000BB6F002BE1D17B681B6814333B663B6EA0
:1052100053E8003FFB65FB6D23F04003C7F8B03057
:105220007B681B681433D7F8B020FA66BB66B96E8A
:10523000FA6E41E800237B667B6E002BE3D17B682E
:10524000202283F83E207B6800221A637B681B685B
:105250000C33FB64FB6C53E8003FBB64BB6C23F076
:105260001003C7F8AC307B681B680C33D7F8AC2050
:10527000BA657B65796DBA6D41E800233B653B6D8E
:10528000002BE3D17B689B6B1846FCF7E3FC7B6843
:105290009A8D7B68DB8D9BB2D31A9BB219467868D6
:1052A00000F0CAF899E000BF8D5700087B689A8D1E
:1052B0007B68DB8D9BB2D31AA7F8CE307B68DB8D81
:1052C0009BB2002B00F08B80B7F8CE30002B00F0A3
:1052D00086807B681B680C33BB63BB6B53E8003F65
:1052E0007B637B6B23F49073C7F8C8307B681B68C3
:1052F0000C33D7F8C8207A643B64396C7A6C41E887
:105300000023FB63FB6B002BE3D17B681B6814332A
:105310007B627B6A53E8003F3B623B6A23F00103F8
:10532000C7F8C4307B681B681433D7F8C4203A63CD
:10533000FB62F96A3A6B41E80023BB62BB6A002B4F
:10534000E3D17B68202283F83E207B6800221A6329
:105350007B681B680C333B613B6953E8003FFB6093
:10536000FB6823F01003C7F8C0307B681B680C3360
:10537000D7F8C020FA61BB61B969FA6941E8002336
:105380007B617B69002BE3D1B7F8CE301946786892
:1053900000F052F823E0D7F8E43003F08003002B4C
:1053A00009D0D7F8E03003F08003002B03D07868F1
:1053B00000F000FA14E0D7F8E43003F04003002BCB
:1053C0000ED0D7F8E03003F04003002B08D0786807
:1053D00000F040FA04E000BF02E000BF00E000BFC0
:1053E000E837BD4680BD00BF80B483B000AF7860B1
:1053F00000BF0C37BD465DF8047B704780B483B0B6
:1054000000AF786000BF0C37BD465DF8047B704785
:1054100080B483B000AF786000BF0C37BD465DF844
:10542000047B704780B483B000AF786000BF0C3756
:10543000BD465DF8047B704780B483B000AF7860F0
:105440000B467B8000BF0C37BD465DF8047B704780
:1054500080B590B000AF78607B689B6BFB637B6826
:105460001B681B6803F48073002B37D1FB6B002291
:10547000DA84FB6B1B6814337B627B6A53E8003F62
:105480003B623B6A23F08003BB63FB6B1B681433F6
:10549000BA6B3A63FB62F96A3A6B41E80023BB627C
:1054A000BB6A002BE5D1FB6B1B680C333B613B698E
:1054B00053E8003FFB60FB6843F040037B63FB6BFA
:1054C0001B680C337A6BFA61BB61B969FA6941E810
:1054D00000237B617B69002BE5D102E0F86BFFF7CD
:1054E00083FF00BF4037BD4680BD80B584B000AFAC
:1054F00078607B689B6BFB60F868FFF77FFF00BFFD
:105500001037BD4680BD80B584B000AF7860002301
:10551000FB607B689B6BBB60BB681B685B6903F0CF
:105520008003802B0CBF01230023DBB2FB60BB6830
:1055300093F83D30DBB2212B08D1FB68002B05D05E
:10554000BB680022DA84B86800F095F8BB681B6875
:105550005B6903F04003402B0CBF01230023DBB247
:10556000FB60BB6893F83E30DBB2222B08D1FB68AE
:10557000002B05D0BB680022DA85B86800F0A3F8DC
:10558000BB681B6C43F01002BB681A64B868FFF775
:1055900049FF00BF1037BD4680BD80B590B000AF59
:1055A000F860B9603B601346FB7150E0BB6CB3F12F
:1055B000FF3F4CD0BB6C002B07D0FCF703F9024631
:1055C0003B68D31ABA6C9A4241D2FB681B680C3311
:1055D000BB62BB6A53E8003F7B627B6A23F4D073F3
:1055E000FB63FB681B680C33FA6B7A633B63396BB4
:1055F0007A6B41E80023FB62FB6A002BE5D1FB6874
:105600001B6814337B617B6953E8003F3B613B6956
:1056100023F00103BB63FB681B681433BA6B3A6267
:10562000FB61F9693A6A41E80023BB61BB69002B61
:10563000E5D1FB68202283F83D20FB68202283F817
:105640003E20FB68002283F83C2003230FE0FB6828
:105650001B681A68BB681340BA689A420CBF0123E2
:105660000023DBB21A46FB799A429FD000231846EA
:105670004037BD4680BD80B489B000AF78607B689C
:105680001B680C33FB60FB6853E8003FBB60BB68E2
:1056900023F0C003FB617B681B680C33FA69BA61B5
:1056A0007B617969BA6941E800233B613B69002B62
:1056B000E5D17B68202283F83D2000BF2437BD461A
:1056C0005DF8047B704780B495B000AF78607B686C
:1056D0001B680C337B637B6B53E8003F3B633B6B86
:1056E00023F49073FB647B681B680C33FA6C3A6498
:1056F000FB63F96B3A6C41E80023BB63BB6B002B87
:10570000E5D17B681B6814333B623B6A53E8003F7A
:10571000FB61FB6923F00103BB647B681B681433E6
:10572000BA6CFA62BB62B96AFA6A41E800237B622A
:105730007B6A002BE5D17B681B6B012B19D17B6841
:105740001B680C33FB60FB6853E8003FBB60BB6821
:1057500023F010037B647B681B680C337A6CBA619E
:105760007B617969BA6941E800233B613B69002BA1
:10577000E5D17B68202283F83E207B6800221A63F3
:1057800000BF5437BD465DF8047B704780B584B0D8
:1057900000AF78607B689B6BFB60FB680022DA855A
:1057A000FB680022DA84F868FFF73CFE00BF103780
:1057B000BD4680BD80B485B000AF78607B6893F84B
:1057C0003D30DBB2212B3ED17B689B68B3F5805F17
:1057D00014D17B681B69002B10D17B681B6AFB60AE
:1057E000FB681B881A467B681B68C2F308025A6074
:1057F0007B681B6A9A1C7B681A6208E07B681B6ADC
:10580000591C7A6811621A787B681B685A607B6839
:10581000DB8C9BB2013B9BB27A681946D184002B8A
:105820000FD17B681B68DA687B681B6822F08002F6
:10583000DA607B681B68DA687B681B6842F04002AC
:10584000DA60002300E0022318461437BD465DF8F5
:10585000047B704780B582B000AF78607B681B68BE
:10586000DA687B681B6822F04002DA607B682022DD
:1058700083F83D207868FFF7B7FD00231846083706
:10588000BD4680BD80B58CB000AF78607B6893F872
:105890003E30DBB2222B40F0AB807B689B68B3F5D7
:1058A000805F17D17B681B69002B13D10023FB623B
:1058B0007B689B6ABB627B681B685B689BB2C3F3B7
:1058C00008039AB2BB6A1A807B689B6A9A1C7B6841
:1058D0009A6226E07B689B6AFB620023BB627B685E
:1058E0009B68B3F5805F07D07B689B68002B0AD16B
:1058F0007B681B69002B06D17B681B685B68DAB28A
:10590000FB6A1A7008E07B681B685B68DBB203F017
:105910007F03DAB2FB6A1A707B689B6A5A1C7B6849
:105920009A627B68DB8D9BB2013B9BB27A68194619
:10593000D185002B5AD17B681B68DA687B681B68AD
:1059400022F02002DA607B681B68DA687B681B68DB
:1059500022F48072DA607B681B685A697B681B6876
:1059600022F001025A617B68202283F83E207B6886
:105970001B6B012B35D17B6800221A637B681B6887
:105980000C337B617B6953E8003F3B613B6923F04B
:1059900010037B627B681B680C337A6A3A62FB6196
:1059A000F9693A6A41E80023BB61BB69002BE5D184
:1059B0007B681B681B6803F01003102B0AD10023BF
:1059C000FB607B681B681B68FB607B681B685B680F
:1059D000FB60FB687B689B8D19467868FFF72CFDA0
:1059E00002E07868FFF714FD002302E0002300E0E6
:1059F000022318463037BD4680BD00002DE9B04F68
:105A0000C0B000AFC7F8F400D7F8F4301B681B69CA
:105A100023F44050D7F8F430D968D7F8F4301A6836
:105A200040EA01031361D7F8F4309A68D7F8F430EC
:105A30001B691A43D7F8F4305B691A43D7F8F4307E
:105A4000DB691343C7F8F830D7F8F4301B68DB681C
:105A500023F4164121F00C01D7F8F4301A68D7F876
:105A6000F8300B43D360D7F8F4301B685B6923F43C
:105A70004070D7F8F4309969D7F8F4301A6840EAE2
:105A800001035361D7F8F4301A688F4B9A4205D05E
:105A9000D7F8F4301A688D4B9A4204D1FEF74EFCC9
:105AA000C7F8FC0003E0FEF735FCC7F8FC00D7F8A8
:105AB000F430DB69B3F5004F40F00C81D7F8FC30CF
:105AC0000022C7F8E830C7F8EC20D7E93A4522466B
:105AD0002B469118B9655B41FB65D7E91623214632
